:020000040000FA
:0600000002010A02243394
:03002B000228ABFD
:0300330002288D13
:03003B000228CCCC
:030043000228414F
:030053000224A6DE
:03006B0002286701
:1000830002229FE5C754F84401F5C7790122000015
:100093000080FB120086B900030200F4E4792178A2
:1000A30008B800028004F709D8FCE479297802B87B
:1000B30000028004F709D8FCE49002817854790C9B
:1000C3008002F0A3D8FCD9FA900DD4AA82AB839016
:1000D300013A78D979048015E493A3AC82AD838A7D
:1000E300828B83F0A3AA82AB838C828D83D8E9D9D8
:1000F300E77582CD7583C8740312011C75829175EF
:100103008300740012011C75D00075813F7518813E
:10011300751902759F00020096C09FF59FE473D086
:100123009F22D083D082C09FE493C0E0740193C028
:10013300E0740293F59F22FF0000B400002800281A
:1001430000283075A000A000A000A000000800084F
:10015300E001F0001000100010001000100010006B
:1001630050005000500010001000D00700000000A5
:1001730000000F00010005003075070010000100AA
:1001830081FF00000000FF10072E071607FF020281
:100193000208025000A0000000E80302658201008B
:1001A300005482025D820100002B0E02578201007F
:1001B30000B302025D820100002C0E02678201007F
:1001C30000C902025D820100002D0E02838201003C
:1001D30000CB02025D820100002E0E027B8208002A
:1001E30000CC02025D820100002F0E027782010023
:1001F30000300EFF0100FF200265820100004E82E5
:10020300025D82010000940E02858200000000005E
:100213000259820300001903E00CE00CE00CE00C2F
:10022300E00CE00CE00CE00CE00CE00CE00CE00C6B
:10023300E00C620F7A0F5C0FFFFF0200E2FF020087
:10024300E7FF0200F3FF0200F3FFFAFF07000300DA
:10025300F9FFFBFF07000400F7FF07000300090095
:1002630003000A000E0005000D0005000E00020247
:1002730002020202020202010D00000010010265E7
:10028300820100004B82025D820100000B0F026BB2
:10029300820100009A07025D820100000C0F026DCB
:1002A300820100006D81025D820100000D0F026F6B
:1002B300820100005181025D820100000E0F027174
:1002C30082010000DF80025D820100000F0F0273D4
:1002D30082010000CD80025D82010000100F0275D3
:1002E300820100009780025D82010000110F0279F4
:1002F30082010000BB80025D82010000120F0281B7
:10030300820100005F81025D82010000130F026120
:1003130082010000140F01E803053F100AFF0001EA
:100323003075030201060000000000000000000019
:1003330000000000000000000000000000000000BA
:100343000000FFFF0600800CE80384030F0013097D
:100353004F666669636577656C6C20233030303097
:100363003030051208000800020A000201060302E9
:10037300F1FF4F666669636577656C6C20233030E7
:1003830030316431000000B4140000C0140A486125
:1003930072647761726520496E666F726D6174690C
:1003A3006F6E000A507265736574204865696768EB
:1003B300740002506F7374757265204A75646765C3
:1003C3006D656E74000A416374696F6E2052616ECD
:1003D30067650008436F6E74726F6C20436F6D6DB9
:1003E300616E6400125065736B205374617475738E
:1003F300000A4C6F636B2053746174757300025071
:100403006F77657275702054696D657374616D7073
:100413000000104865616C746820446174610002D7
:1004230065820100005182025D820100002A1002F0
:100433008982030000980D025B820100002B1002E9
:100443005D820100004010028B820300009C0D02BC
:100453005B820100004110025D820100004F100227
:100463008D82010000A40D025B8201000050100286
:100473005D820100006210028F82030000A60D025C
:100483005B820100006310025D82010000701002B4
:100493009182020000AA0D025B820100007110022A
:1004A3005D820100008110029382010000AB0D0206
:1004B3005982030000AF0D025B820100008210022B
:1004C3005D820100008E10029582030000B50D02CB
:1004D3005B820100008F10025D820100009B10020D
:1004E3009782010000BA0D025B820100009C10029A
:1004F3005D82010000AF10027F82000000BE0D028A
:100503005982030000CE0D025B82010000B010127D
:100513000125AEB803120125C5B803120125F6B8AB
:100523000312012531B9031201255BB90312012519
:1005330085B9031201259CB903120125B3B903122E
:100543000125CAB903120125F3B90312012506BA1D
:10055300031201251CBA031201252FBA0312012528
:1005630056BA03120125DF7400120125E375001248
:1005730001251B76001201253E76001201254976DE
:10058300001201256C76001201257B7700120125EC
:10059300507800120125CB780012012553790012FF
:1005A30001258E7900120125C57900120125537AA0
:1005B300001201252C7B001201258C7B00120125E2
:1005C300977B00120125167C00120125197C00126D
:1005D30001251C7C00120125AB7C00120125AE7C99
:1005E30000120125DE7C00120125087D0012012581
:1005F300F67D00120125A87E00120125A68A0312AA
:100603000125CE8A03120125FC8A03120125338BAF
:1006130003120125918B03120125DC8B03120125A3
:10062300278C03120125678C03120125AD8C03125D
:100633000125DB8C03120125988D03120125A28D60
:1006430003120125AF8D03120125E28D031201254B
:10065300AE8E03120125BA8E03120125D28E031228
:100663000125DC8E03120125197F00120125277F46
:10067300001201253F7F00120125577F001201253B
:10068300A6E00112012552E101120125CDE101127B
:100693000125EEE2011201252AE301120125D3E32C
:1006A30001120125BAE4011201251EE601120125FA
:1006B30075E601120125F6E601120125E6E70112AE
:1006C300012533E801120125B9E801120125EBE800
:1006D30001120125FFEA0112012541EB0112012557
:1006E3005FEB01120125E2EB01120125B6EC0112C9
:1006F30001257EED01120125DEEF02120125B1F085
:10070300021201255AF102120125ADF1021201254F
:100713005DF202120125E9F202120125D5F302125C
:10072300012504F40212012517F5021201255FF5D4
:100733000212012534F60212012570F60212012578
:100743008CF6021201252AC703120125ACA4031259
:100753000125C2A403120125E8A40312012504A65E
:10076300031201250EA60312012543A70312012537
:100773003BA8031201257F8503120125AF860312CF
:100783000125E286031201252C8703120125F38834
:100793000312012554C101120125BEC10112012515
:1007A3001DC3011201252DC3011201255AC30112D4
:1007B3000125B1C3011201255AC40112012561C5E6
:1007C300011201252BC6011201258BC70112012538
:1007D300CEC70112012573C801120125C0C8011239
:1007E3000125E6C801120125F4CA01120125F9CA3F
:1007F30001120125FECC011201254BCD0112012569
:10080300BECD01120125F1CD0112012593CE0112B6
:1008130001253CCF0112012574CF0112012577CFA9
:1008230001120125BFCF01120125FFCF01120125BE
:1008330056D0011201253EAB0312012556AB03121C
:1008430001259EAB03120125B4AB03120125FBABBB
:10085300031201250FAD031201259CAD03120125DF
:10086300E7AD031201254029001201254C2900128E
:100873000125872900120125CC29001201258C2A84
:1008830000120125122B00120125772B00120125DE
:10089300A32B00120125DC2B001201251A2E0012B6
:1008A3000125FE2F00120125E43100120125273313
:1008B3000012012575350012012587360012012526
:1008C300D23700120125E23800120125FF38001249
:1008D30001253A39001201255C3900120125BF397F
:1008E30000120125803E00120125153F001201254B
:1008F300663F001201258D3F00120125DF3F0012E4
:100903000125FD3F001201255740001201254041FA
:1009130000120125B642001201253A4300120125B7
:10092300638F031201256D8F03120125B08F03120C
:100933000125CB8F031201255B90031201258390C0
:1009430003120125C09003120125F790031201251C
:10095300209103120125959103120125AA910312F7
:100963000125BF9103120125F09103120125049281
:100973000312012529920312012563920312012513
:100983008F92031201251B93031201254693031231
:1009930001258F9303120125B99303120125E493D3
:1009A3000312012584C00312012517B70212012582
:1009B30045B70212012593B80212012573B9021239
:1009C300012592B9021201250FBA0212012552BA6A
:1009D30002120125A8BB0212012569BC02120125DE
:1009E300F0BE0212012591BF0212012587C0021237
:1009F300012584C102120125DEC20212012569C349
:100A03000212012529BF0312012592BF03120125FA
:100A1300E6BF031201250DC0031201253EC00312D8
:100A230001250C9403120125799403120125C09426
:100A330003120125D89503120125D496031201252B
:100A4300B79703120125B9D702120125FBD702126A
:100A53000125CDD802120125A6D902120125A0DA5B
:100A63000212012582DB02120125EBDB02120125B2
:100A7300A1DC0212012515DD0212012581DD02121E
:100A83000125AADD0212012524DE02120125BDDEA5
:100A93000212012522DF0212012537DF021201258E
:100AA3007DDF0212012596DF02120125FBDF021210
:100AB3000125FEDF0212012545A8031201256DA8B9
:100AC30003120125ABA80312012569A9031201250D
:100AD300D0A903120125ECA90312012514AA0312BC
:100AE300012544AA0312012553AA03120125D0AA02
:100AF30003120125F6AA0312012543D10112012590
:100B030021D30112012553D5011201258FD50112DD
:100B13000125BCD501120125A6D601120125F1D666
:100B2300011201253CD7011201254ED701120125DF
:100B33008ED701120125C3D70112012511D8011245
:100B4300012540D80112012563D801120125B0D82F
:100B53000112012535D9011201254FDB01120125AF
:100B63008EDD01120125CFDD0112012571DF011296
:100B73000125B2DF0112012525E0011201257BE0E9
:100B83000112012502AA0212012500AB021201255E
:100B930099B102120125BAB30212012585B50212D9
:100BA3000125EDB602120125045D00120125B35D96
:100BB30000120125F95D00120125395F001201259C
:100BC300CF60001201254961001201256461001202
:100BD3000125DF61001201253963001201259964A3
:100BE300001201259F6500120125006700120125EF
:100BF3001967001201257767001201256568001245
:100C030001259868001201250869001201258269EF
:100C130000120125CC6900120125966A00120125F4
:100C23006B6B001201254A6C00120125D56C001272
:100C33000125436D00120125B76D00120125E26DF8
:100C430000120125A16E0012012506700012012574
:100C53002370001201254270001201253371001226
:100C63000125587100120125827100120125FD71C1
:100C730000120125577200120125C07300120125CD
:100C83006E7400120125AF74001201252E9C02120E
:100C930001257C9C02120125889C02120125669D78
:100CA30002120125979D02120125C89D02120125FA
:100CB300489E02120125809E02120125D29E021235
:100CC30001250F9F021201252CA10212012552A317
:100CD300021201253DA50212012527A702120125B3
:100CE300F07F0012012541AD0112012571AD011202
:100CF30001254AB401120125CFB501120125CCBB50
:100D030001120125B4BC01120125F1BC0112012518
:100D130014BD0112012545BD011201254EBD01126D
:100D2300012558BD0112012546BE011201253CBF14
:100D330001120125329801120125319C011201256E
:100D4300379C0112012572A3011201258BA8011200
:100D5300012582FC021201257CFD02120125F0FD12
:100D6300021201252EFE02120125A2FE0212012506
:100D73001BFF0212012524FF0212012530FF02127C
:100D8300012545FF0212012583FF0212012599FF68
:100D93000212012579980312012586980312012571
:100DA300A09803120125DF98031201251D99031250
:100DB3000125829903120125979903120125A2990E
:100DC30003120125AF9903120125C69903120125C8
:100DD300D49903120125DF9903120125EB9903121C
:100DE3000125FA9903120125059A03120125289A70
:100DF30003120125CF9A03120125DF9A031201255D
:100E0300F99A03120125169B03120125329B031243
:100E13000125579B03120125629B03120125779B32
:100E2300031201258B9B03120125EC9B0312012561
:100E3300F29B03120125F89B03120125FE9B03126B
:100E43000125169C03120125499C031201250580E7
:100E5300021201258980021201253881021201251F
:100E6300978202120125B88402120125A485021279
:100E73000125D98502120125FB8502120125AA86C7
:100E830002120125A28802120125CB880212012534
:100E93005D89021201258F89021201259C890212A4
:100EA3000125F38902120125198A02120125868C74
:100EB30002120125898D02120125E18D02120125FD
:100EC30097EF01120125A1F00112012588F101120A
:100ED300012592F101120125B4F101120125C0F19E
:100EE3000112012559F30112012588F3011201258D
:100EF300A4F401120125FDF40112012563F6011288
:100F0300012542F7011201259EF7011201250BF875
:100F13000112012546F80112012585F80112012568
:100F23003EFB0112012558FB01120125E4FB0112CE
:100F33000125F2FB011201254BFC0112012559FC8D
:100F430001120125CCFC0112012530FD01120125FE
:100F53007AFD01120125EAC3021201250CC4021213
:100F6300012532C60212012547C9021201255FCAB3
:100F73000212012512CB02120125F4CB0212012524
:100F830068BA031201258DBA03120125FFBA0312B1
:100F9300012564E8021201256DE80212012576E8B5
:100FA300021201254DE902120125FEEA0212012572
:100FB30034EB021201256EEB02120125A4EB02129F
:100FC3000125DEEB0212012512EC021201253EEC93
:100FD3000212012587EC02120125C1EC0212012540
:100FE3000AED0212012562ED0212012597ED0212AC
:100FF3000125F2ED021201252CEE021201257DEEF0
:1010030002120125B3EE02120125EDEE02120125B3
:101013001BEF021201253EEF0212012556C50312F2
:10102300012582C503120125DDC503120125E7C58C
:1010330003120125F7C50312012501F70212012549
:101043000BF70212012549F70212012592F702124A
:101053000125CCF70212012526F80212012547F8D3
:101063000212012550F8021201259DF802120125F2
:10107300C6F802120125D0F8021201253CF902122A
:101083000125CEF90212012518FA021201254EFAA2
:1010930002120125DAFA021201251BFB02120125B5
:1010A30052FB0212012564FB0212012583FB02128B
:1010B30001258CFB0212012554FC021201259DC15E
:1010C3000312012594C20312012503FE0112012517
:1010D30039FE011201256FFE01120125BAFF01122B
:1010E3000125AEC703120125C4C703120125CEC7CC
:1010F3000312012518C803120125C69C03120125FA
:10110300DB9C031201258E9D03120125CE9D031244
:101113000125E79D03120125229E031201256F9EDF
:1011230003120125A19E03120125E39E031201254B
:10113300EEA003120125A9C303120125D2C3031292
:10114300012501C40312012519C4031201255BC43F
:1011530003120125A14300120125FB4300120125BF
:10116300A84400120125A545001201254646001298
:1011730001255147001201256F47001201255748E9
:10118300001201257648001201250E49001201259F
:10119300554A00120125A84A00120125004B0012EE
:1011A3000125DD4B00120125275000120125C750F0
:1011B300001201259C5100120125F6510012012550
:1011C3002C5200120125AB52001201253753001295
:1011D3000125AC53001201255A5400120125725403
:1011E30000120125A05400120125CC540012012540
:1011F300CA5500120125235800120125775A0012FF
:101203000125A95B00120125B65C00120125C45C0F
:101213000012012511AE0312012536AE031201257A
:1012230060AE0312012577C8031201259C820112C7
:101233000125018501120125A28601120125568788
:1012430001120125E987011201256E88011201258A
:10125300938801120125E98B011201256F8C01127C
:101263000125A28D01120125DC8D01120125118EAC
:1012730001120125D18F011201252E9001120125A2
:10128300779001120125E290011201255391011279
:1012930001258591011201259D9101120125E692F7
:1012A30001120125F6920112012511940112012563
:1012B3003394011201256994011201251D9601122F
:1012C3000125AA9601120125E996011201250D981F
:1012D30001120125A0C403120125B1C40312012583
:1012E30020C9031201255FC90312012587C903120F
:1012F300012501C60312012511C6031201252CC6BF
:101303000312012594C603120125A5C20312012568
:101313002AC30312012590C303120125AFBD031293
:101323000125D8BD0312012543BE0312012594BE36
:1013330003120125EFBE03120125DDB003120125BF
:10134300F2B0031201250EB20312012582B2031279
:1013530001259CB203120125B3B203120125C6B2C3
:1013630003120125E0B203120125F7B2031201258E
:101373001DB3031201256EB303120125FBA0031253
:10138300012512A1031201258CA10312012570A2CC
:101393000312012547A403120125A3B30312012558
:1013A30033B403120125A3B40312012534B5031288
:1013B30001253DB503120125BBB503120125F3B584
:1013C3000312012553B60312012566B60312012544
:1013D3009EC6031201250DC7031201251FC7031261
:1013E30001250DBC031201255FBC03120125E9BCD5
:1013F3000312012550BD0312012569B6031201250D
:1014030093B60312012561B7031201253CB80312F9
:10141300012522E002120125E9E00212012520E163
:10142300021201254AE102120125AAE10212012555
:1014330000E20212012565E202120125FDE2021219
:1014430001250CE402120125A3E50212012530E671
:101453000212012597E602120125AEE602120125CA
:10146300C8E70212012506E8021201252F8E021297
:101473000125B091021201253893021201258F93A1
:1014830002120125AE93021201252C9402120125AA
:10149300C29502120125A79602120125B59A0212DE
:1014A30001258B9B0212012518CF02120125C1D2FF
:1014B3000212012594D302120125C8D40212012578
:1014C300E8D5021201251ED702120125A5D7021263
:1014D30001250080031201255080031201256D8030
:1014E30003120125E281031201255882031201250B
:1014F300468303120125468503120125C9FF021203
:10150300012569C903E066701008A3E066700A0844
:10151300A3E066700408A3E06622C3E7960809E720
:10152300960809E7960809E79622C3E09608A3E020
:101533009608A3E09608A3E09622C008C3E096F5B8
:101543000808A3E096420808A3E096420808A3E02F
:101553009645087001D3D00822080808E630E71141
:10156300121745121574080808C64480C6181818BF
:1015730022181818E9799EC608CAC608CBC608CC33
:10158300C6C370207996CACBCC7019798ECBCC7038
:10159300137986CC700EF9802ACA33CACB33CBCCED
:1015A30033CC331930E7F2CCCBCA3350147004EA8E
:1015B30030E00DE4CA3ACACB3BCBCC3CCC50020959
:1015C300C3E913C6CC182313C6CB18C6CA18C6F969
:1015D30022E6C33318461846184622E7C333194791
:1015E3001947194722E6084608C313460833600221
:1015F300E633F422E7094709C3134709336002E7D7
:1016030033F4221215E8601C1215F760171215D473
:1016130070071215DE7001D322C0D01215DE7006DA
:10162300D0D0B322C32233D0D0501430E0F6C3E776
:10163300960809E7960809E7960809E796B3222072
:10164300E0D5E6970809E6970809E6970809E697BB
:10165300B322080808EAC0E0EBC0E086F0E7A4FA8A
:10166300180986F0E7A42AFA180986F0E7A42AFAEB
:10167300180986F0E7A42AFA1986F0E7A4FBE5F037
:101683002AFA190886F0E7A42BFBE5F03AFA1908C1
:1016930086F0E7A42BFBE5F03AFA18180986F0E781
:1016A300A4C5F02BFBE43AFA1908E7C5F0C6A42653
:1016B300F6E5F03BFBE43AFA1886F0E7A4F6E5F02A
:1016C3000826F6E43B08F6E43A08F6D0E0FBD0E05F
:1016D300FA22E4CFC0E0E4CEC0E0E4CDC0E0E4CC45
:1016E300C0E075F020C3E633F608E633F608E633C8
:1016F300F608E633F6181818EC33FCED33FDEE3339
:10170300FEEF33FFC3EC9709ED9709EE9709EF97C7
:10171300191919400FFFEC97FC09ED97FD09EE9796
:10172300FE191906D5F0BEECF709EDF709EEF70936
:10173300EFF7191919D0E0FCD0E0FDD0E0FED0E0BE
:10174300FF22181818E4C396F608E496F608E49600
:10175300F608E496F6226016080808C6C313C618EE
:10176300C613C618C613C618C613C6D5E0EA227038
:1017730009080808226016181818C6C333C608C615
:1017830033C608C633C608C633C6D5E0EA22E62701
:10179300F60809E637F60809E637F60809E637F6E4
:1017A30022E026F608A3E036F608A3E036F608A3FF
:1017B300E036F622E026F008A3E036F008A3E03690
:1017C300F008A3E036F022C3E697F60809E697F699
:1017D3000809E697F60809E697F622C3E096F008AB
:1017E300A3E096F008A3E096F008A3E096F022E6C3
:1017F30057F60809E657F60809E657F60809E657C3
:10180300F622E056F608A3E056F608A3E056F608DB
:10181300A3E056F622E056F008A3E056F008A3E052
:1018230056F008A3E056F022E647F60809E647F625
:101833000809E647F60809E647F622E0F608A3E0BA
:10184300F608A3E0F608A3E0F622E6F008A3E6F024
:1018530008A3E6F008A3E6F022E0FAA3E0FBA3E086
:10186300FCA3E0FD22EAF0A3EBF0A3ECF0A3EDF080
:1018730022CAC0E0E6F0A308DAFAD0E0FA22CAC02E
:10188300E0E0A3C582CCC582C583CDC583F0A3C5E3
:1018930082CCC582C583CDC583DAE6D0E0CA22C334
:1018A300E498F8E499F91218E38026C3E49AFAE479
:1018B3009BFBE920E7E91218E3E498F8E499F9229D
:1018C300C3E498F8E499F91218E3E498F8E499F971
:1018D300C3E49AFAE49BFB22EB20E7CFE920E7E09D
:1018E300B90010BB0008E88AF084F8AAF022E4FBF0
:1018F300C8FA22EB70227B10C833C8C933C93350EE
:1019030007C39AC3DBF280069A50012ADBEAC83385
:10191300F4C8C933F4C9FA2275F008E4C833C8C956
:1019230033C933C99AC99B5004C92AC93BD5F0ECC2
:10193300FBC833F4C8E4C9FA22600D08C6A2E71352
:10194300C618C613C6D5E0F322600C08C6C313C677
:1019530018C613C6D5E0F422700422600D18C6C35E
:1019630033C608C633C6D5E0F41822251810AF08CD
:10197300F518400215198008F51840021519D2AF61
:1019830022C0D0251810AF08F51850020519800899
:10199300F51850020519D2AFD0D0222518F58210C0
:1019A300AF08F518400215198008F51840021519FB
:1019B300D2AF851983222518F582E43519F58322E0
:1019C300E4732518C582C0E0E51934FFC583C0E080
:1019D300E518C3958224F810AF088583198582180A
:1019E3008008858319858218D2AFCEF0A3E520F055
:1019F300A37808E608F0A3DEFAEFF0A3E58124FA62
:101A0300F8E608F0A3E608F0A3E608F0A30808E662
:101A130008F0A3E608F0A315811581D0E0FED0E01D
:101A2300F8158115811581E8C0E0EEC0E022251884
:101A3300C582C0E0E51934FFC583C0E0E518C3954E
:101A43008224F910AF08858319858218800885835D
:101A530019858218D2AFCEF0A3E520F0A37808E66B
:101A630008F0A3DEFAEFF0A3E58124FBF8E608F023
:101A7300A3E608F0A30808E608F0A3E608F0A31518
:101A8300811581D0E0FED0E0F815811581E8C0E032
:101A9300EEC0E022851983851882E0A3FEE0A3F55A
:101AA300207808E0A3F608DFFAE0A3FFE0A3C0E094
:101AB300E0A3C0E0E0A3C0E0E0A3C0E0E0A3C0E097
:101AC30010AF08858218858319800885821885835D
:101AD30019D2AFD083D0820201228519838518825F
:101AE300E0A3FEE0A3F5207808E0A3F608DFFAE020
:101AF300A3FFE0A3C0E0E0A3C0E0E0A3C0E0E0A355
:101B0300C0E010AF08858218858319800885821884
:101B1300858319D2AFD083D08222C0D02518C58245
:101B2300C0E0E51934FFC583C0E0E518C3958224FE
:101B3300F310AF088583198582188008858319857A
:101B43008218D2AFC8F0A3E9F0A3EAF0A3EBF0A3A5
:101B53007908E709F0A3D8FAECF0A3EDF0A3EEF0CF
:101B6300A3EFF0A3D0E0F0A3D0E0F0A3D0E0F0A384
:101B7300E520F0A3E5F0F0A322851983851882E020
:101B8300C0E0A3E0F9A3E0FAA3E0FBA37808E0F642
:101B930008A3DFFAE0FCA3E0FDA3E0FEA3E0FFA3BC
:101BA300E0C0E0A3E0C0E0A3E0F5D0A3E0F520A30C
:101BB300E0A3F5F010AF08858319858218800885A6
:101BC3008319858218D2AFD082D083D0E0F8D0E0D9
:101BD3003274048006740280027401C0E0F40412BB
:101BE300199ED0E0121874227404800474028000D9
:101BF300CCC0E0EDC0E0E518C39CCCAD1950011D8D
:101C030010AF068C188D1980068C188D19D2AF125F
:101C13001881D0E0FDD0E0FC22D083D082E9C0E07F
:101C2300E493A3C386F0C5F095F0F908E493A38683
:101C3300F0C5F095F0700BE493A3C3994005E90454
:101C43008002A3E475F002A42582F582E5F03583D2
:101C5300F583D0E0F9E493A3C0E0E493C0E022D09D
:101C630083D082ECC0E0EDC0E0E493A3FCE493A353
:101C7300FDED4C600D121CAEEC24FFFCED34FFFDBA
:101C830080EFE493A3FCE493A3FDED4C600D121CE1
:101C9300EDEC24FFFCED34FFFD80EFD0E0FDD0E060
:101CA300FCE493A3C0E0E493C0E022C0E0C3E49368
:101CB30096087401939618400FE4936670080874AD
:101CC3000193661870007019A3A3C3E49396087474
:101CD30001939618A3A3400DD0E0D0E0D0E0021CFE
:101CE3009EA3A3A3A3A3A3D0E022C0E0C0F088F0E7
:101CF300E4936670080874019366187000A8F0A353
:101D0300A3700BD0F0D0E0D0E0D0E0021C9EA3A3E0
:101D1300D0F0D0E02274F5121A31EAFEEBFFEE2484
:101D230034F8EF3400F988088909EE2435F582EF99
:101D33003400F583E0F8EE2437F582EF3400F583C1
:101D4300E0F50AEC850AF0A4FCAAF0850AF0EDA4FC
:101D53002AFDE82CF8E43DF97A257B001218E3EA22
:101D6300850882850983F0F8740758F97401B9006E
:101D7300028004C333D9FCFAE8131313541FF8EE9B
:101D830028F8EF3400F9E8245DF582E93400F5839F
:101D9300E05A6008EE2434F582EF802CEE2434F50B
:101DA30082EF3400F583E0C0E0EE2436F582EF34B1
:101DB30000F583E0F5F0D0E084A8F0EE28F8EF34E6
:101DC30000F9E82438F582E93400F583E0F97F046B
:101DD300021ADD74F5121A31EAFEEBFFEE2434F534
:101DE30082EF3400F583E0C0E0EE2435F582EF3472
:101DF30000F583D0E0F08E828F83A3A3A3A3A3A3D4
:101E0300A3C082C0838E828F83A3A3A3A3A3E0F87E
:101E1300A3E0F9D083D082E0C398F508A3E099F555
:101E230009EE247FF582EF3400F583E064017069E5
:101E3300EE2480F582EF3400F583E0F8A3E0F98E19
:101E4300828F83A3A3A3A3A3A3A3E0FCA3E0FD8E9C
:101E5300828F83A3A3A3A3A3E0FAA3E0FBC3EA9C1B
:101E6300EB9D5010C3EC98ED99402EC3EA98EB9983
:101E73005027800EC3EA98EB994007C3EC98ED997D
:101E830040177CDC7D04EEFAEFFB120C3EEE247F60
:101E9300F582EF3400F583E4F0EE2434F8EF3400F8
:101EA300F9E8FCE9FDEE2435F582EF3400F583E033
:101EB300F8EE2437F582EF3400F583E0F50AE50800
:101EC300850AF0A4F508AAF0850AF0E509A42AF525
:101ED30009E82508F8E43509F97A257B001218E3A7
:101EE300EA8C828D83F0F8740758F97401B9000203
:101EF3008004C333D9FCFAE8131313541FF8EE28F4
:101F0300F8EF3400F9E8245DF582E93400F583E065
:101F13005A6008EE2434F582EF802CEE2434F582E7
:101F2300EF3400F583E0C0E0EE2436F582EF3400B1
:101F3300F583E0F5F0D0E084A8F0EE28F8EF340064
:101F4300F9E82438F582E93400F583E0F912282D05
:101F5300021DD1C082C083851882851983E0F8A34E
:101F6300E0F9C3EA9CEB9D5010C3EC98ED99401B3C
:101F7300C3EA98EB995014800EC3EA98EB99400793
:101F8300C3EC98ED994004790180027900D083D0A5
:101F93008222EAC39CFAEB9DFB2274EF121A319062
:101FA30003A2E064086005E06407702A9061C8E05A
:101FB30060249003D0E0F4601DE0F875F003A4C83A
:101FC300AAF02AF974D228FE740339FF8E828F8314
:101FD300A3A3A3E070030220CD906060E0C0E0EE15
:101FE3002468F582EF3400F583D0E0F0750C457575
:101FF3000D05750800750900E5D914F50AE5D954EE
:1020030003F50E60177403650E605CE50A6010EE5D
:102013002467F582EF3400F583E070030220B29069
:102023000540E06401602AEE2482F582EF3400F576
:1020330083E06004780480027800850A08E508C319
:1020430098FA95E0FB120B0C8A088B09EA45097094
:1020530005120E308074EE2482F582EF3400F5838E
:10206300E070048A0C8B0DE50A6012850C82850DE5
:1020730083F50BE5D9F0A3150BE50B70F6EE24827F
:10208300F582EF3400F583E0604474FC250AF50A19
:10209300780C121BD8AC0AA90EEEFAEFFB120CDA7D
:1020A3007402121984E97026AA08AB091213E8799D
:1020B3003D8E828F83A3A3A3A3E0FA7B001209E0E2
:1020C300EEFAEFFB120C56120CEC790080747403D9
:1020D300650E6056850A107511007810121BD8AC76
:1020E3000CAD0DAA08AB09120CB67402121984EEDA
:1020F3002468F582EF3400F583E064807004747F14
:102103008001E0F50C780C121BDCE50EF50C780C65
:10211300121BDCA90AAC08AD099003D0E0FA7B00DE
:102123001209A4740212198480139003A2E06408B4
:10213300600BAC0CAD0DEEFAEFFB120D46120E3C2C
:1021430079017F0A021ADD74F5121A3174FC12192F
:102153006EEAFEEBFF8908A2AFE433F509C2AF8054
:102163006AEE2463F8EF3400F97A007B00A2AFE44F
:1021730033F50AC2AF88828983E0FCA3E0FDEC4D0E
:10218300603A88828983E0FAA3E0FB8A828B83E04A
:10219300FCA3E0FD88828983ECF0A3EDF08A828BB7
:1021A30083E4F0A3F088828983E0FCA3E0FDEC4D97
:1021B300700A88828983A3A3E4F0A3F0E50AA2E06E
:1021C30092AF1213E89004E3E004F0EE2463F58287
:1021D300EF3400F583E0F8A3E0F9E849603DEE242D
:1021E30063F582EF3400F583E02402FAA3E03400C0
:1021F300FBEA2402F50AEB3400F50B780A121BD82C
:102203008A828B83E0FCA3E0F9EEFAEFFB120C7AEF
:102213007402121984E970030221649004E3E060FC
:10222300639004E4E0F89004E3E0C398500C740274
:10223300650870509004E5E0604A8E828F83A3A303
:10224300A3A3E0851882851983F0A3E4F09004E347
:10225300E0F874021219B9E8F0A3E4F09004E3E0A3
:10226300F89004E2E028F074021219B9AC82AD834D
:10227300851882851983AA82AB8379011209B090EC
:1022830004E3E4F0E509A2E092AF740412198402B6
:102293001DD10000008521878522C622C0E0C0D061
:1022A300E8C0E0E9C0E0EAC0E0EBC0E0ECC0E0ED8C
:1022B300C0E0EEC0E0C008C009C00AC00BC082C0C5
:1022C30083C0F0A2AFE433FEC2AF759B009061827E
:1022D300E0A2E05012E591A2E0500C7591FE74016A
:1022E30065217003121F9DE0A2E55051E591A2E51F
:1022F300504B7591DF9003A2E064076005E064082A
:10230300702374016521703579019003D0E0FA756B
:10231300F003A4CAA8F028FB74D22AFA74033BFB87
:1023230012214A8018E0640D70139003C4E004F096
:1023330064287002E4F07A00E0F9120E42906182A0
:10234300E0A2E640030223E6E591A2E6400302236E
:10235300E67591BF9003A2E064057008120D701238
:102363000D7C8003120D76752100120DD0E99003C8
:10237300A3F07900120DC4120BB47A017B00900311
:10238300A1E0F9121094907803E06442705590052F
:1023930044E014F0704DC2AF12239E00782AD0E0BF
:1023A300F618D0E0F6E59F540770057509FF800322
:1023B30075097FC4C0E07829E6F50808E65509F5F4
:1023C30009740B780812194CD0E02508F890627054
:1023D300E0A2E740F8E8C333906272F0906270E0E5
:1023E300D2E0F0906181E0A2E35009E5E9A2E35075
:1023F3000375E9F7A3E0A2E75009E591A2E75003CB
:1024030075917FEEA2E092AFD0F0D083D082D00B53
:10241300D00AD009D008D0E0FED0E0FDD0E0FCD057
:10242300E0FBD0E0FAD0E0F9D0E0F8D0D0D0E03251
:10243300C0E0C0D0C082C083906183E0A2E05009B5
:10244300E5BFA2E0500375BFFEE0A2E15009E5BF7E
:10245300A2E1500375BFFDE0A2E25009E5BFA2E28D
:10246300500375BFFBE0A2E35009E5BFA2E35003AD
:1024730075BFF7E0A2E45009E5BFA2E4500375BFBE
:10248300EFE0A2E55009E5BFA2E5500375BFDFE029
:10249300A2E65009E5BFA2E6500375BFBFD083D0C3
:1024A300828088C0E0C0D0E8C0E0E9C0E0EAC0E0D4
:1024B300EBC0E0ECC0E0EDC0E0C0F0E5A7A2E65061
:1024C3000FE5A1A2E6500953A7BF75A1BF12250BC3
:1024D300E5A7A2E5500CE5A1A2E5500653A7DF75D9
:1024E300A1DFE5A7A2E15009E5A1A2E1500375A18F
:1024F300FDE5A7A2E2500CE5A1A2E2500653A7FB1B
:1025030075A1FBD0F002241C74F8121A3175210155
:102513009003A2E064067015120D0A8A828B83A3CE
:10252300A3A3A3A3A3E0FAA3E0FB120D5EA2AFE46F
:1025330033FED2AF9003A8E0640170187A207B00C9
:102543009003A1E0F912111E7A207B009003A1E011
:10255300F912109A906182E0D2E6F0900541E060B2
:102563002185C62280169003A7E064017008E5C6A2
:1025730054F84405F5C653BEFC1222987401652134
:1025830060E4EEA2E092AF7F01021ADD008E238F9A
:1025930024858228858327851882851983E0CEA325
:1025A300E0CF852882852783EBC9EAC8EDCBECCA47
:1025B30075F010C3E833C8E933C9EA33CAEB33CB48
:1025C300C3EA9EF526EB9FF525B35004AB25AA2657
:1025D300EC33CCED33CDD5F0DAAE23AF242274ED5A
:1025E300121A318A088B098C0A8D0B74131219B9CC
:1025F300780C12183E7808790C12151D75100175A8
:1026030011C875120075130050127808790C12174F
:10261300CA7810790812151D50168010780C7908A5
:102623001217CA7810790C12151D40047901800223
:1026330079007F0C021ADD74ED121A318A088B09B6
:102643008C0A8D0B74131219B9780C12183E780C7E
:10265300790812151D40117808790C1217CAAA08B7
:10266300AB09AC0AAD0B8022751000751100751211
:10267300007513017810790C1217CA7810790812B3
:102683001791AA10AB11AC12AD1380A68A828B836B
:102693007508FF7509FF750AFF750B007808121896
:1026A300187F04021ADD74F5121A318C828D837837
:1026B3000812183E8A828B8378081217DEEA2404F4
:1026C300F8EB3400F98C828D83A3A3A3A3E0FCA3CE
:1026D300E0FD88828983C3E09CF0A3E09DF08882BB
:1026E3008983C3E09420A3E0944E40268A828B839F
:1026F3007508FF7509FF750AFF750BFF7808121738
:10270300B78A828B83A3A3A3A3E02420F0A3E0349E
:102713004EF002268F74F5121A31E9FE9004F7E0A9
:10272300FAA3E0FBEEC333F8E433F9743228F582FD
:10273300748139F583E02AF508A3E03BF5097808AD
:10274300121BD87A407B427C0F7D001225907402C5
:102753001219848A088B098C0A8D0B74107808125D
:102763001759AA08AB097F04021ADD74F1121A3152
:102773008A0C8B0D8C0E8D0F740F1219B9E0FAA30E
:10278300E0FB74111219B9E0F508A3E0F509780824
:10279300121BD8EA2401F508EB3400F509E4F50A25
:1027A300F50B780C790812165575087175090278BE
:1027B3000C7908121655AA0CAB0DAC0EAD0F1225F1
:1027C3009074021219848B09EA450960047A018026
:1027D300027A00EC2AFCED3400FD74131219B9E0FF
:1027E300F8A3E0F9E8FEE9FFECF8EDF97A717B0272
:1027F3001218E3880889098E828F83780812184D8E
:10280300ECF8EDF97A717B021218E38A088B0974EC
:1028130005780812195B8E828F83A3A3A3A3E5080F
:10282300F0A3E509F07F08021ADDC082C083E990B6
:102833006000F0D083D08222C2AF02000022C0E049
:1028430074F2121B1DA2AFE433FED2AFC2C0E5D1B6
:10285300A2E4500653D1EF1213CAEEA2E092AF7F67
:1028630001021B7CC0E074F2121B1DA2AFE433FE15
:10287300D2AFE589A2E15003121334758900C2C5B2
:10288300EEA2E092AF7F01021B7CC0E074F2121B48
:102893001DA2AFE433FED2AFE58BA2E050031213C7
:1028A30034758B00C2E880D8C0E0C0D0E8C0E0E94E
:1028B300C0E0E5A8D2AFC2C7A2E7A2E792AFD0E0DB
:1028C300F9D0E0F8D0D0D0E032C0E0C0D0E8C0E02A
:1028D300E9C0E0C008C009C082C083A2AFE433F9F5
:1028E300D2AF9008C2E0F8A3E0687008539AFBA344
:1028F30074018026C2E99008C2E0F5087401250836
:10290300F074BE2508F58274083400F583E0F5C140
:102913009008C2E0C394044002E4F0E9A2E092AF5D
:10292300D083D082D009D008D0E0F9D0E0F8D0D05D
:03293300D0E032BF
:10293800FFFFFFFFFFFFFFFFC082C083E9900E93F8
:10294800F0022BCF74F71219C5E99002E1F07C1957
:102958007D037AFF7BFF1208F69002E274FFF0A372
:10296800F0A3E4F0A3F0790512087E9002E1E0F903
:102978001207A07A147B09120ABE7F01021A977403
:10298800F41219C58A088B09EB548060309002E173
:10299800E0F912107C8A0A8B0BAE0AAF0BEE4F607F
:1029A800138E828F83E064B07003120896EEFAEFFC
:1029B800FB12106AAA08E5096480FB80047A007B90
:1029C80000022B9E74F21219C574FC12196EEAFEED
:1029D800EBFFEE4F603874021219B9EEF0A3EF1254
:1029E8002E03ECF0A3ED122E03AA82AB8312079AF2
:1029F800E9F508707374121219B91239B7E50A4566
:102A08000B60658E828F83122A7AEE4F70057508E7
:102A18000280557A067B001210D68A0C8B0DA80C02
:102A2800A90DE8497005750813803D88828983E4FB
:102A3800122A84A3A3EEF0A3EF123E50E50AF0A3F6
:102A4800E50BF09002E7122B0C9002E76017E0FC10
:102A5800A3E08003EAFCEBFD8C828D83122B0C70C3
:102A6800F38C828D831238DCA9087404121984024D
:102A78004052A3A3A3A3E0FEA3E0FF22F0A3F088A3
:102A88008289832274F21219C5890AE975F017A49C
:102A9800FEAFF09002E6E4F09002E4122B0C600A1C
:102AA8001210DC9002E4E4F0A3F0EEFAEFFB12104F
:102AB800D68A088B09EA4509602FEEFCEFFD7900FC
:102AC8001210589002E4E508F0A3E509F07B0080B5
:102AD80008122AF6E4F0A3F00BEBC3950A40F2E5DE
:102AE8000A9002E6F0790080027913024052EB75F1
:102AF800F017A4F8A9F09002E4E028FAA3E0398AD4
:102B080082F58322123672EA4B2274F41219C575C3
:102B18000800750900740C1219B9123E24FEE9FF69
:102B2800800CE5082401F508E5093400F509C3E53A
:102B3800089CE5099D503285080A85090B740378BD
:102B48000A12195BEA250AF8EB350BF988828983A2
:102B5800A3A3A3A3A3A31239B7EE650A7003EF6575
:102B68000B70BFE8FAE9FB80047A007B00802774C9
:102B7800F41219C57900EAA2E0501B7508D275094C
:102B8800817808121BD87C047D007A957B0E120888
:102B98007874021219847F04021A97C082C0839045
:102BA80002E7122BD6601C88828983A3A3E06A708F
:102BB80003A3E06B8882898370E8A3A3A3A31236DA
:102BC8006E80047A007B00D083D0820201221241F9
:102BD80025E8492274EE1219C574FC12196EEAFE32
:102BE800EBFF851882851983E4F0A3F0EE24021226
:102BF80038C0EE2405122DF1EE2404F50EEF123143
:102C0800D6E024FE603924FC604624FE605224FE8F
:102C1800605E24FE7003022CF624FE7003022D6E03
:102C280024FE7003022D7D24FE7003022D8C24FCEB
:102C38007003022D9B24FE7003022DAA022DE7903B
:102C480003007417F0A3E4122E0B120518022DE7E7
:102C5800851882851983AC82AD8312089C022DB732
:102C6800851882851983AC82AD831208A2022DB71C
:102C7800850C08850D0974021219B9AC82AD8385DB
:102C8800088285098312366E1207BE8A0C8B0DAC3A
:102C98000CAD0DEC4D6042E4F50CF50D780C121BF3
:102CA800D8750C00750D03780C121BD8750C0175BE
:102CB8000D03780C121BD874081219B9121BEF797E
:102CC800161236681208DE7408121984E9F50C70B9
:102CD8000B123664120530800F750C018508828549
:102CE8000983122DF91238DC850C08022DBA7402FA
:102CF8001219B9AC82AD83850C82850D8312366EAC
:102D08001207BE8A108B11AC10AD11EC4D604385D3
:102D18000C82850D83A3A3121BEF75100075110398
:102D28007810121BD87510017511037810121BD872
:102D380074081219B9121BEF79161236681208DED8
:102D48007408121984E9F509700B123664120536F5
:102D5800800F750901850C82850D83122DF91238B3
:102D6800DC850908804C851882851983AC82AD837F
:102D78001208A8803A851882851983AC82AD83121F
:102D880008AE802B851882851983AC82AD83120822
:102D9800B4801C851882851983AC82AD831208BA69
:102DA800800D851882851983AC82AD831208C0E92D
:102DB800F508E50860298E828F83A3E06414601FFC
:102DC800850E82850F83E0900300122E03124121A5
:102DD8009003011238DCE508A3122E0B120512EE3F
:102DE800FAEFFB12083C0237C8F50CEF3400F50D7A
:102DF8002212412585188285198322F0851882853B
:102E0800198322F07C007D03850A82850B831236A4
:102E1800722274EE1219C574FC12196E8A0A8B0B91
:102E28008C0E8D0FEA2405F508EB3400F5097C15A6
:102E38007D0079007A007B03121058E5082402F51A
:102E48000CE509122DF48518828519838582108571
:102E580083117810121BD8850882850983A3A3A340
:102E6800A312331E121BD8E5082405F510E5093412
:102E780000F5117810121BD8850C82850D83123647
:102E8800781207B874061219848A108B11AE10AF25
:102E980011E50A2402F50AE50B1238C3EE4F700358
:102EA800022FE0801774021219B912366E888289CF
:102EB80083EAF0A3EBF0900300E004F0900300E055
:102EC800C394054003022FE0E4F510F511781012C1
:102ED8001BD87510E97511027810121BD87510EA05
:102EE8007511027810121BD874061219B9121BEF4B
:102EF8007910EEFCEFFD1236681208DE740812191C
:102F080084E9705E850882850983A3A3A3A3A3A38C
:102F1800A3E0F89002E9E068704812331E121BD84B
:102F28007CEA7D02E5082408FAE5093400FB121062
:102F3800527402121984E960298E828F83A3A3A395
:102F4800A312366E900300E0F5107402781012197F
:102F58005B74012510F58274033511F583EAF0A33B
:102F6800EBF074021219B98582108583117810125A
:102F78001BD874021219B9121BEF850C82850D83B8
:102F88001241361207C474041219848A108B11AEC8
:102F980010AF11900300E0F510751100740278105D
:102FA80012195B74002510F874033511F9888289A9
:102FB80083A3122B0C7003022EA4E82403F8E9342F
:102FC80000F9EE4F6003022EAD8882898374FFF00A
:102FD800A3F0900300E004F0900300E0600A1236CA
:102FE800641205247900800B8508828509831238CC
:102FF800D3790A0237C874EA1219C574FE12196E19
:103008008C128D13EA2405F50CEB1242A0122A7ECD
:10301800750800750900EA2402F510EB3400F51173
:1030280085188285198385820A85830B780A121B85
:10303800D8850C82850D83A3A3A3A31231E0121BAC
:10304800D8E50C2405F50AE50D1238C3780A121BD9
:10305800D8850C82850D831241341207B874061284
:1030680019848A0A8B0BEA450B7003023191EA2412
:1030780004F50EEB1231D6122A7E8A828B83A3A323
:10308800A3E0F985108285118312366E1207A6E92E
:10309800F5096003023191E4F514F5157814121B53
:1030A800D87514E97515027814121BD87514EA75C9
:1030B80015027814121BD874061219B9121BEF796D
:1030C80013AC0AAD0B85108285118312366E120877
:1030D800DE7408121984E9F509600302319190023F
:1030E800E9E0F8E5087009E02402900301F0801790
:1030F800900301E0FCE82402FAE43400FBEA6C7077
:1031080001EB6003023195850882AA821233159477
:103118001412330D5073850E82850F83E0C0E0745E
:10312800022A1231CDD0E0F00508850E82850F8382
:10313800A3E0C0E085080A7402250A1231CDD0E068
:10314800F005089002E91231E0121BD87CEA7D02F2
:1031580085080A7402250AFA74033400FB12104029
:1031680074021219849002E9E02508F50874FF6ECC
:10317800700374FF6F6012EE24010EEF3400FFE558
:1031880008C394145003023028E508601312355917
:1031980085108285118312366E12052A79008014F3
:1031A800E509700375090A851282851383EEF0A379
:1031B800EFF0A90974021219847F0E021A97850884
:1031C8000C7402250CF58274033400F58322340054
:1031D800F50F850E82F58322123E632274EE1219D2
:1031E800C574FE12196E8C0E8D0FEA2405F50CEBD2
:1031F800122DF4750B00900300E4F0F50AEA24029E
:10320800F508EB3400F5098049900300E0FA9002D4
:10321800E9E0F8123315941712330D400D900300AE
:10322800E0F87416C3989002E9F012331E121BD806
:103238007CEA7D0274012AFA74033400FB12104000
:1032480074021219849002E9E0F8900300E028F073
:10325800050AE50C2416F582E50D1231D1E0F8E5F2
:103268000AC39840030232F6900300E0C394165054
:103278007DE50AC333F8E433F9E50C28FEE50D399A
:10328800FF851882851983AC82AD838E828F831265
:10329800366E1207BE8A108B11AC10AD11EC4D7052
:1032A80005750B018043E4F510F5117810121BD851
:1032B8007510E97511027810121BD87510EA75118E
:1032C800027810121BD874061219B9121BEF79165E
:1032D80085088285098312366E1208DE7408121971
:1032E80084E9F50B70030232111238CF80107C008C
:1032F8007D0385088285098312366E12053CA90B69
:1033080074020237CAE99400C365D03322EA28F868
:10331800E43400F9E822E0F5107511007810227401
:10332800EA1219C574FC12196E8A0C8B0D8C128D59
:1033380013EA2405F50AEB1238C37508007509006D
:10334800E50A2402F510E50B3400F5117402121990
:10335800B985820E85830F780E121BD8850A82855F
:103368000B83A3A3A3A3123E0F121BD8E50A2405BF
:10337800F50EE50B3400F50F780E121BD885108278
:103388008511831238C91236681207B874061219E3
:10339800848A0E8B0FAE0EAF0FE50C2402F50EE5F6
:1033A8000D3400F50F80408882898374FFF005088A
:1033B8001231C674FFF005089002E9E0F50C750DAE
:1033C80000780C121BD87CEA7D0285080C74022553
:1033D8000CFA74033400FB12104074021219849022
:1033E80002E9E02508F508EE4F60718E828F83A30D
:1033F800A3A3E0F9850E82850F8312366E1207A605
:10340800E9F509EE2404122DF1E97044E4F514F508
:10341800157814121BD87514E97515027814121B47
:10342800D87514EA7515027814121BD87408121985
:10343800B9121BEF7911EEFCEFFD850E82850F8323
:1034480012366E1208DE7408121984E9F50960272D
:10345800850C82850D8312354F1238DCE508700320
:10346800023535123559850E82850F8312366E1254
:103478000542790002354A850882AA82EA9002E963
:103488007009E02404900301F08022E0F890030121
:10349800E0F514E82404FCE43400FDEC6514700144
:1034A800ED70C0123315941212330D50B6850C828C
:1034B800850D83E0C0E074022A1231CDD0E0F0051A
:1034C80008850C82850D83A3E0C0E01231C6D0E0E8
:1034D80012356B85820C85830D780C121BD8740409
:1034E8001219B9121BEF8510828511831241361209
:1034F80007C474041219848A0C8B0DAE0CAF0D85A9
:10350800080C7402250CF874033400F9EE4F7003AC
:103518000233AF851882851983E088828983123542
:103528006BA3E0C0E01231C6D0E00233BDE50970FC
:103538000375090A850A82850B8312354F1238DC18
:10354800A90974040231BE124125851282851383AC
:1035580022900301E0F5F0E50884900300F07C0078
:103568007D0322F005088518828519832274EC12E0
:1035780019C574FE12196E8A088B098C0E8D0FEA14
:103588002405FEEB3400FF851882851983AC82ADD3
:10359800838E828F8312366E1207BE8A0A8B0BEED9
:1035A8002418122DF1EA450B700302363F1237B189
:1035B800503285188285198312366E1208D28A1005
:1035C8008B11EA4511606B7912AC0AAD0B85088244
:1035D80085098312366E8510828511831219C3E915
:1035E800F50A7058E4F50AF50B780A121BD88E8292
:1035F8008F83A3A3E0F50A780A121BD8EE240312DE
:1036080038C0780A121BD88E828F83123678120837
:10361800E47406121984E9F50A7021850C82850D77
:1036280083E0701F85088285098312366E1205486B
:103638008011750A0E8009750A018004E50A600385
:103648001238CF850C82850D83E0600479008002F2
:10365800A90A74021219847F0C021A977C007D0350
:10366800850A82850B8312367222E0FAA3E0FB22D8
:10367800E0FCA3E0FD850882850983123672227476
:10368800EE1219C574FE12196E8A088B098C0C8DFE
:103698000DEA2405FEEB3400FF750E0085188285BF
:1036A8001983AC82AD838E828F8312366E1207BE69
:1036B8008A0A8B0BEA450B700302379D1237B1500B
:1036C8003585188285198312366E1208D28A0E8BB8
:1036D8000FEA450F605E7912AC0AAD0B850882854A
:1036E800098312366E850E82850F831219C3E9F598
:1036F8000E60030237A08508828509831239B7AAAC
:103708000AFB1208C68A108B11A810A911E8497083
:103718001E7AFF7BFF1208C68A108B11A810A91108
:10372800E849606C88828983E50AF0A3E50BF075A7
:103738000A008007750E0E805F050A9002E6E0FA1F
:10374800E50AC39A504AE50A75F017A4FAABF0885F
:10375800828983A3A3E02AFAA3E03BFB8A828B83B6
:103768001238C9EC4D70D2750A17750B00780A1219
:103778001BD8EEFCEFFD1210407402121984EEFC07
:10378800EFFD85088285098312366E12054E801476
:10379800750E098003750E0112411D850C82850D79
:1037A800831238DCA90E023308E5082402F508E57F
:1037B800093400F5098A828B83A3A3A3E0A2E5223A
:1037C80074041219847F0A021A9774EC1219C58CB2
:1037D800108D11EA2405F50CEB122DF4750F00EA93
:1037E8002402F50AEB1238C3850A82F58312366E75
:1037F8001208C68A088B09EA450970030238B575AC
:103808000E008071850C82850D83E06401704F8EF7
:10381800828F83A3A3121BEF8E828F83A3A3A3A3FC
:10382800E0F5127513007812121BD8EE2405F51274
:10383800EF3400F5137812121BD81236681208E418
:103848007406121984E9F50F6014850C82850D83BE
:10385800E4F012411D8510828511831238DC7C1733
:103868007D007900EEFAEFFB1210588E828F83E408
:10387800F0A3F0050E9002E6E0F8E50EC398501E9E
:10388800E50E75F017A4F8A9F0850882850983A3C9
:10389800A31242AA1238C9EC4D600302380C8508FD
:1038A8008285098374FFF0A3F0E50F70061236686D
:1038B800120554A90F02365FF50AEF3400F50B2202
:1038C800A3E0FCA3E0FD228E828F83124125850EA2
:1038D80082850F83E8F0A3E9F022C082C0839002BA
:1038E800E2E06A7003A3E06B70067AE27B02800470
:1038F8007A007B00022BCFC082C08378008C828D37
:1039080083E06A7003A3E06B7010E875F003A4F815
:10391800A9F0EC28FAED39FB8015088C828D83A379
:10392800A3A3E06A7003A3E06B60DF7A007B000268
:103938002BCF74F61219C51208908A828B83E58200
:10394800458370067A007B008007A3A3A3A31236E1
:103958006E023FCE74F21219C5E9FE740E1219B93F
:103968001239B774101219B9123E2F8C828D83E068
:1039780064027036A312412BF50CA3E0F9A80C746D
:10398800026870037429697021750C02750D00783E
:103998000C121BD87808121BD8780A121BD8EEF91B
:1039A800120908740612198480027901024052E053
:1039B800F50AA3E0F50B2274E81219C574FB121975
:1039C8006EE9851882851983F08A168B17ECFEED4F
:1039D800FF751000741D1219B9124121741D1219B6
:1039E800B91238DC8E828F83A3A3A3E0A2E4502D02
:1039F800741D1219B912366E1208D28A828B83E5A9
:103A08008245837003023E00790AEEFCEFFDAA1698
:103A1800AB171219C3E9F5106003023E03741F12B5
:103A280019B9123E2F74211219B91239B774231219
:103A380019B9E0F50EA3E0F50F8E828F83E06402DA
:103A48006003023DAEA3124121850882850983A344
:103A5800858212858313EE2406122DF188828983CC
:103A6800E0FAA3E0F9EA2400F514E439F51578142E
:103A7800121C62010000280128A33A0700022868E6
:103A88003B0328D53A00299F3C0129CA3C02296BEF
:103A98003C03299F3C0429493DAE3DE50E450F6096
:103AA80003023DA9850C82850D83123E24FAE9FBA9
:103AB8008A828B83E0850A82850B83123E5A121B09
:103AC800D88A828B83A3E0FCA3E0023D33E50E4550
:103AD8000F6003023DA9850A82850B837401F012E9
:103AE8003E37850882850983F07C007D008E828FB1
:103AF80083A3A3A3A3E02401FAA3E03400FB1207E5
:103B0800BEEA4B60418A828B83E02402F8850A82F0
:103B1800850B83E028F0EA2404F8EB3400F9888266
:103B28008983E0851282851383123E6C123E5A12F5
:103B38001BD88A828B831238C8E5082403FAE50962
:103B48003400FB023D38850A82850B83E02404F0AB
:103B58007C047D007900AA12AB13121058023E03B0
:103B6800E50E450F6003023DA9123E37FEA3E0FFB4
:103B7800850A82850B837404F0EE850882850983A3
:103B8800F0EF851282851383F074031219B9AC82A1
:103B9800AD83EEFAEFFB1207BE8A0C8B0DEA450DDA
:103BA8007003023C4C8A828B83A3A3122A7A740185
:103BB8001219B985820E85830F780E121BD87405E9
:103BC8001219B9121BEF7CFF7DFF1207C47404128F
:103BD80019848B0FEA450F7033850C82850D83128B
:103BE8003E0F121BD8850C82850D83A3121BEF7C18
:103BF800027D007A5F7B821205F07404121984E951
:103C0800700A74011219B974FFF0A3F08E828F83C1
:103C1800E064027039750C02750D00780C121BD81F
:103C28008E828F831238C8E5082404FAE509340027
:103C3800FB1210407402121984850A82850B83E0F6
:103C48002402800974011219B9EEF0A3EFF074018F
:103C58001219B9123E20F074011219B9A3123E18B4
:103C6800023DA3E50E450F6003023DA9850C828540
:103C78000D831238C9AA16AB171208FC850A82856B
:103C88000B837402F0EA850882850983F085128225
:103C9800851383EB023DA6E50E450F6003023DA99F
:103CA800123E37F8A3E0F9850A82850B837402F087
:103CB800E8850882850983F0E985128285138302E5
:103CC8003DA6850C82850D8312366E12103AEAFCE9
:103CD8008C82A882C3950EE4950F405FE8650E704C
:103CE80002E50F70047C008022851882851983E024
:103CF800FAE50E2AFAE50F3400FBC3EA98EB9400C4
:103D08005003E08005E50ECCC39CFCEC850A828557
:103D18000B83F08C0A750B00780A121BD8850C826D
:103D2800850D83E0250EFCA3E0350FFDAA08AB093D
:103D38001210407402121984023E03751007023EE5
:103D480003E50E450F705A850C82850D83124121BB
:103D5800850A82850B837407122A86123E18122A56
:103D680086A3E0851282851383F0E82402FAE934F9
:103D780000FB8A828B83123E18123E47123E20A314
:103D8800123E50123E29F0E82405F8E93400F9887B
:103D9800828983123E29A3123E6CA3A3A3A3F080B9
:103DA8005A75100B8055741D1219B912366E120807
:103DB800908A828B83E5824583603D124121880C7D
:103DC800890DE8450D6031780E121BD8780A121B50
:103DD800D87808121BD874061219B9E0F9EEFCEF6E
:103DE800FDAA16AB17850C82850D831219C37406BC
:103DF800121984E9F510800375100EA910740512C4
:103E080019847F10021A97E0F50E750F00780E22BC
:103E1800E085088285098322123E7622124125E830
:103E280022123E76A3A322E0F508A3E0F509228535
:103E38000C82850D83E0F8A3E0F5838882E022A355
:103E4800A3F08A828B83A322F088828983A3A3A309
:103E5800A322F08A828B83123E6322E0F50A750B57
:103E680000780A22F088828983A3123E7622E085B0
:103E78000882850983A3A32274EE1219C574FE1261
:103E8800196E8A0A8B0BECFAEDFB74141219B9E05F
:103E9800F510A3E0F51174161219B9E0FE741812A2
:103EA80019B9E0F50EA3E0F50F851882851983ACE2
:103EB80082AD831207BE8A0C8B0DEA450D604985D9
:103EC800188285198312366E1208908A828B83E5D0
:103ED800824583602FA3A3123E2FE508450960247D
:103EE800780E121BD87810121BD8EEF9AC0CAD0D59
:103EF800AA0AAB0B8508828509831219C3740412B8
:103F080019848006790E8002790102330874F6124A
:103F180019C574FE12196E740C1219B9123E248553
:103F28001882851983F074011219B9E9F0E4F508CB
:103F3800F5097808121BD87508027808121BD8747E
:103F4800041219B98582088583097808121BD812CA
:103F580008E474061219847402121984806874F7CC
:103F68001219C5EAFEEBFF89087C197D031208FCCB
:103F7800EA5402600BA908EEFAEFFB1207B28002BE
:103F8800790102298274F61219C574FF6A700374E4
:103F9800FF6B70168C828D83123FD3E4F08C828D78
:103FA80083A3A3A3123FD3A380181208CC8A088B3B
:103FB80009A808A909E849600D8882898374FF1255
:103FC8002A84A3A3E4F07F02021A9774FFF0A3F0F7
:103FD8008C828D83A3A32274F61219C51208CC8A89
:103FE800828B83E58245836006A3A3E0FA80027A88
:103FF800007B0080D174F21219C58A088B09ECFE87
:10400800EDFF740E1219B9E0F50A1208CC8A0C8B70
:104018000DA80CA90DE8497026EEFCEFFD7AFF7B90
:10402800FF1208CC8A0C8B0DA80CA90DE849700466
:104038007911801688828983E508F0A3E509F0885C
:10404800828983A3A3E50AF079007F06021A977490
:10405800EE1219C5EAFEEBFF8C088D09890C741461
:104068001219B912412174161219B912366E750D4A
:1040780000E84960030241157402650C60030241BF
:104088001074121219B912412BFCA3E0F9EC2400A8
:10409800F50EE439F50FEAF4F8EBF4F9EC58F8E525
:1040A8000F59F9E849705CE5082406F8ED3400F981
:1040B800880A890B8882F5831241361208FC8A1017
:1040C8008B11E50E65107004E50F65116042780EDE
:1040D800121BD8850A82850B831241361209027495
:1040E80002121984E9F50D7027780E121BD885087D
:1040F80082850983A3A312413412091A7402121982
:1041080084800D750D808008750D0D8003750D0B6D
:10411800A90D0237CD8E828F8312412522E0F8A3A4
:10412800E0F92212412588828983E022A3A3E0FCDA
:10413800A3E0FDEEFAEFFB2274E81219C574E7124A
:10414800196E851882851983EAF0A3EBF08C168D19
:1041580017890E75080075090074311219B9E0F550
:1041680012A3E0F51374331219B9E0F514A3E0F5BE
:104178001574351219B9E0F50FE50975F003A4F8BF
:10418800A9F08518828519831242AAE0F47003A366
:10419800E0F4700302428DEE2402F50CEF1242A007
:1041A800E0700302428D85160A85170B780A121BE8
:1041B800D8AC14AD15AA12AB1312088474021219E4
:1041C800848A0A8B0BEA450B700302428DE4F510D2
:1041D800F5117810121BD874061219B9858210854A
:1041E80083117810121BD874091219B985821085A9
:1041F80083117810121BD8851282851383A3A3A379
:10420800A3121BEF7914AC0AAD0B8E828F83123682
:104218006E1208DE7408121984E97069850A8285AD
:104228000B83A3A3A3A312412174021219B9123854
:10423800DC850C82850D83E0A2E05018A90E74027B
:104248001219B9AC82AD838E828F8312366E120733
:10425800D6E94208850C82850D83E0A2E15026E567
:104268000FF50A780A121BDCA90E74031219B9ACEF
:1042780082AD838E828F8312366E1207D07401123C
:104288001984E942080509E509C39402500302416B
:1042980081A9087419023E073400F50D850C82F5D2
:1042A8008322E028FEA3E039FF8E828F832274F2F6
:1042B8001219C5EAFEEBFF890B7401650B600E74D9
:1042C80002650B706A7901120ADCE97062EEFAEF96
:1042D800FB1208C68A088B09EA45096047750A0077
:1042E800800B7C177D007900121058050A9002E6B1
:1042F800E0F8E50AC3985021E50A75F017A4F8A973
:10430800F0850882850983A3A3E028FAA3E039FB96
:104318008A828B83122BD670C9850882850983749B
:10432800FFF0A3F07C197D03EEFAEFFB1208F6020A
:10433800405274F21219C58A088B09ECFEEDFF741D
:104348000E1219B91239B7900E93E0F4603D7A094C
:104358007B00121064EA4B60328A828B8374B1F05E
:10436800A3E4123E49A3123E47A3E508F0A3E509DA
:10437800124396EEF0A3EF124396A3A3E50AF0A327
:10438800E50BF0900E93E0F9121070024052F08A9B
:10439800828B83A3A3A3A3A322C082C08390075FB9
:1043A800E0F8E94A6890075D603C7403F0741069AE
:1043B8007013EAC333FCE433FD74682CF582740788
:1043C8003DF5838015E9702074016A7005900982B3
:1043D800800874026A7011900984125CB0900762B8
:1043E800ECF0A3ED8001E4F08002A3F0D083D0824A
:1043F80002012274F01219C574FE12196E8A088B14
:10440800097E007F00EEF8EFF97A027B001218DBD4
:10441800E8C333F50EE933F50F7468250EF50C740F
:1044280007350FF50D850C82F583A385820A8583F0
:104438000B851882851983AC82AD837A02EE248DB0
:10444800F9121460E9601B74C3250EF58274813576
:104458000FF5831257D9850C82850D83E8F0A3E9FF
:10446800801A851882851983E0850A82850B83F076
:1044780074011219B9E0850C82850D83F0E5082EC8
:10448800F8E509125180EE2402FEEF3400FFC3EE76
:104498009408EF1253A8500302440D7402024A4DC7
:1044A80074F71219C574FE12196EEAFEEBFF85182F
:1044B80082851983AC82AD837A027995121460E9FA
:1044C8006049900770E0600C1460142481601B142C
:1044D8006023802C90098274BDF0A37404804090FE
:1044E80009827403F0A37405803590098274F1F091
:1044F800A37401802A900982740AF0A37402801FB1
:1045080090098274FFF0A3743F801485188285197E
:1045180083E0F974011219B9E0900982F0A3E91255
:1045280051767997121460E96040900770E0600C4A
:104538001460102481601714601E8026900984740A
:10454800C680059009847465F0A3740280309009D0
:10455800847402F0A314802690098474E9F0A3E41B
:10456800801C900984E4F0A380148518828519833F
:10457800E0F974011219B9E0900984F0A3E9F09008
:104588000983124BD8900982124630F0900985129F
:10459800463590098412464274020250BF74F712DD
:1045A80019C574FC12196EEAFEEBFF85188285198D
:1045B80083AC82AD837A047989121460E9600F9024
:1045C80007707401F0A304F0A3E4F0A38028851811
:1045D80082851983E0900771F074011219B9E0908F
:1045E8000770F074021219B9E0F974031219B9E0EE
:1045F800900772F0A3E9F0900770E0547F900FE9FC
:10460800700474148002740FF0A3E4F09007711220
:104618004BD8900770124630F090077312463590C9
:1046280007721246420250BD124AF0A322124639BE
:1046380022E08E828F83A3A3F022124AF62274E826
:104648001219C5EAFEEBFF8C0A8D0B74181219B902
:10465800781012183E8E168F178E088F09EE4F703D
:104668002F7A057B001210D68A088B09AE08AF098D
:104678008E828F83A3A3A3A3E4F08E828F83A3A348
:10468800E50AF0A3E50BF08E828F83E4F0A3804E59
:10469800EA2404F514EB3400F5159082077810121B
:1046A80017A4851482851583E0F50CE4F50DF50E45
:1046B800F50F7810790C12151D502A800488088986
:1046C800098508828509831255C470F17A057B0033
:1046D8001210D6124728851482851583E004F080CD
:1046E80036880889098508828509831255C470F1BE
:1046F8007A057B001210D61247288E828F83E0FE3F
:10470800A3E0FF851482851583124630A3A3A3F086
:10471800AA16AB171210DCEEFAEFFB7F10021A97FD
:104728008A0C8B0DA80CA90D88828983A3A3E50A9E
:10473800F0A3E50BF088828983E4F0A3F085088272
:10474800850983E8F0A3E9F022C082C083900FE7CF
:104758007484F0A37403F08A828B83F0900FE7E0EF
:104768008A828B830243F274F41219C574FC1219FD
:104778006E8908900776E06508700302483D851841
:1047880082851983AA82AB831211BA90097BE0F55E
:104798000A75F005A4F8A9F0748628FE740939FF93
:1047A800E0C394C950198E828F8312484912185C4D
:1047B8008E828F83A312186890097BE004806B783F
:1047C800007900E8FAE9FBEA75F005A4FAACF0759F
:1047D800F005EBA42CFB74862AFC74093BFD8C8243
:1047E8008D83A3A3A3A3A37405121881E824010849
:1047F800E93400F9E50A24FFFAE434FFFBC3E89A38
:10480800E99BA2D265D03340BAEE24FBF582EF349F
:10481800FFF58312484912185CEE24FCF582EF3448
:10482800FFF58312186890097BE4F0E50890077695
:10483800F079018002790074041219847F04021A45
:1048480097E50812484F22F085188285198322C0FF
:1048580082C083900760C3E09489A3E09413900713
:10486800604005E4F0A38003124A440243F374F75E
:104878001219C58908740F5508F874F05508600AAC
:1048880024F0603424F06067806F90097CE07069E0
:1048980090097FE0640260617401F07EF4FFE860D3
:1048A8001214600514600680507A0180027A027939
:1048B8000080371211D8804190097CE0703B900944
:1048C8007FE064026033E4F07EF47F01E8600B145B
:1048D800600C14600D14600E801F7A00800A7A0143
:1048E80080067A0280027A037910121154800A90A5
:1048F80009807401F07E007F00E50890075FF0EE04
:10490800FAEFFB0250C274F01219C5EAFEEBFF90F1
:10491800820B121BEB90077B1257D97583077582A0
:1049280066E0C398FCA3E099FD90077712581D1222
:10493800116C7404121984900777EAF0A3EBF07CE9
:10494800007D009007771257D98007E02CFCA3E080
:104958003DFD88828983E5822402F8E5833400F9E5
:10496800E8FAE9FB1255C48A828B8370DEE02CF5E5
:1049780008A3E03DF509900764780C12183E9007EB
:1049880079780C121508600C9007647C797D07749F
:1049980004121881900764780C12183E90077D78ED
:1049A8000C1215087003024A379007811257FAEE65
:1049B80098EF99507A900781E4F0A3F07A04FB12FB
:1049C80010D68A0A8B0BAE0AAF0B124AD490076630
:1049D8001257D975830775827FE0C398F8A3E099C9
:1049E800F99007831255BB900764E0640170229028
:1049F800077DE06401701AC390078412580D5007B0
:104A0800C3E498F8E499F9C3E8941FE91253A8504D
:104A18000BEEFCEFFD7A0479051214DE9007647C36
:104A28007D7D077404121881EEFAEFFB1210DC90FA
:104A38000781124A44F0AA08AB09800CE02401F06F
:104A4800A3E03400221219847F08021A9774F7121F
:104A580019C5ECFEEDFFEAC39EFAEB9FFB121208A4
:104A6800E9F50890076AE0C39EFAA3E09FFB1212DB
:104A780008E965087004790280027901900785E0E9
:104A880069601A900786E0C394034009E4F0E9904E
:104A98000785F08008E004F0900785E0F90250C22D
:104AA80074F61219C57A047B001210D68A088B098D
:104AB800AE08AF09124AD4EEFCEFFD7A047905126C
:104AC80014DEEEFAEFFB1210DC0253269007641294
:104AD8004AF0F0900765124AF0A3F0900767124673
:104AE80039900766124AF622E08E828F8322E08E82
:104AF800828F83A3A3A3F02274F61219C57A087BC8
:104B0800001210D68A088B09AE08AF0912115AEEA6
:104B1800FCEFFD7A0879011214DEEEFAEFFB1210B1
:104B2800DC7A057B001210D68A088B09AE08AF091B
:104B38007C737D0D7A01799B121460E96005900DF4
:104B480073E4F0900D73124BD8EEFCEFFD7A057903
:104B5800061214DEEEFAEFFB1210DC7A047B001268
:104B680010D68A088B09AE08AF09121166EEFCEF61
:104B7800FD7A0479001214DEEEFAEFFB1210DC7AEB
:104B8800047B001210D68A088B09AE08AF091211EF
:104B980060EEFCEFFD7A0479031214DEEEFAEFFB07
:104BA8001210DC7A027B001210D68A088B09AE0834
:104BB800AF09121172EEFCEFFD7A0279021214DECF
:104BC800EEFAEFFB1210DC75C90043C90802532640
:104BD800124AF0F02274EA1219C58910750A007594
:104BE8000B007C007D0079008911E51060351460A8
:104BF800142481601B14704075120A751302751411
:104C0800E989158017751203751305751465801CDD
:104C18007512F175130175140275150190078774E3
:104C28000280117512BD7513047514C675150290AE
:104C380007877404F0A3E4F0900981E0F508890976
:104C48007403780812195B85080E85090F74E72527
:104C58000EF50C740E350FF50D74D7250EF50E7480
:104C68000E350FF50FEAC333F508EB33F509C3EA40
:104C780094011253A75003024DB0900762E0F51457
:104C8800A3E0F515E512C39514F514E5139515F58C
:104C980015E5144515703009900762E0C39512F5C3
:104CA8000AA3E09513F50BE50A2401F50AE50B3490
:104CB80000124F70E5129401E5131253A84006AC98
:104CC80012AD138002891112501BEA9512EB95134D
:104CD800A2D265D0335003024F57E50C2402F512D7
:104CE800E50D3400F513E50E2402F582E50F3400D6
:104CF800F583E9A2E04049E5107003024EA614606E
:104D08001B24816038146003024F5B124F971218FE
:104D1800DB1258121218DB124F648017EAF8EBF90D
:104D280012581D1218DB880A890BE508250AF8E5D0
:104D380009350BF9851282851383024ECA024E8407
:104D4800124FAF7003024F1414602324816056146D
:104D58006003024F5B124F7F1218DB1258121218B1
:104D6800DB880A890BEC250AFAED350B8017ECF87D
:104D7800EDF912581D1218DB880E890FE50A250E69
:104D8800FAE50B350FFB851282851383125C8C853F
:104D98000CF0A4F8ACF0850CF0E9A42CF9EA28F89A
:104DA800EB39024F4C024EE41253A64003024F5710
:104DB800900762E0C39514F512A3E09515F513E585
:104DC800124513701B09E51224FFF50AE51334FF99
:104DD800124F701253A85006AC12AD1380028911FD
:104DE80012501BE49512F512E49513F513C3E5125E
:104DF8009AE5139BA2D265D0335003024F57E50EB4
:104E08002406F582E50F3400F583E50E2404F50E3B
:104E1800E50F3400F50FE9A2E05003024ED3E50C8C
:104E28002406F8E50D3400F9880A890BE50C2404FA
:104E3800F8E50D3400F9880C890DE5106060146000
:104E48001B24816037146003024F5B124F971218BE
:104E5800DB1258121218DB124F648017EAF8EBF9CC
:104E680012581D1218DB880C890DE508250CF8E589
:104E780009350DF9850A82850B838046124F9712F2
:104E880018DBE8FCE9FDECC333FCED33FD850E824D
:104E9800850F8312581D1218DB124F64801DEAF823
:104EA800EBF9850E82850F8312581D1218DB880ACC
:104EB800890BE508250AF8E509350BF9850C828583
:104EC8000D83E028FEA3E039024F54124FAF603C37
:104ED80014603F248160051470798006850E8285F0
:104EE8000F83E0FEA3E0FF124F7F1218DBE8FCE916
:104EF800FDECC333FCED33FDEEFAEFFB1218DB8853
:104F08000A890BEC250AF8ED350B8023850E82857E
:104F18000F83E0FEA3E0FFECF8EDF9EEFAEFFB12E9
:104F280018DB880E890FE50A250EF8E50B350FF911
:104F3800EE850CF0A4FEAAF0850CF0EFA42AFFE899
:104F48002EF8E93FF9E82508FEE93509FF80047ED7
:104F5800007F00EEFAEFFB7F0E021A978808890996
:104F6800EC2508F8ED350922F50BEAC3950AF51288
:104F7800EB950BF513C322EC75F07FA4FCA8F07534
:104F8800F07FEDA428FDECF8EDF97A327B0022EAF7
:104F980075F07FA4FAA8F075F07FEBA428FBEAF877
:104FA800EBF97A327B0022E511A2E0B3E433F50C89
:104FB800E50A9AF8E50B9BF9851108E88508F0A43D
:104FC800F885F0118508F0E9A42511F9EAC3950AD6
:104FD800FAEB950BFBEA850CF0A4FA85F008850C32
:104FE800F0EBA42508FBE82AF508E93BF509E508F4
:104FF80075F003A4F508A8F075F003E509A428F5F1
:10500800098C0A8D0BE50AC333F50AE50B33F50B5A
:10501800E51022900787E0F512A3E0F513C3227488
:10502800F71219C574F612196EE9FEEAC333FAEBE2
:1050380033FB74682AF874073BF988828983ECF09B
:10504800A3ED12517188828983E0C0E074011219BE
:10505800B9D0E0125176EEF912145A7A007B00EAC0
:10506800F8EBF9E8C333F8E933F974021219B9E532
:105078008228FCE58339FD746828F8740739F988B3
:10508800828983A3E08C828D83F088828983E08C77
:10509800828D83A312532B94041253A740C1740228
:1050A8001219B9AC82AD837A0879011214DE121193
:1050B800E4740A800274041219847F01021A977436
:1050C800F01219C574F612196E8A088B09750E004C
:1050D800750F00E50EC333FEE50F33FF74682EF538
:1050E8000C74073FF50D850C82F583A385820A852C
:1050F800830BE5082EF582E5093FF5831255C46058
:105108002A850C82850D83E8F0A3E9125171850C7C
:1051180082850D83E0C0E074011219B9D0E0125104
:1051280076E50EC333248DF912145A74021219B994
:10513800E5822EF8E583125180E50E2401F50EE58F
:105148000F3400F50FC3E50E9404E50F1253A84081
:105158008274021219B9AC82AD837A0879011214EB
:10516800DE1211E4740A024A4D12484FF022124826
:105178004FAC82AD837A02223FF9850A82850B8380
:10518800E088828983F0850C82850D83E088828996
:1051980083A3F02274EC1219C58A0C7510007511DE
:1051A800007512007513007A00850C088B098C0AAB
:1051B8008D0BEA33333354F8780812175990820F5D
:1051C80078081218057403C39A33333354F87808EF
:1051D8001217727810790812182B0AEAC39404403F
:1051E800C8AA10AB11AC12AD137F0C021A9774F752
:1051F8001219C574FC12196EEAFEEBFF1210BE12EA
:1052080010C41211B485188285198312186885187C
:1052180082851983EEFCEFFDECFAEDFB740412189D
:10522800810250BD74F41219C57A057B001210D69C
:105238008A088B09AE08AF09740C1219B9124BD839
:1052480078017900C3E498FAE499FB740C1219B94F
:10525800E5822AF582E5833BF583A3A3A3A3A3E014
:10526800C0E012539DD0E012543C40D8EEFCEFFD54
:105278007A0579061214DEEEFAEFFB1210DC740CD4
:105288001219B9E06018740D1219B9780812183E8D
:10529800E5084509450A450B700479018002790043
:1052A80002484474F61219C5900980E060707A10BB
:1052B8007B001210D68A088B09AE08AF09900789BF
:1052C800E075F00FA4F8A9F0748628F8740939F984
:1052D800124BD8900789E004F07A007B00E82AF5A1
:1052E80082E93BF583E0C0E0EE2AF582EF3BF583E7
:1052F800A3D0E012532B940F1253A740E0EEFCEF1B
:10530800FD7A1079081214DEEEFAEFFB1210DC9029
:105318000789E0C394434006E4F0900980F07F02D7
:10532800021A97F0EA24010AEB3400FBC3EA22745C
:10533800F61219C574FC12196E851882851983AA8C
:1053480082AB831211BA7A047B001210D68A088BBA
:1053580009AE08AF0978007900851882851983E5B8
:105368008228F582E58339F583E0C0E012539DD0A9
:10537800E012544E9404E91253A840DDEEFCEFFD10
:105388007A0479071214DEEEFAEFFB1210DC7404CB
:105398001219848089EE28F582EF39F58322C3EB50
:1053A8001254462274F01219C574FC12196EEAFEE2
:1053B800EBFF8E828F83E0900D73F01210BE7801A0
:1053C800790012539DE0C0E0851882851983E58233
:1053D80028FAE58339FBEA24FFF582EB34FFF583ED
:1053E800D0E012543C40DB85188285198312185C82
:1053F8001211B48A088B098C0A8D0B1210C48A0CFE
:105408008B0D8C0E8D0F7808790C121791900D78F2
:10541800780812184D85188285198312185C900D2A
:10542800741218687C737D0D7A01799B12145A7472
:1054380004024A4D12544E9405E91254462294002F
:10544800A2D265D03322F0E8240108E93400F9C378
:10545800E822C082C08390097FE4F090075DF09055
:10546800075FF0900977F00243F2C082C0838A8216
:105478008B83A3E0F8748168600D74016860087418
:1054880080686003E8700BEAFCEBFD7A0479891206
:10549800145A12119C0243F4C082C08374FE12197C
:1054A8006E900FE77484F0A37403125171740112A3
:1054B80019B9748412517679021214DE7402121921
:1054C800840243F474F71219C574F812196EEAFCD1
:1054D800EBFD8C828D83E0C0E074011219B9D0E035
:1054E800F08C828D83A3E0851882851983F0EC24E3
:1054F80002FEED3400FF8E828F83E0C0E074031259
:1055080019B9D0E0F08C828D83A3A3A3E0C0E07426
:10551800021219B9D0E012484B1255C490098260A2
:105528000C1255BB7A02799512145A800C1257D96D
:105538008518828519831255BB74021219B9125540
:10554800C490098460101255BBEEFCEFFD7A027915
:105558009712145A800B1257D974021219B912559E
:10556800BB74011219B9E0C0E074041219B9D0E093
:1055780012484BE0C0E074051219B9D0E0F074038A
:105588001219B9E0C0E074061219B9D0E0F074023B
:105598001219B9E0C0E074071219B9D0E0F0740428
:1055A8001219B9AC82AD837A0479031214DE740837
:1055B8000250BFE8F0A3E9F0229007661257DDE831
:1055C800492274F01219C5900764E064017067906D
:1055D80007661257FF90078A1257EDE0687003A319
:1055E800E0696046E8496046900774E060409009C9
:1055F80079E0C398F508A3E099F5093395E0F50A31
:10560800F50B780812155CE50BC2E7F50B908213D1
:10561800780C12183E7808790C121606501090076C
:105628008A1257FF900774E48026E84970231257BE
:10563800D690078A8016E064066005900982800982
:1056480090097F7402F090078A1257EDE8F0A3E9F9
:10565800F090075DE0703A90075EE064037022C343
:1056680090097812580D50030257B29009771258D2
:1056780008400302578775800053FD0F90075E802E
:1056880009E075800053FD0F6004E40257D2025709
:10569800D3F890075EE068700302574890075DE012
:1056A80014600914601714602802573E900979C0E5
:1056B800821257E3D082125C91507B802F9009842C
:1056C80012581D9009791257FAEA98EB9950678099
:1056D80035900982C0829007621257D9758309D024
:1056E80082125C91500F9009821257D9900762E894
:1056F800F0A3E9801890098412581D900762C3E04E
:105708009AA3E09B5008900762EAF0A3EBF0900799
:1057180070E0F9900762C08290097912581D75836C
:1057280007D082E0C39AFAA3E09BFB1211A290096A
:1057380077EAF0A3EBF090075DE090075E0257D29E
:105748009009771255C4701C75800053FD0F90079F
:105758005DE4F090077504F090075FE4F090097F2E
:105768007402806690075DE014600514602A805B0F
:10577800900979C0821257E3D082125C91503F9011
:10578800097CE0700643FDF0758040900977E024BD
:10579800FFF0A3E034FF8032900984C0821257D60C
:1057A800758309D082125C91501490097CE07006D0
:1057B80043FDF0758080900977124A44800C75800B
:1057C8000053FD0F900977E4F0A3F0024A509009C6
:1057D800791257DD22E0F8A3E0F9229009821257E6
:1057E800DD758309221257F122E0F8A3E0F9900948
:1057F80079221257DDC3221257F1E8F0A3E9F0220B
:10580800C3E09401A3E012544622E8FCE9FDECC38E
:1058180033FCED33FDE0FAA3E0FB22C082C083E550
:1058280090540F90078CF090097FE0640170030298
:105838005A6D90078CE0640F90097F7020E4F09017
:10584800075DF090078D740FF090075EE0640370B9
:105858000990097CE07003025A6D025A1E7402F026
:1058680090097CE06003025A6D90078DE0F890077C
:105878008CE0687003025A1990075EE064037003B5
:10588800025A0190078CE024FD700302598124FE1E
:10589800606024FE603824FE70030259AD24FE7057
:1058A8000302594624FE60091470030259F0025A93
:1058B80010900764E0640670051255C1702D9009B8
:1058C8007D1255C4702590075D7401025A0F900728
:1058D80064E0640670051255C1701090097D125578
:1058E800C4700890075D7402025A0F90075DE402C5
:1058F8005A0F900764E06406601E900768E0F47031
:1059080003A3E0F47003025A1090075D7403F0904B
:1059180007681257D90259C81255C16003025A10B4
:10592800125CAD798D7A007B001211A890097CE099
:105938006003025A1043FDF07580C0025A109007A8
:1059480064E06406600D90076A125A70706A74FF0A
:105958006980651255C16003025A10125CAD798FD7
:105968007A017B001211A890097CE06003025A10AA
:1059780043FDF0758020025A10900764E0640660C9
:105988000590076C802A1255C1707D125CAD799123
:105998007A027B001211A890097CE0706B43FDF03D
:1059A8007580A08063900764E06406601C90076EB1
:1059B800125A70700374FF69604E90075D7403F0AB
:1059C800900762E8F0A3E9803E1255C1703A125C74
:1059D800AD79937A037B001211A890097CE07028B6
:1059E80043FDF0758060802090075DE4F043FDF092
:1059F80075801090077404800E90075DE4F090079E
:105A08005EF0900977F0A3F090078CE090078D8006
:105A180053E0640E700875800053FD0F8047E06402
:105A28000D7016C390097E12580D4039900775E025
:105A3800702190075D7401802BE06407702790093E
:105A48007D125808501F900775E0700790075D7425
:105A580002801190075DE4F090097D1255C470052D
:105A6800900775E4F00243F41257DD74FF6822745E
:105A7800F41219C5E9FE74046E6003025B9F900777
:105A8800601255C47003025B9F900760C3E0941EC8
:105A9800A3E09400500B7C047D007A8E7B071213E0
:105AA800D690078EE0900796F090078FE0F9900760
:105AB80097F0900790E0FA900798F0900791E0FB34
:105AC800900799F0908217780812183E90079278FC
:105AD80008121508707290821F780812183E9007F5
:105AE800967808121508604C900796780812183EA8
:105AF800740165087004740265096014900796784B
:105B08000812183E74016508700474016509702450
:105B180090823B780812183E90079678081215086C
