:020000040000FA
:0600000002010A02244780
:03002B000228BFE9
:030033000228A1FF
:03003B000228E0B8
:030043000228553B
:030053000224BACA
:03006B0002287BED
:100083000222B3E5C754F84401F5C7790122000001
:100093000080FB120086B900030200F4E4792178A2
:1000A30008B800028004F709D8FCE479297802B87B
:1000B30000028004F709D8FCE49002817851790C9E
:1000C3008002F0A3D8FCD9FA900DD1AA82AB839019
:1000D300013A78EB79048015E493A3AC82AD838A6B
:1000E300828B83F0A3AA82AB838C828D83D8E9D9D8
:1000F300E775827E7583C8740312011C758291753E
:100103008300740012011C75D00075813F7518813E
:10011300751902759F00020096C09FF59FE473D086
:100123009F22D083D082C09FE493C0E0740193C028
:10013300E0740293F59F22FF0000B400002800281A
:1001430000283075A000A000A000A000000800084F
:10015300E001F0001000100010001000100010006B
:1001630050005000500010001000D00700000000A5
:1001730000000F00010005003075070010000100AA
:1001830081FF00000000FF220740072807FF02024B
:100193000208025000A0000000E80302658201008B
:1001A300005482025D82010000280E025782010082
:1001B30000B302025D82010000290E026782010082
:1001C30000C902025D820100002A0E02838201003F
:1001D30000CB02025D820100002B0E027B8208002D
:1001E30000CC02025D820100002C0E027782010026
:1001F300002D0EFF0100FF200265820100004E82E8
:10020300025D82010000910E028582000000000061
:100213000259820300001903F20CF20CF20CF20CE7
:10022300F20CF20CF20CF20CF20CF20CF20CF20CDB
:10023300F20C740F8C0F6E0FFFFF0200E2FF02003F
:10024300E7FF0200F3FF0200F3FFFAFF07000300DA
:10025300F9FFFBFF07000400F7FF07000300090095
:1002630003000A000E0005000D0005000E00020247
:1002730002020202020202010D00000010010265E7
:10028300820100004B82025D82010000080F026BB5
:10029300820100009907025D82010000090F026DCF
:1002A300820100006D81025D820100000A0F026F6E
:1002B300820100005181025D820100000B0F027177
:1002C30082010000DF80025D820100000C0F0273D7
:1002D30082010000CD80025D820100000D0F0275D6
:1002E300820100009780025D820100000E0F0279F7
:1002F30082010000BB80025D820100000F0F0281BA
:10030300820100005F81025D82010000100F026123
:1003130082010000110F01E803053F100AFF0001ED
:100323003075030201060000000000000000000019
:1003330000000000000000000000000000000000BA
:100343000000FFFF0600800CE80384030F0013097D
:100353004F666669636577656C6C20233030303097
:100363003030051208000800020A000201060302E9
:10037300F1FF4F666669636577656C6C20233030E7
:10038300303164310000004F666669636577656CE0
:100393006C2023303030316431C6140000D2140A8B
:1003A300486172647761726520496E666F726D6130
:1003B30074696F6E000A50726573657420486569CD
:1003C3006768740002506F7374757265204A7564B0
:1003D30067656D656E74000A416374696F6E2052C0
:1003E300616E67650008436F6E74726F6C20436FB4
:1003F3006D6D616E6400125065736B20537461748C
:100403007573000A4C6F636B2053746174757300CA
:1004130002506F77657275702054696D65737461EE
:100423006D700000104865616C74682044617461EC
:10043300000265820100005182025D8201000039E1
:1004430010028982030000950D025B820100003ACD
:1004530010025D820100004F10028B82030000999D
:100463000D025B820100005010025D820100005EFC
:1004730010028D82010000A10D025B820100005F6A
:1004830010025D820100007110028F82030000A33D
:100493000D025B820100007210025D820100007F89
:1004A30010029182020000A70D025B82010000800E
:1004B30010025D820100009010029382010000A8E7
:1004C3000D025982030000AC0D025B820100009112
:1004D30010025D820100009D10029582030000B2AC
:1004E3000D025B820100009E10025D82010000AAE2
:1004F30010029782010000B70D025B82010000AB7E
:1005030010025D82010000BE10027F82000000BB6A
:100513000D025982030000CB0D025B82010000BF74
:100523001012012588B7031201259FB70312012575
:10053300D0B7031201250BB80312012535B80312F6
:1005430001255FB80312012576B8031201258DB882
:1005530003120125A4B803120125CDB80312012506
:10056300E0B803120125F6B80312012509B90312F5
:10057300012530B903120125EAC302120125EEC495
:100583000212012526C50212012549C502120125C1
:1005930054C50212012577C50212012586C602122F
:1005A30001255BC702120125D6C7021201255EC8C9
:1005B3000212012599C802120125D0C80212012591
:1005C3005EC90212012537CA0212012597CA021217
:1005D3000125A2CA0212012521CB0212012524CB37
:1005E3000212012527CB02120125B6CB02120125E7
:1005F300B9CB02120125E9CB0212012513CC021259
:10060300012501CD02120125B3CD02120125A68ACF
:1006130003120125CE8A03120125FC8A0312012548
:10062300338B03120125918B03120125DC8B0312FB
:100633000125278C03120125678C03120125AD8C3C
:1006430003120125DB8C03120125988D031201256A
:10065300A28D03120125AF8D03120125E28D031232
:100663000125AE8E03120125BA8E03120125D28E07
:1006730003120125DC8E031201257AC3031201251F
:1006830088C303120125A0C303120125B8C30312B3
:100693000125A6E00112012552E101120125CDE158
:1006A30001120125EEE2011201252AE301120125BF
:1006B300D3E301120125BAE4011201251EE601125A
:1006C300012575E601120125F6E601120125E6E78B
:1006D3000112012533E801120125B9E801120125B0
:1006E300EBE801120125FFEA0112012541EB01129A
:1006F30001255FEB01120125E2EB01120125B6ECA6
:10070300011201257EED01120125E0EE0212012501
:10071300B3EF021201255CF002120125AFF00212C1
:1007230001255FF102120125EBF102120125D7F237
:100733000212012506F30212012519F40212012502
:1007430061F40212012536F50212012572F5021237
:1007530001258EF502120125DBC6031201253FA0F8
:100763000312012555A0031201257BA003120125C5
:1007730097A103120125A1A103120125D6A20312F9
:100783000125CEA3031201257F8503120125AF8620
:1007930003120125E286031201252C87031201258A
:1007A300F3880312012554C101120125BEC10112B0
:1007B30001251DC3011201252DC3011201255AC3B1
:1007C30001120125B1C3011201255AC401120125E9
:1007D30061C5011201252BC6011201258BC7011228
:1007E3000125CEC70112012573C801120125C0C816
:1007F30001120125E6C801120125F4CA01120125DF
:10080300F9CA01120125FECC011201254BCD0112BB
:100813000125BECD01120125F1CD0112012593CE93
:10082300011201253CCF0112012574CF01120125CC
:1008330077CF01120125BFCF01120125FFCF01128E
:10084300012556D00112012518AA0312012530AA49
:100853000312012578AA031201258EAA031201258A
:10086300D5AA03120125E9AB0312012576AC0312C5
:100873000125C1AC03120125542900120125602969
:10088300001201259B2900120125E02900120125F0
:10089300A02A00120125262B001201258B2B001202
:1008A3000125B72B00120125F02B001201252E2E56
:1008B30000120125123000120125F8310012012522
:1008C3003B33001201258935001201259B360012A6
:1008D3000125E63700120125F638001201251339E8
:1008E300001201254E39001201257039001201252D
:1008F300D33900120125943E00120125293F00122D
:1009030001257A3F00120125A13F00120125F33F83
:10091300001201251140001201256B400012012530
:10092300544100120125CA42001201254E43001210
:100933000125638F031201256D8F03120125B08FEB
:1009430003120125CB8F031201255B9003120125AE
:10095300839003120125C09003120125F79003121F
:100963000125209103120125959103120125AA91D6
:1009730003120125BF9103120125F09103120125F2
:100983000492031201252992031201256392031293
:1009930001258F92031201251B9303120125469310
:1009A300031201258F9303120125B9930312012525
:1009B300E493031201255EBF0312012517B7021248
:1009C300012545B70212012593B80212012573B917
:1009D3000212012592B9021201250FBA0212012552
:1009E30052BA02120125A8BB0212012569BC0212E8
:1009F3000125F0BE0212012591BF0212012587C015
:100A03000212012584C102120125DEC20212012550
:100A130069C30212012503BE031201256CBE031232
:100A23000125C0BE03120125E7BE0312012518BF2D
:100A33000312012584FB02120125F1FB0212012599
:100A430038FC0212012550FD021201254CFE021250
:100A530001252FFF02120125BBD602120125FDD667
:100A630002120125CFD702120125A8D802120125AF
:100A7300A2D90212012584DA02120125EDDA02124B
:100A83000125A3DB0212012517DC0212012583DCF9
:100A930002120125ACDC0212012526DD021201251A
:100AA300BFDD0212012524DE0212012539DE021206
:100AB30001257FDE0212012598DE02120125FDDEEB
:100AC3000212012500DF021201251FA703120125CF
:100AD30047A70312012585A70312012543A8031283
:100AE3000125AAA803120125C6A803120125EEA811
:100AF300031201251EA9031201252DA903120125A5
:100B0300AAA903120125D0A90312012543D1011279
:100B1300012521D30112012553D5011201258FD5BA
:100B230001120125BCD501120125A6D6011201250A
:100B3300F1D6011201253CD7011201254ED701122E
:100B430001258ED701120125C3D70112012511D822
:100B53000112012540D80112012563D80112012594
:100B6300B0D80112012535D9011201254FDB01123D
:100B730001258EDD01120125CFDD0112012571DF73
:100B830001120125B2DF0112012525E00112012521
:100B93007BE00112012502AA0212012500AB021219
:100BA300012599B102120125BAB30212012585B5B7
:100BB30002120125EDB602120125C75C00120125C0
:100BC300765D00120125BC5D00120125FC5E00125A
:100BD30001259260001201250C6100120125276195
:100BE30000120125A26100120125FC6200120125F9
:100BF3005C6400120125626500120125C3660012C0
:100C03000125DC66001201253A67001201252868D8
:100C1300001201255B6800120125CB680012012533
:100C23004569001201258F6900120125596A0012D6
:100C330001252E6B001201250D6C00120125986C05
:100C430000120125066D001201257A6D001201259F
:100C5300A56D00120125646E00120125C96F0012F3
:100C63000125E66F00120125057000120125F670BB
:100C7300001201251B710012012545710012012587
:100C8300C071001201251A7200120125837300122C
:100C930001253174001201257274001201252E9C66
:100CA300021201257C9C02120125889C0212012557
:100CB300669D02120125979D02120125C89D02120D
:100CC3000125489E02120125809E02120125D29E13
:100CD300021201250F9F021201252CA102120125E8
:100CE30052A3021201253DA50212012527A70212D4
:100CF3000125FC7F0012012541AD0112012571ADD3
:100D0300011201254AB401120125CFB501120125B3
:100D1300CCBB01120125B4BC01120125F1BC0112A7
:100D2300012514BD0112012545BD011201254EBD4A
:100D33000112012558BD0112012546BE01120125EC
:100D43003CBF01120125329801120125319C011289
:100D53000125379C0112012572A3011201258BA8DD
:100D630001120125D8A303120125D2A403120125E0
:100D730046A50312012584A503120125F8A5031234
:100D8300012571A6031201257AA60312012586A661
:100D9300031201259BA603120125D9A603120125DF
:100DA300EFA6031201250C940312012519940312D3
:100DB3000125339403120125729403120125B09483
:100DC300031201251595031201252A950312012506
:100DD30035950312012542950312012559950312F6
:100DE30001256795031201257295031201257E954E
:100DF300031201258D9503120125989503120125F0
:100E0300BB95031201256296031201257296031204
:100E130001258C9603120125A99603120125C59677
:100E230003120125EA9603120125F5960312012503
:100E33000A97031201251E97031201257F970312B8
:100E430001258597031201258B970312012591979D
:100E530003120125A99703120125DC97031201252B
:100E630005800212012589800212012538810212B0
:100E73000125978202120125B88402120125A48557
:100E830002120125D98502120125FB8502120125D3
:100E9300AA8602120125A28802120125CB8802121A
:100EA30001255D89021201258F89021201259C8982
:100EB30002120125F38902120125198A0212012562
:100EC300868C02120125898D02120125E18D021201
:100ED300012597EF01120125A1F00112012588F1E7
:100EE3000112012592F101120125B4F1011201252C
:100EF300C0F10112012559F30112012588F30112F2
:100F03000125A4F401120125FDF40112012563F664
:100F13000112012542F7011201259EF70112012555
:100F23000BF80112012546F80112012585F801127B
:100F330001253EFB0112012558FB01120125E4FBAB
:100F430001120125F2FB011201254BFC01120125BF
:100F530059FC01120125CCFC0112012530FD0112BF
:100F630001257AFD01120125A27400120125C47422
:100F730000120125EA7600120125FF7900120125EE
:100F8300177B00120125CA7B00120125AC7C0012DD
:100F9300012542B90312012567B903120125D9B905
:100FA3000312012566E7021201256FE702120125EC
:100FB30078E7021201254FE80212012500EA021226
:100FC300012536EA0212012570EA02120125A6EA7A
:100FD30002120125E0EA0212012514EB0212012597
:100FE30040EB0212012589EB02120125C3EB021229
:100FF30001250CEC0212012564EC0212012599EC87
:1010030002120125F4EC021201252EED0212012534
:101013007FED02120125B5ED02120125EFED02125B
:1010230001251DEE0212012540EE0212012507C51E
:101033000312012533C5031201258EC503120125B1
:1010430098C503120125A8C50312012503F6021250
:1010530001250DF6021201254BF60212012594F625
:1010630002120125CEF60212012528F702120125EC
:1010730049F70212012552F7021201259FF70212C6
:101083000125C8F702120125D2F7021201253EF805
:1010930002120125D0F8021201251AF902120125C4
:1010A30050F902120125DCF9021201251DFA021280
:1010B300012554FA0212012566FA0212012585FA66
:1010C300021201258EFA0212012556FB0212012596
:1010D30077C0031201256EC10312012503FE01121D
:1010E300012539FE011201256FFE01120125BAFF08
:1010F300011201255FC70312012575C703120125DC
:101103007FC703120125C9C703120125599803128A
:1011130001256E9803120125219903120125619976
:10112300031201257A9903120125B59903120125AA
:10113300029A03120125349A03120125769A0312A7
:101143000125819C0312012583C203120125ACC230
:1011530003120125DBC203120125F3C20312012589
:1011630035C303120125B543001201250F440012B4
:101173000125BC4400120125B945001201255A4638
:10118300001201256547001201258347001201253E
:1011930069480012012588480012012520490012E0
:1011A3000125684A00120125BB4A00120125134B91
:1011B30000120125F04B001201253B5000120125BE
:1011C300DB5000120125B051001201250A52001212
:1011D3000125405200120125BF52001201254B5335
:1011E30000120125C053001201256E54001201257F
:1011F300865400120125B45400120125E054001254
:101203000125EB55001201253158001201252D5AF5
:1012130000120125615B00120125795C0012012592
:10122300875C00120125EBAC0312012510AD0312FC
:1012330001253AAD0312012528C8031201259C821A
:1012430001120125018501120125A2860112012542
:10125300568701120125E987011201256E880112C3
:101263000125938801120125E98B011201256F8C59
:1012730001120125A28D01120125DC8D0112012528
:10128300118E01120125D18F011201252E90011219
:101293000125779001120125E29001120125539156
:1012A300011201258591011201259D91011201254C
:1012B300E69201120125F692011201251194011201
:1012C30001253394011201256994011201251D960C
:1012D30001120125AA9601120125E99601120125A1
:1012E3000D980112012551C40312012562C4031292
:1012F3000125D1C80312012510C90312012538C9DC
:1013030003120125B2C503120125C2C5031201252B
:10131300DDC50312012545C6031201257FC1031252
:10132300012504C2031201256AC20312012589BCE7
:1013330003120125B2BC031201251DBD03120125B1
:101343006EBD03120125C9BD03120125B7AF0312F8
:101353000125CCAF03120125E8B0031201255CB1CE
:101363000312012576B1031201258DB10312012564
:10137300A0B103120125BAB103120125D1B10312A1
:101383000125F7B10312012548B2031201258E9CF2
:1013930003120125A59C031201251F9D031201259C
:1013A300039E03120125DA9F031201257DB2031266
:1013B30001250DB3031201257DB3031201250EB4DC
:1013C3000312012517B40312012595B40312012555
:1013D300CDB4031201252DB50312012540B5031227
:1013E30001254FC603120125BEC603120125D0C62F
:1013F30003120125E7BA0312012539BB03120125A4
:10140300C3BB031201252ABC0312012543B50312F2
:1014130001256DB5031201253BB60312012516B74D
:101423000312012524DF02120125EBDF021201253D
:1014330022E0021201254CE002120125ACE0021267
:10144300012502E10212012567E102120125FFE1F4
:10145300021201250EE302120125A5E40212012561
:1014630032E50212012599E502120125B0E50212C7
:101473000125CAE60212012508E7021201252F8E73
:1014830002120125B091021201253893021201259F
:101493008F9302120125AE93021201252C9402129E
:1014A3000125C29502120125A79602120125B59ABC
:1014B300021201258B9B0212012524CE0212012563
:1014C300C3D10212012596D202120125CAD30212F8
:1014D3000125EAD40212012520D602120125A7D63E
:1014E30002120125008003120125508003120125F9
:1014F3006D8003120125E281031201255882031234
:101503000125468303120125468503120125D07F59
:10151300001201251AC903E066701008A3E0667083
:101523000A08A3E066700408A3E06622C3E79608EE
:1015330009E7960809E7960809E79622C3E09608A3
:10154300A3E09608A3E09608A3E09622C008C3E0B0
:1015530096F50808A3E096420808A3E09642080817
:10156300A3E09645087001D3D00822080808E630A6
:10157300E711121757121586080808C64480C618C3
:10158300181822181818E9799EC608CAC608CBC6C7
:1015930008CCC6C370207996CACBCC7019798ECB90
:1015A300CC70137986CC700EF9802ACA33CACB3338
:1015B300CBCC33CC331930E7F2CCCBCA33501470D5
:1015C30004EA30E00DE4CA3ACACB3BCBCC3CCC5066
:1015D3000209C3E913C6CC182313C6CB18C6CA180D
:1015E300C6F922E6C33318461846184622E7C33322
:1015F30019471947194722E6084608C31346083313
:101603006002E633F422E7094709C313470933604D
:1016130002E733F4221215FA601C1216096017123E
:1016230015E670071215F07001D322C0D01215F021
:101633007006D0D0B322C32233D0D0501430E0F69A
:10164300C3E7960809E7960809E7960809E796B3FA
:101653002220E0D5E6970809E6970809E6970809E6
:10166300E697B322080808EAC0E0EBC0E086F0E79B
:10167300A4FA180986F0E7A42AFA180986F0E7A461
:101683002AFA180986F0E7A42AFA1986F0E7A4FBD8
:10169300E5F02AFA190886F0E7A42BFBE5F03AFAFD
:1016A300190886F0E7A42BFBE5F03AFA1818098627
:1016B300F0E7A4C5F02BFBE43AFA1908E7C5F0C636
:1016C300A426F6E5F03BFBE43AFA1886F0E7A4F625
:1016D300E5F00826F6E43B08F6E43A08F6D0E0FB2A
:1016E300D0E0FA22E4CFC0E0E4CEC0E0E4CDC0E035
:1016F300E4CCC0E075F020C3E633F608E633F60821
:10170300E633F608E633F6181818EC33FCED33FD30
:10171300EE33FEEF33FFC3EC9709ED9709EE97091C
:10172300EF97191919400FFFEC97FC09ED97FD0985
:10173300EE97FE191906D5F0BEECF709EDF709EEA1
:10174300F709EFF7191919D0E0FCD0E0FDD0E0FE5E
:10175300D0E0FF22181818E4C396F608E496F608BA
:10176300E496F608E496F6226016080808C6C31342
:10177300C618C613C618C613C618C613C6D5E0EADC
:10178300227009080808226016181818C6C333C641
:1017930008C633C608C633C608C633C6D5E0EA2230
:1017A300E627F60809E637F60809E637F60809E6F4
:1017B30037F622E026F608A3E036F608A3E036F66D
:1017C30008A3E036F622E026F008A3E036F008A3EB
:1017D300E036F008A3E036F022C3E697F60809E600
:1017E30097F60809E697F60809E697F622C3E09606
:1017F300F008A3E096F008A3E096F008A3E096F0C3
:1018030022E657F60809E657F60809E657F60809E7
:10181300E657F622E056F608A3E056F608A3E0568C
:10182300F608A3E056F622E056F008A3E056F008C7
:10183300A3E056F008A3E056F022E647F60809E6CF
:1018430047F60809E647F60809E647F622E0F608F0
:10185300A3E0F608A3E0F608A3E0F622E6F008A367
:10186300E6F008A3E6F008A3E6F022E0FAA3E0FB23
:10187300A3E0FCA3E0FD22EAF0A3EBF0A3ECF0A3CA
:10188300EDF022CAC0E0E6F0A308DAFAD0E0FA22CB
:10189300CAC0E0E0A3C582CCC582C583CDC583F0B1
:1018A300A3C582CCC582C583CDC583DAE6D0E0CAA1
:1018B30022C3E498F8E499F91218F58026C3E49A50
:1018C300FAE49BFBE920E7E91218F5E498F8E499B8
:1018D300F922C3E498F8E499F91218F5E498F8E4C6
:1018E30099F9C3E49AFAE49BFB22EB20E7CFE920C2
:1018F300E7E0B90010BB0008E88AF084F8AAF022F8
:10190300E4FBC8FA22EB70227B10C833C8C933C981
:10191300335007C39AC3DBF280069A50012ADBEAED
:10192300C833F4C8C933F4C9FA2275F008E4C833DC
:10193300C8C933C933C99AC99B5004C92AC93BD5FD
:10194300F0ECFBC833F4C8E4C9FA22600D08C6A260
:10195300E713C618C613C6D5E0F322600C08C6C346
:1019630013C618C613C6D5E0F422700422600D18FE
:10197300C6C333C608C633C6D5E0F41822251810EB
:10198300AF08F518400215198008F518400215191B
:10199300D2AF22C0D0251810AF08F5185002051990
:1019A3008008F51850020519D2AFD0D0222518F5BA
:1019B3008210AF08F518400215198008F518400287
:1019C3001519D2AF851983222518F582E43519F547
:1019D3008322E4732518C582C0E0E51934FFC5836B
:1019E300C0E0E518C3958224F810AF0885831985F4
:1019F30082188008858319858218D2AFCEF0A3E5BB
:101A030020F0A37808E608F0A3DEFAEFF0A3E5815F
:101A130024FAF8E608F0A3E608F0A3E608F0A30822
:101A230008E608F0A3E608F0A315811581D0E0FECF
:101A3300D0E0F8158115811581E8C0E0EEC0E02201
:101A43002518C582C0E0E51934FFC583C0E0E51859
:101A5300C3958224F910AF088583198582188008FD
:101A6300858319858218D2AFCEF0A3E520F0A37841
:101A730008E608F0A3DEFAEFF0A3E58124FBF8E61D
:101A830008F0A3E608F0A30808E608F0A3E608F0C8
:101A9300A315811581D0E0FED0E0F815811581E80A
:101AA300C0E0EEC0E022851983851882E0A3FEE042
:101AB300A3F5207808E0A3F608DFFAE0A3FFE0A38C
:101AC300C0E0E0A3C0E0E0A3C0E0E0A3C0E0E0A387
:101AD300C0E010AF088582188583198008858218B5
:101AE300858319D2AFD083D08202012285198385E1
:101AF3001882E0A3FEE0A3F5207808E0A3F608DF50
:101B0300FAE0A3FFE0A3C0E0E0A3C0E0E0A3C0E0ED
:101B1300E0A3C0E010AF088582188583198008858B
:101B23008218858319D2AFD083D08222C0D02518E2
:101B3300C582C0E0E51934FFC583C0E0E518C3954D
:101B43008224F310AF088583198582188008858362
:101B530019858218D2AFC8F0A3E9F0A3EAF0A3EB8A
:101B6300F0A37908E709F0A3D8FAECF0A3EDF0A30A
:101B7300EEF0A3EFF0A3D0E0F0A3D0E0F0A3D0E029
:101B8300F0A3E520F0A3E5F0F0A3228519838518DF
:101B930082E0C0E0A3E0F9A3E0FAA3E0FBA37808A6
:101BA300E0F608A3DFFAE0FCA3E0FDA3E0FEA3E078
:101BB300FFA3E0C0E0A3E0C0E0A3E0F5D0A3E0F51D
:101BC30020A3E0A3F5F010AF088583198582188060
:101BD30008858319858218D2AFD082D083D0E0F8EC
:101BE300D0E03274048006740280027401C0E0F411
:101BF300041219B0D0E0121886227404800474020F
:101C03008000CCC0E0EDC0E0E518C39CCCAD19501A
:101C1300011D10AF068C188D1980068C188D19D2F2
:101C2300AF121893D0E0FDD0E0FC22D083D082E93C
:101C3300C0E0E493A3C386F0C5F095F0F908E493FC
:101C4300A386F0C5F095F0700BE493A3C399400508
:101C5300E9048002A3E475F002A42582F582E5F08D
:101C63003583F583D0E0F9E493A3C0E0E493C0E0C7
:101C730022D083D082ECC0E0EDC0E0E493A3FCE487
:101C830093A3FDED4C600D121CC0EC24FFFCED345E
:101C9300FFFD80EFE493A3FCE493A3FDED4C600D03
:101CA300121CFFEC24FFFCED34FFFD80EFD0E0FDC0
:101CB300D0E0FCE493A3C0E0E493C0E022C0E0C31F
:101CC300E49396087401939618400FE493667008A2
:101CD30008740193661870007019A3A3C3E4939664
:101CE300087401939618A3A3400DD0E0D0E0D0E090
:101CF300021CB0A3A3A3A3A3A3D0E022C0E0C0F01F
:101D030088F0E4936670080874019366187000A85D
:101D1300F0A3A3700BD0F0D0E0D0E0D0E0021CB071
:071D2300A3A3D0F0D0E022E1
:101D2C0074F5121A43EAFEEBFFEE2434F8EF34009C
:101D3C00F988088909EE2435F582EF3400F583E043
:101D4C00F8EE2437F582EF3400F583E0F50AEC85E4
:101D5C000AF0A4FCAAF0850AF0EDA42AFDE82CF800
:101D6C00E43DF97A257B001218F5EA85088285098D
:101D7C0083F0F8740758F97401B900028004C33376
:101D8C00D9FCFAE8131313541FF8EE28F8EF3400BB
:101D9C00F9E8245DF582E93400F583E05A6008EE39
:101DAC002434F582EF802CEE2434F582EF3400F5E8
:101DBC0083E0C0E0EE2436F582EF3400F583E0F5E5
:101DCC00F0D0E084A8F0EE28F8EF3400F9E82438DD
:101DDC00F582E93400F583E0F97F04021AEF74F51B
:101DEC00121A43EAFEEBFFEE2434F582EF3400F5D1
:101DFC0083E0C0E0EE2435F582EF3400F583D0E0CB
:101E0C00F08E828F83A3A3A3A3A3A3A3C082C083BA
:101E1C008E828F83A3A3A3A3A3E0F8A3E0F9D083BE
:101E2C00D082E0C398F508A3E099F509EE247FF57C
:101E3C0082EF3400F583E064017069EE2480F58252
:101E4C00EF3400F583E0F8A3E0F98E828F83A3A32F
:101E5C00A3A3A3A3A3E0FCA3E0FD8E828F83A3A383
:101E6C00A3A3A3E0FAA3E0FBC3EA9CEB9D5010C331
:101E7C00EC98ED99402EC3EA98EB995027800EC34D
:101E8C00EA98EB994007C3EC98ED9940177CDC7D00
:101E9C0004EEFAEFFB120C50EE247FF582EF3400C7
:101EAC00F583E4F0EE2434F8EF3400F9E8FCE9FDB6
:101EBC00EE2435F582EF3400F583E0F8EE2437F5A7
:101ECC0082EF3400F583E0F50AE508850AF0A4F505
:101EDC0008AAF0850AF0E509A42AF509E82508F80E
:101EEC00E43509F97A257B001218F5EA8C828D838A
:101EFC00F0F8740758F97401B900028004C333D99F
:101F0C00FCFAE8131313541FF8EE28F8EF3400F919
:101F1C00E8245DF582E93400F583E05A6008EE248C
:101F2C0034F582EF802CEE2434F582EF3400F58307
:101F3C00E0C0E0EE2436F582EF3400F583E0F5F0F6
:101F4C00D0E084A8F0EE28F8EF3400F9E82438F556
:101F5C0082E93400F583E0F9122841021DE5C082C4
:101F6C00C083851882851983E0F8A3E0F9C3EA9C45
:101F7C00EB9D5010C3EC98ED99401BC3EA98EB997C
:101F8C005014800EC3EA98EB994007C3EC98ED9976
:101F9C004004790180027900D083D08222EAC39C6C
:101FAC00FAEB9DFB2274EF121A439003A2E0640833
:101FBC006005E06407702A9061C8E060249003D04B
:101FCC00E0F4601DE0F875F003A4C8AAF02AF974D7
:101FDC00D228FE740339FF8E828F83A3A3A3E070F3
:101FEC00030220E1906060E0C0E0EE2468F582EF2F
:101FFC003400F583D0E0F0750C45750D05750800BF
:10200C00750900E5D914F50AE5D95403F50E6017E6
:10201C007403650E605CE50A6010EE2467F582EFD0
:10202C003400F583E070030220C6900540E06401A3
:10203C00602AEE2482F582EF3400F583E0600478A8
:10204C000480027800850A08E508C398FA95E0FB3D
:10205C00120B1E8A088B09EA45097005120E428084
:10206C0074EE2482F582EF3400F583E070048A0C60
:10207C008B0DE50A6012850C82850D83F50BE5D975
:10208C00F0A3150BE50B70F6EE2482F582EF34000D
:10209C00F583E0604474FC250AF50A780C121BEAFF
:1020AC00AC0AA90EEEFAEFFB120CEC7402121996A4
:1020BC00E97026AA08AB091213FA793D8E828F8338
:1020CC00A3A3A3A3E0FA7B001209F2EEFAEFFB1232
:1020DC000C68120CFE790080747403650E605685D2
:1020EC000A107511007810121BEAAC0CAD0DAA0881
:1020FC00AB09120CC87402121996EE2468F582EF23
:10210C003400F583E064807004747F8001E0F50C8A
:10211C00780C121BEEE50EF50C780C121BEEA90ACE
:10212C00AC08AD099003D0E0FA7B001209B674023A
:10213C0012199680139003A2E06408600BAC0CADEE
:10214C000DEEFAEFFB120D58120E4E79017F0A02BA
:10215C001AEF74F5121A4374FC121980EAFEEBFFA5
:10216C008908A2AFE433F509C2AF806AEE2463F8A4
:10217C00EF3400F97A007B00A2AFE433F50AC2AF6A
:10218C0088828983E0FCA3E0FDEC4D603A8882896B
:10219C0083E0FAA3E0FB8A828B83E0FCA3E0FD885A
:1021AC00828983ECF0A3EDF08A828B83E4F0A3F0B8
:1021BC0088828983E0FCA3E0FDEC4D700A8882895B
:1021CC0083A3A3E4F0A3F0E50AA2E092AF1213FA02
:1021DC009004E3E004F0EE2463F582EF3400F58321
:1021EC00E0F8A3E0F9E849603DEE2463F582EF34B2
:1021FC0000F583E02402FAA3E03400FBEA2402F5A4
:10220C000AEB3400F50B780A121BEA8A828B83E006
:10221C00FCA3E0F9EEFAEFFB120C8C740212199687
:10222C00E970030221789004E3E060639004E4E039
:10223C00F89004E3E0C398500C7402650870509059
:10224C0004E5E0604A8E828F83A3A3A3A3E08518E4
:10225C0082851983F0A3E4F09004E3E0F874021291
:10226C0019CBE8F0A3E4F09004E3E0F89004E2E08A
:10227C0028F074021219CBAC82AD838518828519B3
:10228C0083AA82AB8379011209C29004E3E4F0E5DE
:10229C0009A2E092AF7404121996021DE500000029
:1022AC008521878522C622C0E0C0D0E8C0E0E9C005
:1022BC00E0EAC0E0EBC0E0ECC0E0EDC0E0EEC0E076
:1022CC00C008C009C00AC00BC082C083C0F0A2AF56
:1022DC00E433FEC2AF759B00906182E0A2E0501225
:1022EC00E591A2E0500C7591FE740165217003120A
:1022FC001FB1E0A2E55051E591A2E5504B7591DF7D
:10230C009003A2E064076005E06408702374016523
:10231C0021703579019003D0E0FA75F003A4CAA8B6
:10232C00F028FB74D22AFA74033BFB12215E80184E
:10233C00E0640D70139003C4E004F064287002E4B0
:10234C00F07A00E0F9120E54906182E0A2E64003AC
:10235C000223FAE591A2E640030223FA7591BF909D
:10236C0003A2E064057008120D82120D8E80031218
:10237C000D88752100120DE2E99003A3F07900128B
:10238C000DD6120BC67A017B009003A1E0F9121056
:10239C00A6907803E064427055900544E014F07008
:1023AC004DC2AF1223B200782AD0E0F618D0E0F676
:1023BC00E59F540770057509FF800375097FC4C03C
:1023CC00E07829E6F50808E65509F509740B780854
:1023DC0012195ED0E02508F8906270E0A2E740F890
:1023EC00E8C333906272F0906270E0D2E0F09061DA
:1023FC0081E0A2E35009E5E9A2E3500375E9F7A3F4
:10240C00E0A2E75009E591A2E7500375917FEEA297
:10241C00E092AFD0F0D083D082D00BD00AD009D0CC
:10242C0008D0E0FED0E0FDD0E0FCD0E0FBD0E0FA3C
:10243C00D0E0F9D0E0F8D0D0D0E032C0E0C0D0C0CD
:10244C0082C083906183E0A2E05009E5BFA2E05016
:10245C000375BFFEE0A2E15009E5BFA2E150037590
:10246C00BFFDE0A2E25009E5BFA2E2500375BFFB3D
:10247C00E0A2E35009E5BFA2E3500375BFF7E0A269
:10248C00E45009E5BFA2E4500375BFEFE0A2E550AC
:10249C0009E5BFA2E5500375BFDFE0A2E65009E5F0
:1024AC00BFA2E6500375BFBFD083D0828088C0E046
:1024BC00C0D0E8C0E0E9C0E0EAC0E0EBC0E0ECC0AE
:1024CC00E0EDC0E0C0F0E5A7A2E6500FE5A1A2E662
:1024DC00500953A7BF75A1BF12251FE5A7A2E55050
:1024EC000CE5A1A2E5500653A7DF75A1DFE5A7A275
:1024FC00E15009E5A1A2E1500375A1FDE5A7A2E217
:10250C00500CE5A1A2E2500653A7FB75A1FBD0F03D
:10251C0002243074F8121A437521019003A2E0646E
:10252C00067015120D1C8A828B83A3A3A3A3A3A3ED
:10253C00E0FAA3E0FB120D70A2AFE433FED2AF9031
:10254C0003A8E0640170187A207B009003A1E0F9E5
:10255C001211307A207B009003A1E0F91210AC909C
:10256C006182E0D2E6F0900541E0602185C62280D0
:10257C00169003A7E064017008E5C654F84405F50D
:10258C00C653BEFC1222AC7401652160E4EEA2E0DD
:10259C0092AF7F01021AEF008E238F24858228854B
:1025AC008327851882851983E0CEA3E0CF85288206
:1025BC00852783EBC9EAC8EDCBECCA75F010C3E8EC
:1025CC0033C8E933C9EA33CAEB33CBC3EA9EF526E9
:1025DC00EB9FF525B35004AB25AA26EC33CCED3399
:1025EC00CDD5F0DAAE23AF242274ED121A438A084B
:1025FC008B098C0A8D0B74131219CB780C12185092
:10260C007808790C12152F7510017511C875120008
:10261C0075130050127808790C1217DC78107908B1
:10262C0012152F50168010780C79081217DC7810C0
:10263C00790C12152F40047901800279007F0C026D
:10264C001AEF74ED121A438A088B098C0A8D0B74DD
:10265C00131219CB780C121850780C790812152F0C
:10266C0040117808790C1217DCAA08AB09AC0AAD3A
:10267C000B8022751000751100751200751301780E
:10268C0010790C1217DC781079081217A3AA10AB6A
:10269C0011AC12AD1380A68A828B837508FF750965
:1026AC00FF750AFF750B00780812182A7F04021AAE
:1026BC00EF74F5121A438C828D8378081218508AA5
:1026CC00828B8378081217F0EA2404F8EB3400F9B3
:1026DC008C828D83A3A3A3A3E0FCA3E0FD88828955
:1026EC0083C3E09CF0A3E09DF088828983C3E094CF
:1026FC0020A3E0944E40268A828B837508FF7509CF
:10270C00FF750AFF750BFF78081217C98A828B8335
:10271C00A3A3A3A3E02420F0A3E0344EF00226A34D
:10272C0074F5121A43E9FE9004F7E0FAA3E0FBEE0D
:10273C00C333F8E433F9743228F582748139F583A4
:10274C00E02AF508A3E03BF5097808121BEA7A4069
:10275C007B427C0F7D001225A474021219968A0804
:10276C008B098C0A8D0B7410780812176BAA08ABA6
:10277C00097F04021AEF74F1121A438A0C8B0D8C28
:10278C000E8D0F740F1219CBE0FAA3E0FB7411122B
:10279C0019CBE0F508A3E0F5097808121BEAEA2446
:1027AC0001F508EB3400F509E4F50AF50B780C7922
:1027BC0008121667750871750902780C79081216DB
:1027CC0067AA0CAB0DAC0EAD0F1225A47402121936
:1027DC00968B09EA450960047A0180027A00EC2A9A
:1027EC00FCED3400FD74131219CBE0F8A3E0F9E80A
:1027FC00FEE9FFECF8EDF97A717B021218F5880806
:10280C0089098E828F83780812185FECF8EDF97ABB
:10281C00717B021218F58A088B0974057808121955
:10282C006D8E828F83A3A3A3A3E508F0A3E509F023
:10283C007F08021AEFC082C083E9906000F0D08359
:10284C00D08222C2AF02000022C0E074F2121B2F11
:10285C00A2AFE433FED2AFC2C0E5D1A2E45006531E
:10286C00D1EF1213DCEEA2E092AF7F01021B8EC0FF
:10287C00E074F2121B2FA2AFE433FED2AFE589A2B3
:10288C00E15003121346758900C2C5EEA2E092AF67
:10289C007F01021B8EC0E074F2121B2FA2AFE43337
:1028AC00FED2AFE58BA2E05003121346758B00C22B
:1028BC00E880D8C0E0C0D0E8C0E0E9C0E0E5A8D22C
:1028CC00AFC2C7A2E7A2E792AFD0E0F9D0E0F8D050
:1028DC00D0D0E032C0E0C0D0E8C0E0E9C0E0C00831
:1028EC00C009C082C083A2AFE433F9D2AF9008C153
:1028FC00E0F8A3E0687008539AFBA374018026C229
:10290C00E99008C1E0F50874012508F074BD2508AC
:10291C00F58274083400F583E0F5C19008C1E0C37A
:10292C0094044002E4F0E9A2E092AFD083D082D0CC
:0E293C0009D008D0E0F9D0E0F8D0D0D0E032D9
:10294C00FFFFFFFFFFFFFFFFC082C083E9900E90E7
:10295C00F0022BE374F71219D7E99002E1F07C191D
:10296C007D037AFF7BFF1209089002E274FFF0A34B
:10297C00F0A3E4F0A3F079051208909002E1E0F9DD
:10298C001207B27A267B09120AD07F01021AA974A7
:10299C00F41219D78A088B09EB548060309002E14D
:1029AC00E0F912108E8A0A8B0BAE0AAF0BEE4F6059
:1029BC00138E828F83E064B070031208A8EEFAEFD6
:1029CC00FB12107CAA08E5096480FB80047A007B6A
:1029DC0000022BB274F21219D774FC121980EAFEA1
:1029EC00EBFFEE4F603874021219CBEEF0A3EF122E
:1029FC002E17ECF0A3ED122E17AA82AB831207ACA4
:102A0C00E9F508707374121219CB1239CBE50A452B
:102A1C000B60658E828F83122A8EEE4F70057508BF
:102A2C000280557A067B001210E88A0C8B0DA80CDC
:102A3C00A90DE8497005750813803D88828983E4E7
:102A4C00122A98A3A3EEF0A3EF123E64E50AF0A3BA
:102A5C00E50BF09002E7122B209002E76017E0FCE8
:102A6C00A3E08003EAFCEBFD8C828D83122B20709B
:102A7C00F38C828D831238F0A90874041219960213
:102A8C004066A3A3A3A3E0FEA3E0FF22F0A3F0887B
:102A9C008289832274F21219D7890AE975F017A476
:102AAC00FEAFF09002E6E4F09002E4122B20600AF4
:102ABC001210EE9002E4E4F0A3F0EEFAEFFB121029
:102ACC00E88A088B09EA4509602FEEFCEFFD7900D6
:102ADC0012106A9002E4E508F0A3E509F07B00808F
:102AEC0008122B0AE4F0A3F00BEBC3950A40F2E5B5
:102AFC000A9002E6F0790080027913024066EB75C9
:102B0C00F017A4F8A9F09002E4E028FAA3E0398ABF
:102B1C0082F58322123686EA4B2274F41219D77589
:102B2C000800750900740C1219CB123E38FEE9FF2F
:102B3C00800CE5082401F508E5093400F509C3E526
:102B4C00089CE5099D503285080A85090B740378A9
:102B5C000A12196DEA250AF8EB350BF9888289837C
:102B6C00A3A3A3A3A3A31239CBEE650A7003EF654D
:102B7C000B70BFE8FAE9FB80047A007B00802774B5
:102B8C00F41219D77900EAA2E0501B7508D2750926
:102B9C00817808121BEA7C047D007A927B0E120865
:102BAC008A74021219967F04021AA9C082C08390FB
:102BBC0002E7122BEA601C88828983A3A3E06A7067
:102BCC0003A3E06B8882898370E8A3A3A3A31236C6
:102BDC008280047A007B00D083D0820201221241D1
:102BEC0039E8492274EE1219D774FC121980EAFEE6
:102BFC00EBFF851882851983E4F0A3F0EE24021212
:102C0C0038D4EE2405122E05EE2404F50EEF123105
:102C1C00EAE024FE603924FC604624FE605224FE67
:102C2C00605E24FE7003022D0A24FE7003022D82C6
:102C3C0024FE7003022D9124FE7003022DA024FCAF
:102C4C007003022DAF24FE7003022DBE022DFB90EB
:102C5C0003007417F0A3E4122E1F12052A022DFB99
:102C6C00851882851983AC82AD831208AE022DCBF8
:102C7C00851882851983AC82AD831208B4022DCBE2
:102C8C00850C08850D0974021219CBAC82AD8385B5
:102C9C0008828509831236821207D08A0C8B0DAC00
:102CAC000CAD0DEC4D6042E4F50CF50D780C121BDF
:102CBC00EA750C00750D03780C121BEA750C017586
:102CCC000D03780C121BEA74081219CB121C017933
:102CDC001612367C1208F07408121996E9F50C706D
:102CEC000B123678120542800F750C01850882850F
:102CFC000983122E0D1238F0850C08022DCE7402A9
:102D0C001219CBAC82AD83850C82850D8312368271
:102D1C001207D08A108B11AC10AD11EC4D604385AD
:102D2C000C82850D83A3A3121C0175100075110371
:102D3C007810121BEA7510017511037810121BEA3A
:102D4C0074081219CB121C01791612367C1208F079
:102D5C007408121996E9F509700B123678120548A9
:102D6C00800F750901850C82850D83122E0D12388A
:102D7C00F0850908804C851882851983AC82AD8357
:102D8C001208BA803A851882851983AC82AD8312F9
:102D9C0008C0802B851882851983AC82AD831208FC
:102DAC00C6801C851882851983AC82AD831208CC31
:102DBC00800D851882851983AC82AD831208D2E907
:102DCC00F508E50860298E828F83A3E06414601FE8
:102DDC00850E82850F83E0900300122E1712413569
:102DEC009003011238F0E508A3122E1F120524EEF1
:102DFC00FAEFFB12084E0237DCF50CEF3400F50D40
:102E0C002212413985188285198322F08518828512
:102E1C00198322F07C007D03850A82850B83123690
:102E2C00862274EE1219D774FC1219808A0A8B0B45
:102E3C008C0E8D0FEA2405F508EB3400F5097C1592
:102E4C007D0079007A007B0312106AE5082402F5F4
:102E5C000CE509122E088518828519838582108548
:102E6C0083117810121BEA850882850983A3A3A31A
:102E7C00A3123332121BEAE5082405F510E50934D8
:102E8C0000F5117810121BEA850C82850D83123621
:102E9C008C1207CA74061219968A108B11AE10AFD9
:102EAC0011E50A2402F50AE50B1238D7EE4F700330
:102EBC00022FF4801774021219CB12368288828981
:102ECC0083EAF0A3EBF0900300E004F0900300E041
:102EDC00C394054003022FF4E4F510F51178101299
:102EEC001BEA7510E97511027810121BEA7510EACD
:102EFC007511027810121BEA74061219CB121C0100
:102F0C007910EEFCEFFD12367C1208F074081219E1
:102F1C0096E9705E850882850983A3A3A3A3A3A366
:102F2C00A3E0F89002E9E0687048123332121BEA11
:102F3C007CEA7D02E5082408FAE5093400FB12104E
:102F4C00647402121996E960298E828F83A3A3A35D
:102F5C00A3123682900300E0F51074027810121957
:102F6C006D74012510F58274033511F583EAF0A315
:102F7C00EBF074021219CB85821085831178101234
:102F8C001BEA74021219CB121C01850C82850D836D
:102F9C0012414A1207D674041219968A108B11AE7C
:102FAC0010AF11900300E0F5107511007402781049
:102FBC0012196D74002510F874033511F988828983
:102FCC0083A3122B207003022EB8E82403F8E934F3
:102FDC0000F9EE4F6003022EC18882898374FFF0E2
:102FEC00A3F0900300E004F0900300E0600A1236B6
:102FFC00781205367900800B850882850983123892
:10300C00E7790A0237DC74EA1219D774FE121980B8
:10301C008C128D13EA2405F50CEB1242B4122A9291
:10302C00750800750900EA2402F510EB3400F5115F
:10303C0085188285198385820A85830B780A121B71
:10304C00EA850C82850D83A3A3A3A31231F4121B72
:10305C00EAE50C2405F50AE50D1238D7780A121B9F
:10306C00EA850C82850D831241481207CA74061238
:10307C0019968A0A8B0BEA450B70030231A5EA24D8
:10308C0004F50EEB1231EA122A928A828B83A3A3E7
:10309C00A3E0F98510828511831236821207B8E9F4
:1030AC00F50960030231A5E4F514F5157814121B2B
:1030BC00EA7514E97515027814121BEA7514EA7591
:1030CC0015027814121BEA74061219CB121C017922
:1030DC0013AC0AAD0B85108285118312368212084F
:1030EC00F07408121996E9F50960030231A59002F3
:1030FC00E9E0F8E5087009E02402900301F080177C
:10310C00900301E0FCE82402FAE43400FBEA6C7062
:10311C0001EB60030231A9850882AA82123329943B
:10312C00141233215073850E82850F83E0C0E07436
:10313C00022A1231E1D0E0F00508850E82850F835A
:10314C00A3E0C0E085080A7402250A1231E1D0E040
:10315C00F005089002E91231F4121BEA7CEA7D02B8
:10316C0085080A7402250AFA74033400FB12105203
:10317C0074021219969002E9E02508F50874FF6EA6
:10318C00700374FF6F6012EE24010EEF3400FFE544
:10319C0008C39414500302303CE508601312356DDB
:1031AC0085108285118312368212053C79008014B9
:1031BC00E509700375090A851282851383EEF0A365
:1031CC00EFF0A90974021219967F0E021AA985084C
:1031DC000C7402250CF58274033400F58322340040
:1031EC00F50F850E82F58322123E772274EE1219AA
:1031FC00D774FE1219808C0E8D0FEA2405F50CEB9A
:10320C00122E08750B00900300E4F0F50AEA240274
:10321C00F508EB3400F5098049900300E0FA9002C0
:10322C00E9E0F81233299417123321400D90030072
:10323C00E0F87416C3989002E9F0123332121BEACC
:10324C007CEA7D0274012AFA74033400FB121052DA
:10325C0074021219969002E9E0F8900300E028F04D
:10326C00050AE50C2416F582E50D1231E5E0F8E5CA
:10327C000AC398400302330A900300E0C39416502B
:10328C007DE50AC333F8E433F9E50C28FEE50D3986
:10329C00FF851882851983AC82AD838E828F831251
:1032AC0036821207D08A108B11AC10AD11EC4D7018
:1032BC0005750B018043E4F510F5117810121BEA2B
:1032CC007510E97511027810121BEA7510EA751168
:1032DC00027810121BEA74061219CB121C01791613
:1032EC008508828509831236821208F07408121937
:1032FC0096E9F50B70030232251238E380107C003E
:10330C007D0385088285098312368212054EA90B2E
:10331C0074020237DEE99400C365D03322EA28F840
:10332C00E43400F9E822E0F51075110078102274ED
:10333C00EA1219D774FC1219808A0C8B0D8C128D21
:10334C0013EA2405F50AEB1238D775080075090045
:10335C00E50A2402F510E50B3400F511740212197C
:10336C00CB85820E85830F780E121BEA850A828527
:10337C000B83A3A3A3A3123E23121BEAE50A240585
:10338C00F50EE50B3400F50F780E121BEA85108252
:10339C008511831238DD12367C1207CA7406121995
:1033AC00968A0E8B0FAE0EAF0FE50C2402F50EE5D0
:1033BC000D3400F50F80408882898374FFF0050876
:1033CC001231DA74FFF005089002E9E0F50C750D86
:1033DC0000780C121BEA7CEA7D0285080C7402252D
:1033EC000CFA74033400FB121052740212199690EA
:1033FC0002E9E02508F508EE4F60718E828F83A3F9
:10340C00A3A3E0F9850E82850F831236821207B8CA
:10341C00E9F509EE2404122E05E97044E4F514F5DF
:10342C00157814121BEA7514E97515027814121B21
:10343C00EA7514EA7515027814121BEA740812194D
:10344C00CB121C017911EEFCEFFD850E82850F83EA
:10345C001236821208F07408121996E9F5096027E1
:10346C00850C82850D831235631238F0E5087003E4
:10347C0002354912356D850E82850F831236821204
:10348C000554790002355E850882AA82EA9002E929
:10349C007009E02404900301F08022E0F89003010D
:1034AC00E0F514E82404FCE43400FDEC6514700130
:1034BC00ED70C0123329941212332150B6850C8250
:1034CC00850D83E0C0E074022A1231E1D0E0F005F2
:1034DC0008850C82850D83A3E0C0E01231DAD0E0C0
:1034EC0012357F85820C85830D780C121BEA7404CF
:1034FC001219CB121C0185108285118312414A12BC
:10350C0007D674041219968A0C8B0DAE0CAF0D8570
:10351C00080C7402250CF874033400F9EE4F700398
:10352C000233C3851882851983E08882898312351A
:10353C007FA3E0C0E01231DAD0E00233D1E50970AC
:10354C000375090A850A82850B831235631238F0DC
:10355C00A90974040231D212413985128285138370
:10356C0022900301E0F5F0E50884900300F07C0064
:10357C007D0322F005088518828519832274EC12CC
:10358C0019D774FE1219808A088B098C0E8D0FEADC
:10359C002405FEEB3400FF851882851983AC82ADBF
:1035AC00838E828F831236821207D08A0A8B0BEE9F
:1035BC002418122E05EA450B70030236531237C538
:1035CC0050328518828519831236821208E48A10CB
:1035DC008B11EA4511606B7912AC0AAD0B85088230
:1035EC008509831236828510828511831219D5E9DB
:1035FC00F50A7058E4F50AF50B780A121BEA8E826C
:10360C008F83A3A3E0F50A780A121BEAEE240312B7
:10361C0038D4780A121BEA8E828F8312368C1208E9
:10362C00F67406121996E9F50A7021850C82850D3F
:10363C0083E0701F85088285098312368212055A31
:10364C008011750A0E8009750A018004E50A600371
:10365C001238E3850C82850D83E0600479008002CA
:10366C00A90A74021219967F0C021AA97C007D0318
:10367C00850A82850B8312368622E0FAA3E0FB22B0
:10368C00E0FCA3E0FD85088285098312368622744E
:10369C00EE1219D774FE1219808A088B098C0C8DC6
:1036AC000DEA2405FEEB3400FF750E0085188285AB
:1036BC001983AC82AD838E828F831236821207D02F
:1036CC008A0A8B0BEA450B70030237B11237C550CF
:1036DC00358518828519831236821208E48A0E8B7E
:1036EC000FEA450F605E7912AC0AAD0B8508828536
:1036FC000983123682850E82850F831219D5E9F55E
:10370C000E60030237B48508828509831239CBAA6F
:10371C000AFB1208D88A108B11A810A911E849705D
:10372C001E7AFF7BFF1208D88A108B11A810A911E2
:10373C00E849606C88828983E50AF0A3E50BF07593
:10374C000A008007750E0E805F050A9002E6E0FA0B
:10375C00E50AC39A504AE50A75F017A4FAABF0884B
:10376C00828983A3A3E02AFAA3E03BFB8A828B83A2
:10377C001238DDEC4D70D2750A17750B00780A12F1
:10378C001BEAEEFCEFFD1210527402121996EEFCBD
:10379C00EFFD85088285098312368212056080143C
:1037AC00750E098003750E01124131850C82850D51
:1037BC00831238F0A90E02331CE5082402F508E543
:1037CC00093400F5098A828B83A3A3A3E0A2E52226
:1037DC0074041219967F0A021AA974EC1219D78C68
:1037EC00108D11EA2405F50CEB122E08750F00EA6A
:1037FC002402F50AEB1238D7850A82F58312368239
:10380C001208D88A088B09EA450970030238C97571
:10381C000E008071850C82850D83E06401704F8EE3
:10382C00828F83A3A3121C018E828F83A3A3A3A3D5
:10383C00E0F5127513007812121BEAEE2405F5124E
:10384C00EF3400F5137812121BEA12367C1208F6CC
:10385C007406121996E9F50F6014850C82850D8398
:10386C00E4F01241318510828511831238F07C17F7
:10387C007D007900EEFAEFFB12106A8E828F83E4E2
:10388C00F0A3F0050E9002E6E0F8E50EC398501E8A
:10389C00E50E75F017A4F8A9F0850882850983A3B5
:1038AC00A31242BE1238DDEC4D60030238208508AD
:1038BC008285098374FFF0A3F0E50F700612367C45
:1038CC00120566A90F023673F50AEF3400F50B22C8
:1038DC00A3E0FCA3E0FD228E828F83124139850E7A
:1038EC0082850F83E8F0A3E9F022C082C0839002A6
:1038FC00E2E06A7003A3E06B70067AE27B0280045C
:10390C007A007B00022BE3C082C08378008C828D0E
:10391C0083E06A7003A3E06B7010E875F003A4F801
:10392C00A9F0EC28FAED39FB8015088C828D83A365
:10393C00A3A3E06A7003A3E06B60DF7A007B000254
:10394C002BE374F61219D71208A28A828B83E582B4
:10395C00458370067A007B008007A3A3A3A31236CD
:10396C0082023FE274F21219D7E9FE740E1219CBDF
:10397C001239CB74101219CB123E438C828D83E01A
:10398C0064027036A312413FF50CA3E0F9A80C7445
:10399C00026870037429697021750C02750D00782A
:1039AC000C121BEA7808121BEA780A121BEAEEF9D1
:1039BC0012091A740612199680027901024066E007
:1039CC00F50AA3E0F50B2274E81219D774FB12194F
:1039DC0080E9851882851983F08A168B17ECFEED29
:1039EC00FF751000741D1219CB124135741D12197C
:1039FC00CB1238F08E828F83A3A3A3E0A2E4502DC8
:103A0C00741D1219CB1236821208E48A828B83E55C
:103A1C008245837003023E14790AEEFCEFFDAA1670
:103A2C00AB171219D5E9F5106003023E17741F127B
:103A3C0019CB123E4374211219CB1239CB742312B9
:103A4C0019CBE0F50EA3E0F50F8E828F83E06402B4
:103A5C006003023DC2A3124135850882850983A308
:103A6C00858212858313EE2406122E0588828983A3
:103A7C00E0FAA3E0F9EA2400F514E439F51578141A
:103A8C00121C74010000280128B73A070002287C98
:103A9C003B0328E93A0029B33C0129DE3C02297F8B
:103AAC003C0329B33C04295D3DC23DE50E450F6046
:103ABC0003023DBD850C82850D83123E38FAE9FB6D
:103ACC008A828B83E0850A82850B83123E6E121BE1
:103ADC00EA8A828B83A3E0FCA3E0023D47E50E4516
:103AEC000F6003023DBD850A82850B837401F012C1
:103AFC003E4B850882850983F07C007D008E828F89
:103B0C0083A3A3A3A3E02401FAA3E03400FB1207D0
:103B1C00D0EA4B60418A828B83E02402F8850A82CA
:103B2C00850B83E028F0EA2404F8EB3400F9888252
:103B3C008983E0851282851383123E80123E6E12B9
:103B4C001BEA8A828B831238DCE5082403FAE50928
:103B5C003400FB023D4C850A82850B83E02404F083
:103B6C007C047D007900AA12AB1312106A023E1776
:103B7C00E50E450F6003023DBD123E4BFEA3E0FF78
:103B8C00850A82850B837404F0EE8508828509838F
:103B9C00F0EF851282851383F074031219CBAC827B
:103BAC00AD83EEFAEFFB1207D08A0C8B0DEA450DB4
:103BBC007003023C608A828B83A3A3122A8E740149
:103BCC001219CB85820E85830F780E121BEA7405B1
:103BDC001219CB121C017CFF7DFF1207D674041244
:103BEC0019968B0FEA450F7033850C82850D831265
:103BFC003E23121BEA850C82850D83A3121C017CCB
:103C0C00027D007A5F7B821206027404121996E917
:103C1C00700A74011219CB74FFF0A3F08E828F839B
:103C2C00E064027039750C02750D00780C121BEAF9
:103C3C008E828F831238DCE5082404FAE5093400FF
:103C4C00FB1210527402121996850A82850B83E0BE
:103C5C002402800974011219CBEEF0A3EFF0740169
:103C6C001219CB123E34F074011219CBA3123E2C54
:103C7C00023DB7E50E450F6003023DBD850C828504
:103C8C000D831238DDAA16AB1712090E850A828530
:103C9C000B837402F0EA850882850983F085128211
:103CAC00851383EB023DBAE50E450F6003023DBD63
:103CBC00123E4BF8A3E0F9850A82850B837402F05F
:103CCC00E8850882850983F0E985128285138302D1
:103CDC003DBA850C82850D8312368212104CEAFC9B
:103CEC008C82A882C3950EE4950F405FE8650E7038
:103CFC0002E50F70047C008022851882851983E010
:103D0C00FAE50E2AFAE50F3400FBC3EA98EB9400AF
:103D1C005003E08005E50ECCC39CFCEC850A828543
:103D2C000B83F08C0A750B00780A121BEA850C8247
:103D3C00850D83E0250EFCA3E0350FFDAA08AB0929
:103D4C001210527402121996023E17751007023E99
:103D5C0017E50E450F705A850C82850D831241357F
:103D6C00850A82850B837407122A9A123E2C122A1A
:103D7C009AA3E0851282851383F0E82402FAE934D1
:103D8C0000FB8A828B83123E2C123E5B123E34A3C4
:103D9C00123E64123E3DF0E82405F8E93400F9883F
:103DAC00828983123E3DA3123E80A3A3A3A3F0807D
:103DBC005A75100B8055741D1219CB1236821208CD
:103DCC00A28A828B83E5824583603D124135880C43
:103DDC00890DE8450D6031780E121BEA780A121B2A
:103DEC00EA7808121BEA74061219CBE0F9EEFCEF24
:103DFC00FDAA16AB17850C82850D831219D5740696
:103E0C00121996E9F510800375100EA9107405129D
:103E1C0019967F10021AA9E0F50E750F00780E2284
:103E2C00E085088285098322123E8A22124139E8F4
:103E3C0022123E8AA3A322E0F508A3E0F50922850D
:103E4C000C82850D83E0F8A3E0F5838882E022A341
:103E5C00A3F08A828B83A322F088828983A3A3A3F5
:103E6C00A322F08A828B83123E7722E0F50A750B2F
:103E7C0000780A22F088828983A3123E8A22E08588
:103E8C000882850983A3A32274EE1219D774FE123B
:103E9C0019808A0A8B0BECFAEDFB74141219CBE027
:103EAC00F510A3E0F51174161219CBE0FE7418127C
:103EBC0019CBE0F50EA3E0F50F851882851983ACBC
:103ECC0082AD831207D08A0C8B0DEA450D604985B3
:103EDC0018828519831236821208A28A828B83E596
:103EEC00824583602FA3A3123E43E5084509602455
:103EFC00780E121BEA7810121BEAEEF9AC0CAD0D21
:103F0C00AA0AAB0B8508828509831219D574041291
:103F1C0019968006790E8002790102331C74F61210
:103F2C0019D774FE121980740C1219CB123E3885F5
:103F3C001882851983F074011219CBE9F0E4F508A5
:103F4C00F5097808121BEA7508027808121BEA7446
:103F5C00041219CB8582088583097808121BEA1292
:103F6C0008F674061219967402121996806874F782
:103F7C001219D7EAFEEBFF89087C197D0312090E92
:103F8C00EA5402600BA908EEFAEFFB1207C4800298
:103F9C00790102299674F61219D774FF6A700374AA
:103FAC00FF6B70168C828D83123FE7E4F08C828D50
:103FBC0083A3A3A3123FE7A380181208DE8A088B01
:103FCC0009A808A909E849600D8882898374FF1241
:103FDC002A98A3A3E4F07F02021AA974FFF0A3F0BD
:103FEC008C828D83A3A32274F61219D71208DE8A51
:103FFC00828B83E58245836006A3A3E0FA80027A74
:10400C00007B0080D174F21219D78A088B09ECFE60
:10401C00EDFF740E1219CBE0F50A1208DE8A0C8B38
:10402C000DA80CA90DE8497026EEFCEFFD7AFF7B7C
:10403C00FF1208DE8A0C8B0DA80CA90DE849700440
:10404C007911801688828983E508F0A3E509F08848
:10405C00828983A3A3E50AF079007F06021AA9746A
:10406C00EE1219D7EAFEEBFF8C088D09890C74143B
:10407C001219CB12413574161219CB123682750DEA
:10408C0000E84960030241297402650C6003024197
:10409C002474121219CB12413FFCA3E0F9EC24005A
:1040AC00F50EE439F50FEAF4F8EBF4F9EC58F8E511
:1040BC000F59F9E849705CE5082406F8ED3400F96D
:1040CC00880A890B8882F58312414A12090E8A10DC
:1040DC008B11E50E65107004E50F65116042780ECA
:1040EC00121BEA850A82850B8312414A1209147449
:1040FC0002121996E9F50D7027780E121BEA850845
:10410C0082850983A3A312414812092C7402121947
:10411C0096800D750D808008750D0D8003750D0B47
:10412C00A90D0237E18E828F8312413922E0F8A368
:10413C00E0F92212413988828983E022A3A3E0FCB2
:10414C00A3E0FDEEFAEFFB2274E81219D774E71224
:10415C001980851882851983EAF0A3EBF08C168DF3
:10416C0017890E75080075090074311219CBE0F52A
:10417C0012A3E0F51374331219CBE0F514A3E0F598
:10418C001574351219CBE0F50FE50975F003A4F899
:10419C00A9F08518828519831242BEE0F47003A33E
:1041AC00E0F470030242A1EE2402F50CEF1242B4CB
:1041BC00E070030242A185160A85170B780A121BC0
:1041CC00EAAC14AD15AA12AB1312089674021219AC
:1041DC00968A0A8B0BEA450B70030242A1E4F51098
:1041EC00F5117810121BEA74061219CB8582108512
:1041FC0083117810121BEA74091219CB8582108571
:10420C0083117810121BEA851282851383A3A3A352
:10421C00A3121C017914AC0AAD0B8E828F8312365B
:10422C00821208F07408121996E97069850A828561
:10423C000B83A3A3A3A312413574021219CB12381A
:10424C00F0850C82850D83E0A2E05018A90E740253
:10425C001219CBAC82AD838E828F831236821207F9
:10426C00E8E94208850C82850D83E0A2E15026E541
:10427C000FF50A780A121BEEA90E74031219CBACB7
:10428C0082AD838E828F831236821207E274011202
:10429C001996E942080509E509C394025003024145
:1042AC0095A9087419023E1B3400F50D850C82F596
:1042BC008322E028FEA3E039FF8E828F832274F2E2
:1042CC001219D7EAFEEBFF890B7401650B600E74B3
:1042DC0002650B706A7901120AEEE97062EEFAEF70
:1042EC00FB1208D88A088B09EA45096047750A0051
:1042FC00800B7C177D00790012106A050A9002E68B
:10430C00E0F8E50AC3985021E50A75F017A4F8A95E
:10431C00F0850882850983A3A3E028FAA3E039FB82
:10432C008A828B83122BEA70C98508828509837473
:10433C00FFF0A3F07C197D03EEFAEFFB12090802E3
:10434C00406674F21219D78A088B09ECFEEDFF74E3
:10435C000E1219CB1239CB900E90E0F4603D7A0915
:10436C007B00121076EA4B60328A828B8374B1F038
:10437C00A3E4123E5DA3123E5BA3E508F0A3E5099E
:10438C001243AAEEF0A3EF1243AAA3A3E50AF0A3EB
:10439C00E50BF0900E90E0F9121082024066F08A64
:1043AC00828B83A3A3A3A3A322C082C08390075FA5
:1043BC00E0F8E94A6890075D603C7403F07410699A
:1043CC007013EAC333FCE433FD74682CF582740774
:1043DC003DF5838015E9702074016A700590097FA2
:1043EC00800874026A7011900981125C73900762E4
:1043FC00ECF0A3ED8001E4F08002A3F0D083D08236
:10440C0002012274F01219D774FE1219808A088BDB
:10441C00097E007F00EEF8EFF97A027B001218EDAE
:10442C00E8C333F50EE933F50F7468250EF50C74FB
:10443C0007350FF50D850C82F583A385820A8583DC
:10444C000B851882851983AC82AD837A02EE248D9C
:10445C00F9121472E9601B74C3250EF58274813550
:10446C000FF5831255D8850C82850D83E8F0A3E9EE
:10447C00801A851882851983E0850A82850B83F062
:10448C0074011219CBE0850C82850D83F0E5082EA2
:10449C00F8E509125194EE2402FEEF3400FFC3EE4E
:1044AC009408EF1253BC50030244217402024A6078
:1044BC0074F71219D774FE121980EAFEEBFF8518F7
:1044CC0082851983AC82AD837A027995121472E9D4
:1044DC006049900770E0600C1460142481601B1418
:1044EC006023802C90097F74BDF0A37404804090ED
:1044FC00097F7403F0A37405803590097F74F1F083
:10450C00A37401802A90097F740AF0A37402801F9F
:10451C0090097F74FFF0A3743F801485188285196D
:10452C0083E0F974011219CBE090097FF0A3E91232
:10453C00518A7997121472E96040900770E0600C10
:10454C001460102481601714601E802690098174F9
:10455C00C680059009817465F0A3740280309009BF
:10456C00817402F0A314802690098174E9F0A3E40D
:10457C00801C900981E4F0A380148518828519832E
:10458C00E0F974011219CBE0900981F0A3E9F090E5
:10459C000980124BEB90097F124644F0900982126D
:1045AC00464990098112465674020250D374F71290
:1045BC0019D774FC121980EAFEEBFF851882851955
:1045CC0083AC82AD837A047989121472E9600F90FE
:1045DC0007707401F0A304F0A3E4F0A380288518FD
:1045EC0082851983E0900771F074011219CBE09069
:1045FC000770F074021219CBE0F974031219CBE0B6
:10460C00900772F0A3E9F0900770E0547F900FE6EA
:10461C00700474148002740FF0A3E4F0900771120C
:10462C004BEB900770124644F0900773124649907A
:10463C0007721246560250D1124B03A32212464D5A
:10464C0022E08E828F83A3A3F022124B092274E8FE
:10465C001219D7EAFEEBFF8C0A8D0B74181219CBCA
:10466C0078101218508E168F178E088F09EE4F7017
:10467C002F7A057B001210E88A088B09AE08AF0967
:10468C008E828F83A3A3A3A3E4F08E828F83A3A334
:10469C00E50AF0A3E50BF08E828F83E4F0A3804E45
:1046AC00EA2404F514EB3400F51590820778101207
:1046BC0017B6851482851583E0F50CE4F50DF50E1F
:1046CC00F50F7810790C12152F502A800488088960
:1046DC00098508828509831255E570F17A057B00FE
:1046EC001210E812473C851482851583E004F08093
:1046FC0036880889098508828509831255E570F189
:10470C007A057B001210E812473C8E828F83E0FE04
:10471C00A3E0FF851482851583124644A3A3A3F05E
:10472C00AA16AB171210EEEEFAEFFB7F10021AA9C5
:10473C008A0C8B0DA80CA90D88828983A3A3E50A8A
:10474C00F0A3E50BF088828983E4F0A3F08508825E
:10475C00850983E8F0A3E9F022C082C083900FE4BE
:10476C007484F0A37403F08A828B83F0900FE4E0DE
:10477C008A828B8302440674F41219D774FC1219C2
:10478C00808908900775E065087003024851851808
:10479C0082851983AA82AB831211CC90097AE0F539
:1047AC000A75F005A4F8A9F0748328FE740939FF82
:1047BC00E0C394C950198E828F8312485B12186E15
:1047CC008E828F83A312187A90097AE004806B781A
:1047DC00007900E8FAE9FBEA75F005A4FAACF0758B
:1047EC00F005EBA42CFB74832AFC74093BFD8C8232
:1047FC008D83A3A3A3A3A37405121893E824010823
:10480C00E93400F9E50A24FFFAE434FFFBC3E89A23
:10481C00E99BA2D265D03340BAEE24FBF582EF348B
:10482C00FFF58312485B12186EEE24FCF582EF3410
:10483C00FFF58312187A90097AE4F0E50890077571
:10484C00F07901800279007404121996025B5CE520
:10485C000812486122F085188285198322C082C013
:10486C0083900760C3E09489A3E0941390076040A1
:10487C0005E4F0A38003124A5702440774F7121997
:10488C00D78908740F5508F874F05508600A24F09D
:10489C00603424F06067806F90097BE07069900948
:1048AC007CE0640260617401F07EF4FFE860121435
:1048BC00600514600680507A0180027A02790080CB
:1048CC00371211EA804190097BE0703B90097CE043
:1048DC0064026033E4F07EF47F01E8600B14600C3A
:1048EC0014600D14600E801F7A00800A7A01800615
:1048FC007A0280027A037910121166800A90097D7F
:10490C007401F07E007F00E50890075FF0EEFAEF8F
:10491C00FB0250D674F01219D7EAFEEBFF90820B13
:10492C00121BFD90077A1255D8758307758266E0C5
:10493C00C398FCA3E099FD90077612582B12117EB8
:10494C007404121996900776EAF0A3EBF07C007DC4
:10495C00009007761255D88007E02CFCA3E03DFDB3
:10496C0088828983E5822402F8E5833400F9E8FA29
:10497C00E9FB1255E58A828B8370DEE02CF508A3E7
:10498C00E03DF509900764780C1218509007787880
:10499C000C12151A600C9007647C787D0774041255
:1049AC001893900764780C12185090077C780C12AE
:1049BC00151A7003024A4A9007801255D8C3EE9814
:1049CC00EF99507A900780E4F0A3F07A04FB121070
:1049DC00E88A0A8B0BAE0AAF0B124AE790076612F5
:1049EC0055D875830775827EE0C398F8A3E099F9D2
:1049FC009007821255CF900764E0640170229007F3
:104A0C007CE06401701AC39007831258125007C3DC
:104A1C00E498F8E499F9C3E8941FE91253BC500BDD
:104A2C00EEFCEFFD7A0479051214F09007647C7C9F
:104A3C007D077404121893EEFAEFFB1210EE900738
:104A4C0080124A57F0AA08AB09800CE02401F0A3AD
:104A5C00E03400221219967F08021AA974F7121971
:104A6C00D7ECFEEDFFEAC39EFAEB9FFB12121AE99C
:104A7C00F50890076AE0C39EFAA3E09FFB12121A96
:104A8C00E965087004790280027901900784E06975
:104A9C00601A900785E0C394034009E4F0E990079D
:104AAC0084F08008E004F0900784E0F90250D6749A
:104ABC00F61219D77A047B001210E88A088B09AE1B
:104ACC0008AF09124AE7EEFCEFFD7A0479051214DF
:104ADC00F0EEFAEFFB1210EE02533A900764124B11
:104AEC0003F0900765124B03A3F090076712464D35
:104AFC00900766124B0922E08E828F8322E08E8211
:104B0C008F83A3A3A3F02274F61219D77A087B0023
:104B1C001210E88A088B09AE08AF0912116CEEFC72
:104B2C00EFFD7A0879011214F0EEFAEFFB1210EE99
:104B3C007A057B001210E88A088B09AE08AF097C55
:104B4C00707D0D7A01799B121472E96005900D70DD
:104B5C00E4F0900D70124BEBEEFCEFFD7A0579064C
:104B6C001214F0EEFAEFFB1210EE7A047B00121026
:104B7C00E88A088B09AE08AF09121178EEFCEFFD3C
:104B8C007A0479001214F0EEFAEFFB1210EE7A04AC
:104B9C007B001210E88A088B09AE08AF091211725B
:104BAC00EEFCEFFD7A0479031214F0EEFAEFFB122F
:104BBC0010EE7A027B001210E88A088B09AE08AF5F
:104BCC0009121184EEFCEFFD7A0279021214F0EE58
:104BDC00FAEFFB1210EE75C90043C90802533A12E2
:104BEC004B03F02274EA1219D78910750A00750B61
:104BFC00007C007D0079008911E51060351460148B
:104C0C002481601B14704075120A7513027514E927
:104C1C0089158017751203751305751465801C753D
:104C2C0012F1751301751402751501900786740243
:104C3C0080117512BD7513047514C6751502900795
:104C4C00867404F0A3E4F090097EE0F508890974F9
:104C5C0003780812196D85080E85090F74E4250E6A
:104C6C00F50C740E350FF50D74D4250EF50E740E6F
:104C7C00350FF50FEAC333F508EB33F509C3EA94A6
:104C8C00011253BB5003024DC4900762E0F514A30C
:104C9C00E0F515E512C39514F514E5139515F51506
:104CAC00E5144515703009900762E0C39512F50ABA
:104CBC00A3E09513F50BE50A2401F50AE50B340086
:104CCC00124F84E5129401E5131253BC4006AC124A
:104CDC00AD138002891112502FEA9512EB9513A295
:104CEC00D265D0335003024F6BE50C2402F512E56C
:104CFC000D3400F513E50E2402F582E50F3400F5B2
:104D0C0083E9A2E04049E5107003024EBA14601B1F
:104D1C0024816038146003024F6F124FAB1218EDF0
:104D2C001258201218ED124F788017EAF8EBF9128E
:104D3C00582B1218ED880A890BE508250AF8E509A5
:104D4C00350BF9851282851383024EDE024E9812C2
:104D5C004FC37003024F28146023248160571460E2
:104D6C0003024F6F124F931218ED1258201218EDC8
:104D7C00880A890BEC250AFAED350B8017ECF8ED57
:104D8C00F912582B1218ED880E890FE50A250EFA28
:104D9C00E50B350FFB8512828513831255D8E885F8
:104DAC000CF0A4F8ACF0850CF0E9A42CF9EA28F886
:104DBC00EB39024F60024EF81253BA4003024F6BAC
:104DCC00900762E0C39514F512A3E09515F513E571
:104DDC00124513701B09E51224FFF50AE51334FF85
:104DEC00124F841253BC5006AC12AD1380028911C1
:104DFC0012502FE49512F512E49513F513C3E51236
:104E0C009AE5139BA2D265D0335003024F6BE50E8B
:104E1C002406F582E50F3400F583E50E2404F50E27
:104E2C00E50F3400F50FE9A2E05003024EE7E50C64
:104E3C002406F8E50D3400F9880A890BE50C2404E6
:104E4C00F8E50D3400F9880C890DE51060601460EC
:104E5C001B24816037146003024F6F124FAB121882
:104E6C00ED1258201218ED124F788017EAF8EBF972
:104E7C0012582B1218ED880C890DE508250CF8E555
:104E8C0009350DF9850A82850B838046124FAB12CA
:104E9C0018EDE8FCE9FDECC333FCED33FD850E8227
:104EAC00850F8312582B1218ED124F78801DEAF8DB
:104EBC00EBF9850E82850F8312582B1218ED880A98
:104ECC00890BE508250AF8E509350BF9850C82856F
:104EDC000D83E028FEA3E039024F68124FC3603CFB
:104EEC0014603F248160051470798006850E8285DC
:104EFC000F83E0FEA3E0FF124F931218EDE8FCE9DC
:104F0C00FDECC333FCED33FDEEFAEFFB1218ED882C
:104F1C000A890BEC250AF8ED350B8023850E82856A
:104F2C000F83E0FEA3E0FFECF8EDF9EEFAEFFB12D5
:104F3C0018ED880E890FE50A250EF8E50B350FF9EB
:104F4C00EE850CF0A4FEAAF0850CF0EFA42AFFE885
:104F5C002EF8E93FF9E82508FEE93509FF80047EC3
:104F6C00007F00EEFAEFFB7F0E021AA98808890970
:104F7C00EC2508F8ED350922F50BEAC3950AF51274
:104F8C00EB950BF513C322EC75F07FA4FCA8F07520
:104F9C00F07FEDA428FDECF8EDF97A327B0022EAE3
:104FAC0075F07FA4FAA8F075F07FEBA428FBEAF863
:104FBC00EBF97A327B0022E511A2E0B3E433F50C75
:104FCC00E50A9AF8E50B9BF9851108E88508F0A429
:104FDC00F885F0118508F0E9A42511F9EAC3950AC2
:104FEC00FAEB950BFBEA850CF0A4FA85F008850C1E
:104FFC00F0EBA42508FBE82AF508E93BF509E508E0
:10500C0075F003A4F508A8F075F003E509A428F5DC
:10501C00098C0A8D0BE50AC333F50AE50B33F50B46
:10502C00E51022900786E0F512A3E0F513C3227475
:10503C00F71219D774F6121980E9FEEAC333FAEBAA
:10504C0033FB74682AF874073BF988828983ECF087
:10505C00A3ED12518588828983E0C0E07401121996
:10506C00CBD0E012518AEEF912146C7A007B00EA74
:10507C00F8EBF9E8C333F8E933F974021219CBE50C
:10508C008228FCE58339FD746828F8740739F9889F
:10509C00828983A3E08C828D83F088828983E08C63
:1050AC00828D83A312533F94041253BB40C17402EC
:1050BC001219CBAC82AD837A0879011214F012115B
:1050CC00F6740A800274041219967F01021AA974EC
:1050DC00F01219D774F61219808A088B09750E0014
:1050EC00750F00E50EC333FEE50F33FF74682EF524
:1050FC000C74073FF50D850C82F583A385820A8518
:10510C00830BE5082EF582E5093FF5831255E56022
:10511C002A850C82850D83E8F0A3E9125185850C54
:10512C0082850D83E0C0E074011219CBD0E01251DE
:10513C008AE50EC333248DF912146C74021219CB48
:10514C00E5822EF8E583125194E50E2401F50EE567
:10515C000F3400F50FC3E50E9404E50F1253BC4059
:10516C008274021219CBAC82AD837A0879011214C5
:10517C00F01211F6740A024A60124861F0221248C9
:10518C0061AC82AD837A02223FF9850A82850B835A
:10519C00E088828983F0850C82850D83E088828982
:1051AC0083A3F02274EC1219D78A0C7510007511B8
:1051BC00007512007513007A00850C088B098C0A97
:1051CC008D0BEA33333354F8780812176B90820F37
:1051DC0078081218177403C39A33333354F87808C9
:1051EC001217847810790812183D0AEAC394044007
:1051FC00C8AA10AB11AC12AD137F0C021AA974F72C
:10520C001219D774FC121980EAFEEBFF1210D0129F
:10521C0010D61211C685188285198312187A851832
:10522C0082851983EEFCEFFDECFAEDFB7404121889
:10523C00930250D174F41219D77A057B001210E83E
:10524C008A088B09AE08AF09740C1219CB124BEB00
:10525C0078017900C3E498FAE499FB740C1219CB29
:10526C00E5822AF582E5833BF583A3A3A3A3A3E000
:10527C00C0E01253B1D0E012545040D8EEFCEFFD18
:10528C007A0579061214F0EEFAEFFB1210EE740C9C
:10529C001219CBE06018740D1219CB780812185043
:1052AC00E5084509450A450B70047901800279002F
:1052BC00025B5C74F61219D790097DE060707A106D
:1052CC007B001210E88A088B09AE08AF099007889A
:1052DC00E075F00FA4F8A9F0748328F8740939F973
:1052EC00124BEB900788E004F07A007B00E82AF57B
:1052FC0082E93BF583E0C0E0EE2AF582EF3BF583D3
:10530C00A3D0E012533F940F1253BB40E0EEFCEFDE
:10531C00FD7A1079081214F0EEFAEFFB1210EE90F1
:10532C000788E0C394434006E4F090097DF07F02C7
:10533C00021AA9F0EA24010AEB3400FBC3EA227436
:10534C00F61219D774FC121980851882851983AA54
:10535C0082AB831211CC7A047B001210E88A088B82
:10536C0009AE08AF0978007900851882851983E5A4
:10537C008228F582E58339F583E0C0E01253B1D081
:10538C00E01254629404E91253BC40DDEEFCEFFDD4
:10539C007A0479071214F0EEFAEFFB1210EE740493
:1053AC001219968089EE28F582EF39F58322C3EB2A
:1053BC0012545A2274F01219D774FC121980EAFE96
:1053CC00EBFF8E828F83E0900D70F01210D078017D
:1053DC0079001253B1E0C0E0851882851983E5820B
:1053EC0028FAE58339FBEA24FFF582EB34FFF583D9
:1053FC00D0E012545040DB85188285198312186E48
:10540C001211C68A088B098C0A8D0B1210D68A0CC5
:10541C008B0D8C0E8D0F7808790C1217A3900D75CF
:10542C00780812185F85188285198312186E900DF2
:10543C007112187A7C707D0D7A01799B12146C7440
:10544C0004024A601254629405E912545A229400E0
:10545C00A2D265D03322F0E8240108E93400F9C364
:10546C00E822C082C08390097CE4F090075DF09044
:10547C00075FF0900976F0024406C082C0838A82EE
:10548C008B83A3E0F8748168600D74016860087404
:10549C0080686003E8700BEAFCEBFD7A04798912F2
:1054AC00146C1211AE024408C082C08374FE12192F
:1054BC0080900FE47484F0A374031251857401126C
:1054CC0019CB748412518A79021214F074021219D5
:1054DC009602440874F71219D774F8121980EAFC72
:1054EC00EBFD8C828D83E0C0E074011219CBD0E00F
:1054FC00F08C828D83A3E0851882851983F0EC24CF
:10550C0002FEED3400FF8E828F83E0C0E074031244
:10551C0019CBD0E0F08C828D83A3A3A3E0C0E07400
:10552C00021219CBD0E012485D1255E590097F604C
:10553C000C1255CF7A02799512146C800C1255D836
:10554C008518828519831255CF74021219CB125506
:10555C00E590098160101255CFEEFCEFFD7A0279CF
:10556C009712146C800B1255D874021219CB125569
:10557C00CF74011219CBE0C0E074041219CBD0E047
:10558C0012485DE0C0E074051219CBD0E0F0740352
:10559C001219CBE0C0E074061219CBD0E0F0740203
:1055AC001219CBE0C0E074071219CBD0E0F07404F0
:1055BC001219CBAC82AD837A0479031214F07408FF
:1055CC000250D3E8F0A3E9F0229009781255DC22BE
:1055DC00E0F8A3E0F9229007661255DCE849227442
:1055EC00F01219D7900764E0640170679007661297
:1055FC0058179007891257FEE0687003A3E06960A2
:10560C0046E8496046900774E06040900978E0C332
:10561C0098F508A3E099F5093395E0F50AF50B78B0
:10562C000812156EE50BC2E7F50B908213780C127D
:10563C0018507808790C12161850109007891258C7
:10564C0017900774E48026E84970231255D590070B
:10565C00898016E06406600590097F800990097CBA
:10566C007402F09007891257FEE8F0A3E9F0900756
:10567C005DE0703F90075EE064037027C39009778C
:10568C0012581250030257D0900976C3E09401A32C
:10569C0012581240030257A575800053FD0F900756
:1056AC005E8009E075800053FD0F6004E40257F042
:1056BC000257F1F890075EE068700302576C900790
:1056CC005DE014600914601714602602576290099B
:1056DC0078C0821257F4D08212580B5079802D90DA
:1056EC00098112582B1255D5C3EA98EB9950678053
:1056FC003590097FC0829007621255D8758309D006
:10570C008212580B500F90097F1255D8900762E8FF
:10571C00F0A3E9801890098112582B900762C3E01E
:10572C009AA3E09B5008900762EAF0A3EBF0900775
:10573C0070E0F9900762C08290097812582B75833B
:10574C0007D082E0C39AFAA3E09BFB1211B4900934
:10575C0076EAF0A3EBF090075DE090075E0257F05D
:10576C009009761255E5701675800053FD0F900761
:10577C005DE4F090075FF090097C740280669007FE
:10578C005DE014600514602A805B900978C0821279
:10579C0057F4D08212580B503F90097BE0700643AF
:1057AC00FDF0758040900976E024FFF0A3E034FF13
:1057BC008032900981C0821255D5758309D082122E
:1057CC00580B501490097BE0700643FDF0758080F7
:1057DC00900976124A57800C75800053FD0F900982
:1057EC0076E4F0A3F0024A6390097F1255DC7583CE
:1057FC00092212580222E0F8A3E0F990097822C39A
:10580C00E098A3E09922E012545A22125802E8F0D0
:10581C00A3E9F022E8FCE9FDECC333FCED33FDE039
:10582C00FAA3E0FB22C082C083E590540F90078B53
:10583C00F090097CE064017003025A2390078BE01E
:10584C00640F90097C7020E4F090075DF090078C59
:10585C00740FF090075EE06403700990097BE070B0
:10586C0003025A23025A1D7402F090097BE0600374
:10587C00025A2390078CE0F890078BE068700302C3
:10588C005A1890075EE0640370030259FF90078B6F
:10589C00E024FD700302597F24FE605024FE60302A
:1058AC0024FE70030259AB24FE700302594424FEFB
:1058BC0060091470030259EE025A0E900764E064FA
:1058CC000670051255E2701590075D7401025A0DB1
:1058DC00900764E06406700C1255E2600790075D57
:1058EC00E4025A0D90075D7402025A0D900764E0B1
:1058FC006406601E900768E0F47003A3E0F4700384
:10590C00025A0E90075D7403F09007681255D80286
:10591C0059C61255E26003025A0E125C70798D7AE8
:10592C00007B001211BA90097BE06003025A0E430F
:10593C00FDF07580C0025A0E900764E06406600D9D
:10594C0090076A125A26706A74FF6980651255E2D4
:10595C006003025A0E125C70798F7A017B0012116F
:10596C00BA90097BE06003025A0E43FDF07580206B
:10597C00025A0E900764E06406600590076C802A5A
:10598C001255E2707D125C7079917A027B001211D3
:10599C00BA90097BE0706B43FDF07580A08063903A
:1059AC000764E06406601C90076E125A267003743C
:1059BC00FF69604E90075D7403F0900762E8F0A3F6
:1059CC00E9803E1255E2703A125C7079937A037B4F
:1059DC00001211BA90097BE0702843FDF0758060CD
:1059EC00802090075DE4F043FDF075801090077403
:1059FC0004800E90075DE4F090075EF0900976F05D
:105A0C00A3F090078BE090078CF0800BE0640E7095
:105A1C000675800053FD0F0244081255DC74FF68B4
:105A2C002274F41219D7E9FE74046E6003025B55FC
:105A3C009007601255E57003025B55900760C3E058
:105A4C00941EA3E09400500B7C047D007A8D7B07A0
:105A5C001213E890078DE0900795F090078EE0F90F
:105A6C00900796F090078FE0FA900797F0900790C8
:105A7C00E0FB900798F09082177808121850900766
:105A8C0091780812151A707290821F7808121850AB
:105A9C00900795780812151A604C900795780812A3
:105AAC00185074016508700474026509601490073D
:105ABC009578081218507401650870047401650912
:105ACC00702490823B780812185090079578081231
:105ADC00151A601290822B7808121850900795783E
:105AEC000812151A70149007957401F0A37404F041
:105AFC00A37401F0A374AAF0804F90079578081254
:105B0C00185074016508700474056509700E9007CF
:105B1C00917C957D077404121893800FE9900764AB
