:020000040000FA
:100800007BBDFFFF0000007C41414141FFFFFFFF36
:10081000FFFFFFFFFFFFFFFFFFFFFFFFFFFFFFFFE8
:10082000000102030405060708090A0BFFFFFFFF8A
:10083000020D6F021CCBFFFFFFFFFFFFFFFFFFFF5B
:10084000FFFFFFFFFFFFFFFFFFFFFFFFFFFFFFFFB8
:10085000FFFFFFFFFFFFFFFFFFFFFF022143FFFF3F
:10086000FFFFFF022125FFFFFFFFFF022164FFFFC3
:10087000FFFFFF0220D9FFFFFFFFFFFFFFFFFFFF8A
:10088000FFFFFF021D3EFFFFFFFFFFFFFFFFFFFF18
:10089000FFFFFFFFFFFFFFFFFFFFFF0220FFFFFF44
:1008A000FFFFFFFFFFFFFFFFFFFFFFFFFFFFFFFF58
:1008B000FFFFFF021B37FF0000B4000028002800E4
:1008C000283075A000A000A000A00000080008E0EB
:1008D00001F0001000100010001000100010005077
:1008E000005000500010001000D007000000000071
:1008F000000F0001000500307507001000010081A5
:10090000FF00000000FFCC23EA23D223FF020202F3
:1009100008025000A0000000E80302B482010000B9
:100920009D8202AE820100000F0E02B08201000023
:10093000B20202AE82010000100E02BC8201000071
:10094000C80202AE82010000110E02E08201000026
:10095000CA0202AE82010000120E02D88208000014
:10096000CB0202AE82010000130E02D6820100000B
:10097000140EFF0100FF2002B482010000A08202D9
:10098000AE82010000780E02BE820000000000026C
:10099000F68103000018039C299C299C299C299C12
:1009A000299C299C299C299C299C299C299C299C1F
:1009B000291E2C362C182CFFFF0200E2FF0200E754
:1009C000FF0200F3FF0200F3FFFAFF07000300F944
:1009D000FFFBFF07000400F7FF0700030009000307
:1009E000000A000E0005000D0005000E00020202C4
:1009F000020202020202010D000000100102B48294
:100A0000010000A38202AE82010000EF0E02C0824C
:100A1000010000960702AE82010000F00E02C282C1
:100A20000100009B8102AE82010000F10E02C4822F
:100A3000010000728102AE82010000F20E02C68245
:100A4000010000DB8002AE82010000F30E02C882CA
:100A5000010000ED8002AE82010000F40E02CA82A5
:100A6000010000C98002AE82010000F50E02D482AE
:100A7000010000B78002AE82010000F60E02B682CD
:100A8000010000808102AE82010000F70E02DE82CA
:100A9000010000F80E01E803053F100A1C02B482B1
:100AA000010000A98202AE820100009E0F1030807A
:100AB0000200009E0802F681030000A00802AC823A
:100AC000010000A88102AE820100009E0F1040804C
:100AD0000200009F0802F681030000A60802AC8213
:100AE000010000EC81FFFFFF0001307503020106E9
:100AF00000000000000000000000000000000000F6
:100B0000000000000000000000000000FFFF0600E1
:100B1000800CE80384030F0013094F666669636560
:100B200077656C6C2023303030303030051208008F
:100B30000800020A000201060302F1FF53696D700A
:100B40006C6520424C452050657269706865726121
:100B50006C4F666669636577656C6C202330303056
:100B6000323230AC310000B8310A486172647761CA
:100B7000726520496E666F726D6174696F6E000AEE
:100B80005072657365742048656967687400025027
:100B90006F7374757265204A756467656D656E74F0
:100BA000000A416374696F6E2052616E67650008C8
:100BB000436F6E74726F6C20436F6D6D616E640075
:100BC000125065736B20537461747573000A4C6F17
:100BD000636B205374617475730002506F77657294
:100BE00075702054696D657374616D7000001048F4
:100BF00065616C746820446174610002B482010014
:100C000000A68202AE820100006B1002E4820300A3
:100C1000007C0D02AC820100006C1002AE8201006B
:100C200000811002E682030000800D02AC82010008
:100C300000821002AE82010000901002E8820100E2
:100C400000880D02AC82010000911002AE8201000A
:100C500000A31002EA820300008A0D02AC820100A8
:100C600000A41002AE82010000B11002EC8202006A
:100C7000008E0D02AC82010000B21002AE820100B3
:100C800000C21002DA820100008F0D02F68103001B
:100C900000930D02AC82010000C31002AE8201007D
:100CA00000CF1002D282030000990D02AC82010035
:100CB00000D01002AE82010000DC1002D0820100E0
:100CC000009E0D02AC82010000DD1002AE82010028
:100CD00000F01002CE82000000A20D02F681030097
:100CE00000B20D02AC82010000F110E5C754F844D7
:100CF00005F5C779012200000080FB120CEBB9005A
:100D000003020D59E479217808B800028004F7093C
:100D1000D8FCE479297802B800028004F709D8FCED
:100D2000E49002807839790C8002F0A3D8FCD9FADB
:100D3000900DB8AA82AB839008B6783679058015F5
:100D4000E493A3AC82AD838A828B83F0A3AA82ABA7
:100D5000838C828D83D8E9D9E77582977583C874AF
:100D600007120D817582F675830C7400120D817562
:100D7000D00075813F751A80751B02759F00020CAB
:100D8000FBC09FF59FE473D09F22D083D082C09F89
:100D9000E493C0E0740193C0E0740293F59F22E0F5
:100DA00066701008A3E066700A08A3E06670040885
:100DB000A3E06622C3E7960809E7960809E79608C4
:100DC00009E79622C3E09608A3E09608A3E09608F8
:100DD000A3E09622C00AC3E096F50A08A3E0964273
:100DE0000A08A3E096420A08A3E096450A7001D3D8
:100DF000D00A22080808E630E711120FDC120E0BA9
:100E0000080808C64480C618181822181818E97966
:100E10009EC608CAC608CBC608CCC6C37020799641
:100E2000CACBCC7019798ECBCC70137986CC700E6E
:100E3000F9802ACA33CACB33CBCC33CC331930E751
:100E4000F2CCCBCA3350147004EA30E00DE4CA3A55
:100E5000CACB3BCBCC3CCC500209C3E913C6CC185F
:100E60002313C6CB18C6CA18C6F922E6C3331846E0
:100E70001846184622E7C33319471947194722E68F
:100E8000084608C3134608336002E633F422E70934
:100E90004709C3134709336002E733F422120E7F78
:100EA000601C120E8E6017120E6B7007120E75709A
:100EB00001D322C0D0120E757006D0D0B322C32247
:100EC00033D0D0501430E0F6C3E7960809E796080F
:100ED00009E7960809E796B32220E0D5E6970809C6
:100EE000E6970809E6970809E697B322080808EA92
:100EF000C0E0EBC0E086F0E7A4FA180986F0E7A4AA
:100F00002AFA180986F0E7A42AFA180986F0E7A455
:100F10002AFA1986F0E7A4FBE5F02AFA190886F008
:100F2000E7A42BFBE5F03AFA190886F0E7A42BFBBF
:100F3000E5F03AFA18180986F0E7A4C5F02BFBE4AF
:100F40003AFA1908E7C5F0C6A426F6E5F03BFBE43B
:100F50003AFA1886F0E7A4F6E5F00826F6E43B082E
:100F6000F6E43A08F6D0E0FBD0E0FA22E4CFC0E0A5
:100F7000E4CEC0E0E4CDC0E0E4CCC0E075F020C336
:100F8000E633F608E633F608E633F608E633F618F5
:100F90001818EC33FCED33FDEE33FEEF33FFC3ECFA
:100FA0009709ED9709EE9709EF97191919400FFF67
:100FB000EC97FC09ED97FD09EE97FE191906D5F09F
:100FC000BEECF709EDF709EEF709EFF7191919D09B
:100FD000E0FCD0E0FDD0E0FED0E0FF22181818E4DD
:100FE000C396F608E496F608E496F608E496F62228
:100FF0006016080808C6C313C618C613C618C61359
:10100000C618C613C6D5E0EA22700908080822608F
:1010100016181818C6C333C608C633C608C633C662
:1010200008C633C6D5E0EA22E627F60809E637F611
:101030000809E637F60809E637F622E026F608A39F
:10104000E036F608A3E036F608A3E036F622E026FE
:10105000F008A3E036F008A3E036F008A3E036F08D
:1010600022C3E697F60809E697F60809E697F60818
:1010700009E697F622C3E096F008A3E096F008A3ED
:10108000E096F008A3E096F022E657F60809E65746
:10109000F60809E657F60809E657F622E056F6087C
:1010A000A3E056F608A3E056F608A3E056F622E0C1
:1010B00056F008A3E056F008A3E056F008A3E05667
:1010C000F022E647F60809E647F60809E647F6087B
:1010D00009E647F622E0F608A3E0F608A3E0F608E2
:1010E000A3E0F622E6F008A3E6F008A3E6F008A3E2
:1010F000E6F022E0FAA3E0FBA3E0FCA3E0FD22EA95
:10110000F0A3EBF0A3ECF0A3EDF022CAC0E0E6F010
:10111000A308DAFAD0E0FA22CAC0E0E0A3C582CC84
:10112000C582C583CDC583F0A3C582CCC582C583E6
:10113000CDC583DAE6D0E0CA22C3E498F8E499F991
:1011400012117A8026C3E49AFAE49BFBE920E7E9CE
:1011500012117AE498F8E499F922C3E498F8E49932
:10116000F912117AE498F8E499F9C3E49AFAE49B45
:10117000FB22EB20E7CFE920E7E0B90010BB000835
:10118000E88AF084F8AAF022E4FBC8FA22EB702285
:101190007B10C833C8C933C9335007C39AC3DBF2C5
:1011A00080069A50012ADBEAC833F4C8C933F4C96F
:1011B000FA2275F008E4C833C8C933C933C99AC9DB
:1011C0009B5004C92AC93BD5F0ECFBC833F4C8E4F2
:1011D000C9FA22600D08C6A2E713C618C613C6D501
:1011E000E0F322600C08C6C313C618C613C6D5E0C8
:1011F000F422700422600D18C6C333C608C633C675
:10120000D5E0F41822251A10AF08F51A4002151B74
:101210008008F51A4002151BD2AF22C0D0251A1043
:10122000AF08F51A5002051B8008F51A5002051B7D
:10123000D2AFD0D022251AF58210AF08F51A40029D
:10124000151B8008F51A4002151BD2AF851B83229F
:10125000251AF582E4351BF58322E473251AC5822D
:10126000C0E0E51B34FFC583C0E0E51AC3958224C6
:10127000F810AF0885831B85821A800885831B853B
:10128000821AD2AFCEF0A3E520F0A3780AE608F0E8
:10129000A3DEFAEFF0A3E58124FAF8E608F0A3E66E
:1012A00008F0A3E608F0A30808E608F0A3E608F0B3
:1012B000A315811581D0E0FED0E0F81581158115C8
:1012C00081E8C0E0EEC0E022251AC582C0E0E51B3F
:1012D00034FFC583C0E0E51AC3958224F910AF0836
:1012E00085831B85821A800885831B85821AD2AF6D
:1012F000CEF0A3E520F0A3780AE608F0A3DEFAEF2B
:10130000F0A3E58124FBF8E608F0A3E608F0A308C3
:1013100008E608F0A3E608F0A315811581D0E0FEE9
:10132000D0E0F815811581E8C0E0EEC0E022851B11
:1013300083851A82E0A3FEE0A3F520780AE0A3F6F5
:1013400008DFFAE0A3FFE0A3C0E0E0A3C0E0E0A371
:10135000C0E0E0A3C0E0E0A3C0E010AF0885821ABF
:1013600085831B800885821A85831BD2AFD083D0EA
:1013700082020D87851B83851A82E0A3FEE0A3F518
:1013800020780AE0A3F608DFFAE0A3FFE0A3C0E0BC
:10139000E0A3C0E0E0A3C0E0E0A3C0E010AF088598
:1013A000821A85831B800885821A85831BD2AFD061
:1013B00083D08222C0D0251AC582C0E0E51B34FF4D
:1013C000C583C0E0E51AC3958224F310AF08858376
:1013D0001B85821A800885831B85821AD2AFC8F0CC
:1013E000A3E9F0A3EAF0A3EBF0A3790AE709F0A3DD
:1013F000D8FAECF0A3EDF0A3EEF0A3EFF0A3D0E069
:10140000F0A3D0E0F0A3D0E0F0A3E520F0A3E5F056
:10141000F0A322851B83851A82E0C0E0A3E0F9A334
:10142000E0FAA3E0FBA3780AE0F608A3DFFAE0FC09
:10143000A3E0FDA3E0FEA3E0FFA3E0C0E0A3E0C0C3
:10144000E0A3E0F5D0A3E0F520A3E0A3F5F010AF12
:101450000885831B85821A800885831B85821AD2A2
:10146000AFD082D083D0E0F8D0E03274048006742C
:101470000280027401C0E0F404121235D0E01211AF
:101480000B227404800474028000CCC0E0EDC0E044
:10149000E51AC39CCCAD1B50011D10AF068C1A8DF4
:1014A0001B80068C1A8D1BD2AF121118D0E0FDD014
:1014B000E0FC22D083D082E9C0E0E493A3C386F0AD
:1014C000C5F095F0F908E493A386F0C5F095F070A7
:1014D0000BE493A3C3994005E9048002A3E475F0EB
:1014E00002A42582F582E5F03583F583D0E0F9E4A6
:1014F00093A3C0E0E493C0E022D083D082ECC0E0AC
:10150000EDC0E0E493A3FCE493A3FDED4C600D1269
:101510001545EC24FFFCED34FFFD80EFE493A3FCC4
:10152000E493A3FDED4C600D121584EC24FFFCED5B
:1015300034FFFD80EFD0E0FDD0E0FCE493A3C0E0F9
:10154000E493C0E022C0E0C3E4939608740193964C
:1015500018400FE4936670080874019366187000D1
:101560007019A3A3C3E49396087401939618A3A3D8
:10157000400DD0E0D0E0D0E0021535A3A3A3A3A393
:10158000A3D0E022C0E0C0F088F0E49366700808C1
:1015900074019366187000A8F0A3A3700BD0F0D06C
:1015A000E0D0E0D0E0021535A3A3D0F0D0E022FFD8
:1015B00074F51212C8EAFEEBFFEE2434F8EF3400A3
:1015C000F9880A890BEE2435F582EF3400F583E0C3
:1015D000F8EE2437F582EF3400F583E0F50CEC8566
:1015E0000CF0A4FCAAF0850CF0EDA42AFDE82CF880
:1015F000E43DF97A257B0012117AEA850A82850B8F
:1016000083F0F8740758F97401B900028004C333F9
:10161000D9FCFAE8131313541FF8EE28F8EF34003E
:10162000F9E8245DF582E93400F583E05A6008EEBC
:101630002434F582EF802CEE2434F582EF3400F56B
:1016400083E0C0E0EE2436F582EF3400F583E0F568
:10165000F0D0E084A8F0EE28F8EF3400F9E8243860
:10166000F582E93400F583E0F97F0402137474F520
:101670001212C8EAFEEBFFEE2434F582EF3400F5D7
:1016800083E0C0E0EE2435F582EF3400F583D0E04E
:10169000F08E828F83A3A3A3A3A3A3A3C082C0833E
:1016A0008E828F83A3A3A3A3A3E0F8A3E0F9D08342
:1016B000D082E0C398F50AA3E099F50BEE247FF5FC
:1016C00082EF3400F583E064017069EE2480F582D6
:1016D000EF3400F583E0F8A3E0F98E828F83A3A3B3
:1016E000A3A3A3A3A3E0FCA3E0FD8E828F83A3A307
:1016F000A3A3A3E0FAA3E0FBC3EA9CEB9D5010C3B5
:10170000EC98ED99402EC3EA98EB995027800EC3D0
:10171000EA98EB994007C3EC98ED9940177CDB7D84
:1017200004EEFAEFFB1228FAEE247FF582EF340084
:10173000F583E4F0EE2434F8EF3400F9E8FCE9FD39
:10174000EE2435F582EF3400F583E0F8EE2437F52A
:1017500082EF3400F583E0F50CE50A850CF0A4F582
:101760000AAAF0850CF0E50BA42AF50BE8250AF887
:10177000E4350BF97A257B0012117AEA8C828D838D
:10178000F0F8740758F97401B900028004C333D922
:10179000FCFAE8131313541FF8EE28F8EF3400F99D
:1017A000E8245DF582E93400F583E05A6008EE2410
:1017B00034F582EF802CEE2434F582EF3400F5838B
:1017C000E0C0E0EE2436F582EF3400F583E0F5F07A
:1017D000D0E084A8F0EE28F8EF3400F9E82438F5DA
:1017E00082E93400F583E0F91220C5021669C0824F
:1017F000C083851A82851B83E0F8A3E0F9C3EA9CC5
:10180000EB9D5010C3EC98ED99401BC3EA98EB99FF
:101810005014800EC3EA98EB994007C3EC98ED99F9
:101820004004790180027900D083D08222EAC39CEF
:10183000FAEB9DFB2274EF1212C89003A1E064083A
:101840006005E06407702A9061C8E060249003CFCF
:10185000E0F4601DE0F875F003A4C8AAF02AF9745A
:10186000D128FE740339FF8E828F83A3A3A3E07077
:1018700003021965906060E0C0E0EE2468F582EF35
:101880003400F583D0E0F0750E44750F05750A003D
:10189000750B00E5D914F50CE5D95403F510601764
:1018A00074036510605CE50C6010EE2467F582EF50
:1018B0003400F583E0700302194A90053FE06401AB
:1018C000602AEE2482F582EF3400F583E06004782C
:1018D0000480027800850C0AE50AC398FA95E0FBBB
:1018E0001227C88A0A8B0BEA450B7005122AEC8076
:1018F00074EE2482F582EF3400F583E070048A0EE2
:101900008B0FE50C6012850E82850F83F50DE5D9EE
:10191000F0A3150DE50D70F6EE2482F582EF34008C
:10192000F583E0604474FC250CF50C780E12146FFE
:10193000AC0CA910EEFAEFFB122996740212121BDE
:10194000E97026AA0AAB0B1230E0793D8E828F83B4
:10195000A3A3A3A3E0FA7B0012269CEEFAEFFB12EE
:1019600029121229A87900807474036510605685C5
:101970000C12751300781212146FAC0EAD0FAA0A78
:10198000AB0B122972740212121BEE2468F582EF5F
:101990003400F583E064807004747F8001E0F50E0C
:1019A000780E121473E510F50E780E121473A90C4C
:1019B000AC0AAD0B9003CFE0FA7B001226607402F4
:1019C00012121B80139003A1E06408600BAC0EADF3
:1019D0000FEEFAEFFB122A02122AF879017F0A02AF
:1019E000137474F51212C874FC121205EAFEEBFFB0
:1019F000890AA2AFE433F50BC2AF806AEE2463F824
:101A0000EF3400F97A007B00A2AFE433F50CC2AFEB
:101A100088828983E0FCA3E0FDEC4D603A888289EE
:101A200083E0FAA3E0FB8A828B83E0FCA3E0FD88DD
:101A3000828983ECF0A3EDF08A828B83E4F0A3F03B
:101A400088828983E0FCA3E0FDEC4D700A888289DE
:101A500083A3A3E4F0A3F0E50CA2E092AF1230E080
:101A60009004E2E004F0EE2463F582EF3400F583A5
:101A7000E0F8A3E0F9E849603DEE2463F582EF3435
:101A800000F583E02402FAA3E03400FBEA2402F527
:101A90000CEB3400F50D780C12146F8A828B83E006
:101AA000FCA3E0F9EEFAEFFB122936740212121BC6
:101AB000E970030219FC9004E2E060639004E3E043
:101AC000F89004E2E0C398500C7402650A705090DC
:101AD00004E4E0604A8E828F83A3A3A3A3E0851A67
:101AE00082851B83F0A3E4F09004E2E0F874021214
:101AF0001250E8F0A3E4F09004E2E0F89004E1E092
:101B000028F07402121250AC82AD83851A82851BB4
:101B100083AA82AB83790112266C9004E2E4F0E59B
:101B20000BA2E092AF740412121B021669FFFFFFB2
:101B30008521878522C622C0E0C0D0E8C0E0E9C088
:101B4000E0EAC0E0EBC0E0ECC0E0EDC0E0EEC0E0F9
:101B5000C00AC00BC00CC00DC082C083C0F0A2AFD1
:101B6000E433FEC2AF759B00906182E0A2E05012A8
:101B7000E591A2E0500C7591FE740165217003128D
:101B80001835E0A2E55051E591A2E5504B7591DF83
:101B90009003A1E064076005E064087023740165A8
:101BA00021703579019003CFE0FA75F003A4CAA83B
:101BB000F028FB74D12AFA74033BFB1219E2801857
:101BC000E0640D70139003C3E004F064287002E435
:101BD000F07A00E0F9122AFE906182E0A2E640036A
:101BE000021C7EE591A2E64003021C7E7591BF9027
:101BF00003A1E064057008122A2C122A388003120F
:101C00002A32752100122A8CE99003A2F079001281
:101C10002A801228707A017B009003A0E0F9122D2F
:101C200056907803E064427055900543E014F070DC
:101C30004DC2AF121C3600782AD0E0F618D0E0F67C
:101C4000E59F54077005750BFF8003750B7FC4C0BB
:101C5000E07829E6F50A08E6550BF50B740B780ACF
:101C60001211E3D0E0250AF8906270E0A2E740F894
:101C7000E8C333906272F0906270E0D2E0F090615D
:101C800081E0A2E35009E5E9A2E3500375E9F7A377
:101C9000E0A2E75009E591A2E7500375917FEEA21B
:101CA000E092AFD0F0D083D082D00DD00CD00BD04A
:101CB0000AD0E0FED0E0FDD0E0FCD0E0FBD0E0FABE
:101CC000D0E0F9D0E0F8D0D0D0E032C0E0C0D0C051
:101CD00082C083906183E0A2E05009E5BFA2E0509A
:101CE0000375BFFEE0A2E15009E5BFA2E150037514
:101CF000BFFDE0A2E25009E5BFA2E2500375BFFBC1
:101D0000E0A2E35009E5BFA2E3500375BFF7E0A2EC
:101D1000E45009E5BFA2E4500375BFEFE0A2E5502F
:101D200009E5BFA2E5500375BFDFE0A2E65009E573
:101D3000BFA2E6500375BFBFD083D0828088C0E0C9
:101D4000C0D0E8C0E0E9C0E0EAC0E0EBC0E0ECC031
:101D5000E0EDC0E0C0F0E5A7A2E6500FE5A1A2E6E5
:101D6000500953A7BF75A1BF121DA3E5A7A2E55057
:101D70000CE5A1A2E5500653A7DF75A1DFE5A7A2F8
:101D8000E15009E5A1A2E1500375A1FDE5A7A2E29A
:101D9000500CE5A1A2E2500653A7FB75A1FBD0F0C1
:101DA000021CB474F81212C87521019003A1E064FA
:101DB0000670151229C68A828B83A3A3A3A3A3A3AB
:101DC000E0FAA3E0FB122A1AA2AFE433FED2AF90EE
:101DD00003A7E0640170187A207B009003A0E0F96B
:101DE000122DE07A207B009003A0E0F9122D5C9088
:101DF0006182E0D2E6F0900540E0602185C6228055
:101E0000169003A6E064017008E5C654F84405F591
:101E1000C653BEFC121B307401652160E4EEA2E0E3
:101E200092AF7F01021374FF8E238F248582288551
:101E30008327851A82851B83E0CEA3E0CF85288285
:101E4000852783EBC9EAC8EDCBECCA75F010C3E86F
:101E500033C8E933C9EA33CAEB33CBC3EA9EF5266C
:101E6000EB9FF525B35004AB25AA26EC33CCED331C
:101E7000CDD5F0DAAE23AF242274ED1212C88A0A4F
:101E80008B0B8C0C8D0D7413121250780E1210D512
:101E9000780A790E120DB47512017513C875140005
:101EA0007515005012780A790E1210617812790AAD
:101EB000120DB450168010780E790A121061781243
:101EC000790E120DB440047901800279007F0C0272
:101ED000137474ED1212C88A0A8B0B8C0C8D0D745E
:101EE00013121250780E1210D5780E790A120DB412
:101EF0004011780A790E121061AA0AAB0BAC0CAD36
:101F00000D80227512007513007514007515017887
:101F100012790E1210617812790A121028AA12ABE7
:101F200013AC14AD1580A68A828B83750AFF750BDE
:101F3000FF750CFF750D00780A1210AF7F040213B5
:101F40007474F51212C88C828D83780A1210D58AA7
:101F5000828B83780A121075EA2404F8EB3400F9B6
:101F60008C828D83A3A3A3A3E0FCA3E0FD888289D8
:101F700083C3E09CF0A3E09DF088828983C3E09452
:101F800020A3E0944E40268A828B83750AFF750B4E
:101F9000FF750CFF750DFF780A12104E8A828B8335
:101FA000A3A3A3A3E02420F0A3E0344EF0021F2754
:101FB00074F51212C8E9FE9004F6E0FAA3E0FBEE15
:101FC000C333F8E433F9743228F582748139F58328
:101FD000E02AF50AA3E03BF50B780A12146F7A4069
:101FE0007B427C0F7D00121E28740212121B8A0A8B
:101FF0008B0B8C0C8D0D7410780A120FF0AA0AABA3
:102000000B7F0402137474F11212C88A0E8B0F8CAA
:10201000108D11740F121250E0FAA3E0FB7411122C
:102020001250E0F50AA3E0F50B780A12146FEA24C7
:1020300001F50AEB3400F50BE4F50CF50D780E799B
:102040000A120EEC750A71750B02780E790A120EDF
:10205000ECAA0EAB0FAC10AD11121E2874021212B6
:102060001B8B0BEA450B60047A0180027A00EC2A94
:10207000FCED3400FD7413121250E0F8A3E0F9E80F
:10208000FEE9FFECF8EDF97A717B0212117A880A09
:10209000890B8E828F83780A1210E4ECF8EDF97ABE
:1020A000717B0212117A8A0A8B0B7405780A12115D
:1020B000F28E828F83A3A3A3A3E50AF0A3E50BF01E
:1020C0007F08021374C082C083E9906000F0D0835F
:1020D000D08222C2AF02000022C0E074F21213B418
:1020E000A2AFE433FED2AFC2C0E5D1A2E4500653A2
:1020F000D1EF123086EEA2E092AF7F01021413C03E
:10210000E074F21213B4A2AFE433FED2AFE589A2B9
:10211000E15003123002758900C2C5EEA2E092AF11
:102120007F01021413C0E074F21213B4A2AFE433BF
:10213000FED2AFE58BA2E05003123002758B00C2D5
:10214000E880D8C0E0C0D0E8C0E0E9C0E0E5A8D2AF
:10215000AFC2C7A2E7A2E792AFD0E0F9D0E0F8D0D3
:10216000D0D0E032C0E0C0D0E8C0E0E9C0E0C00AB2
:10217000C00BC082C083A2AFE433F9D2AF900898FD
:10218000E0F8A3E0687008539AFBA374018026C2AC
:10219000E9900898E0F50A7401250AF07494250A7C
:1021A000F58274083400F583E0F5C1900898E0C327
:1021B00094044002E4F0E9A2E092AFD083D082D050
:1021C0000BD00AD0E0F9D0E0F8D0D0D0E032120D38
:1021D0008A1AB907120D8A31B907120D8A62B90736
:1021E000120D8A9DB907120D8AC7B907120D8AF11F
:1021F000B907120D8A08BA07120D8A1FBA07120D05
:102200008A36BA07120D8A5FBA07120D8A72BA07A8
:10221000120D8A88BA07120D8A9BBA07120D8AC25C
:10222000BA07120D8A44C106120D8A48C206120D61
:102230008A80C206120D8AA3C206120D8AAEC20699
:10224000120D8AD1C206120D8AE0C306120D8AB59C
:10225000C406120D8A30C506120D8AB8C506120DC5
:102260008AF3C506120D8A2AC606120D8AB8C6065A
:10227000120D8A91C706120D8AF1C706120D8AFC4B
:10228000C706120D8A7BC806120D8A7EC806120D7B
:102290008A81C806120D8A10C906120D8A13C90652
:1022A000120D8A43C906120D8A6DC906120D8A5B8A
:1022B000CA06120D8A0DCB06120D8A01FB04120DFF
:1022C0008A29FB04120D8A57FB04120D8A8EFB0427
:1022D000120D8AECFB04120D8A37FC04120D8A825F
:1022E000FC04120D8AC2FC04120D8A08FD04120DB2
:1022F0008A36FD04120D8AF3FD04120D8AFDFD04D9
:10230000120D8A0AFE04120D8A3DFE04120D8A097E
:10231000FF04120D8A15FF04120D8A2DFF04120D01
:102320008A37FF04120D8A02C407120D8A10C407EF
:10233000120D8A28C407120D8A40C407120D8AFFA5
:10234000E005120D8AABE105120D8A26E205120D99
:102350008A47E305120D8A83E305120D8A2CE405F2
:10236000120D8A13E505120D8A77E605120D8ACE45
:10237000E605120D8A4FE705120D8A3FE805120D9A
:102380008A8CE805120D8A12E905120D8A44E905C6
:10239000120D8A58EB05120D8A9AEB05120D8AB8B8
:1023A000EB05120D8A3BEC05120D8A0FED05120D9F
:1023B0008AD7ED05120D8ACBF406120D8A9EF5061A
:1023C000120D8A47F606120D8A9AF606120D8A4AEF
:1023D000F706120D8AD6F706120D8AC2F806120DFC
:1023E0008AF1F806120D8A04FA06120D8A4CFA06D2
:1023F000120D8A21FB06120D8A5DFB06120D8A79E9
:10240000FB06120D8A5EC707120D8AEEFB06120D3F
:102410008A04FC06120D8A2AFC06120D8A46FD0665
:10242000120D8A50FD06120D8A85FE06120D8A7D58
:10243000FF06120D8A3C8C07120D8A6C8D07120D57
:102440008A9F8D07120D8AE98D07120D8AB08F07BA
:10245000120D8AADC105120D8A17C205120D8A76BA
:10246000C305120D8A86C305120D8AB3C305120D6A
:102470008A0AC405120D8AB3C405120D8ABAC505AD
:10248000120D8A84C605120D8AE4C705120D8A272B
:10249000C805120D8ACCC805120D8A19C905120D7E
:1024A0008A3FC905120D8A4DCB05120D8A52CB0504
:1024B000120D8A57CD05120D8AA4CD05120D8A176B
:1024C000CE05120D8A4ACE05120D8AECCE05120DEC
:1024D0008A95CF05120D8ACDCF05120D8AD0CF0572
:1024E000120D8A18D005120D8A58D005120D8AAF28
:1024F000D005120D8A7FAC07120D8A97AC07120D1A
:102500008ADFAC07120D8AF5AC07120D8A3CAD07C5
:10251000120D8A50AE07120D8ADDAE07120D8A2801
:10252000AF07120D8A00B004120D8A0CB004120D10
:102530008A47B004120D8A8CB004120D8A4CB10483
:10254000120D8AD2B104120D8A37B204120D8A63B9
:10255000B204120D8A9CB204120D8ADAB404120D70
:102560008ABEB604120D8AA4B804120D8AE7B90413
:10257000120D8A35BC04120D8A47BD04120D8A92D1
:10258000BE04120D8AA2BF04120D8ABFBF04120D31
:102590008AFABF04120D8A1CC004120D8A7FC0047F
:1025A000120D8A40C504120D8AD5C504120D8A2663
:1025B000C604120D8A4DC604120D8A9FC604120D60
:1025C0008ABDC604120D8A17C704120D8A00C804FA
:1025D000120D8A76C904120D8AFAC904120D8A6393
:1025E0009107120D8A6D9107120D8AB09107120D95
:1025F0008ACB9107120D8A5B9207120D8A8392078C
:10260000120D8AC09207120D8AF79207120D8A20C6
:102610009307120D8A959307120D8AAA9307120D3C
:102620008ABF9307120D8AF09307120D8A0494074C
:10263000120D8A299407120D8A639407120D8A8F4E
:102640009407120D8A1B9507120D8A469507120DE5
:102650008A8F9507120D8AB99507120D8AE495079E
:10266000120D8ADDC007120D8A43A906120D8A7168
:10267000A906120D8ABFAA06120D8A9FAB06120D7B
:102680008ABEAB06120D8A3BAC06120D8A7EAC06E2
:10269000120D8AD4AD06120D8A95AE06120D8A1C53
:1026A000B106120D8ABDB106120D8AB3B206120D23
:1026B0008AB0B306120D8A0AB506120D8A95B506C0
:1026C000120D8A82BF07120D8AEBBF07120D8A3FD7
:1026D000C007120D8A66C007120D8A97C007120D37
:1026E0008A0C9607120D8A799607120D8AC09607F2
:1026F000120D8AD89707120D8AD49807120D8AB73F
:102700009907120D8A4DD406120D8A8FD406120D28
:102710008A61D506120D8A3AD606120D8A34D7067A
:10272000120D8A16D806120D8A7FD806120D8A3528
:10273000D906120D8AA9D906120D8A15DA06120DCC
:102740008A3EDA06120D8AB8DA06120D8A51DB06C5
:10275000120D8AB6DB06120D8ACBDB06120D8A112A
:10276000DC06120D8A2ADC06120D8A8FDC06120D99
:102770008A92DC06120D8A86A907120D8AAEA90775
:10278000120D8AECA907120D8AAAAA07120D8A1146
:10279000AB07120D8A2DAB07120D8A55AB07120D30
:1027A0008A85AB07120D8A94AB07120D8A11AC070C
:1027B000120D8A37AC07120D8A9CD105120D8A7A48
:1027C000D305120D8AACD505120D8AE8D505120D78
:1027D0008A15D605120D8AFFD605120D8A4AD7052D
:1027E000120D8A95D705120D8AA7D705120D8AE713
:1027F000D705120D8A1CD805120D8A6AD805120D4C
:102800008A99D805120D8ABCD805120D8A09D905F6
:10281000120D8A8ED905120D8AA8DB05120D8AE7E2
:10282000DD05120D8A28DE05120D8ACADF05120D9C
:102830008A0BE005120D8A7EE005120D8AD4E005B0
:10284000120D8A2E9C06120D8A2C9D06120D8AC529
:10285000A306120D8AE6A506120D8AB1A706120D6F
:102860008A19A906120D8A26E304120D8AD5E304FB
:10287000120D8A1BE404120D8A5BE504120D8AF125
:10288000E604120D8A6BE704120D8A86E704120D26
:102890008A01E804120D8A5BE904120D8ABBEA047E
:1028A000120D8AC1EB04120D8A22ED04120D8A3B2F
:1028B000ED04120D8A99ED04120D8A87EE04120DB3
:1028C0008ABAEE04120D8A2AEF04120D8AA4EF04CC
:1028D000120D8AEEEF04120D8AB8F004120D8A8DE3
:1028E000F104120D8A6CF204120D8AF7F204120D33
:1028F0008A65F304120D8AD9F304120D8A04F404D4
:10290000120D8AC3F404120D8A28F604120D8A45AA
:10291000F604120D8A64F604120D8A55F704120D9E
:102920008A7AF704120D8AA4F704120D8A1FF8049C
:10293000120D8A79F804120D8AE2F904120D8A90B8
:10294000FA04120D8AD1FA04120D8A143200120D03
:102950008A623200120D8A6E3200120D8A4C3300E8
:10296000120D8A7D3300120D8AAE3300120D8A2EAD
:102970003400120D8A663400120D8AB83400120D2C
:102980008AF53400120D8A123700120D8A38390088
:10299000120D8A233B00120D8A0D3D00120D8AF4A0
:1029A000FF04120D8A9AAD05120D8ACAAD05120DEB
:1029B0008AA3B405120D8A28B605120D8A25BC0516
:1029C000120D8A0DBD05120D8A4ABD05120D8A6DC4
:1029D000BD05120D8A9EBD05120D8AA7BD05120DFB
:1029E0008AB1BD05120D8A9FBE05120D8A95BF05DD
:1029F000120D8A8B9805120D8A8A9C05120D8A90F9
:102A00009C05120D8ACBA305120D8AE4A805120DB0
:102A10008A3FA607120D8A39A707120D8AADA707AC
:102A2000120D8AEBA707120D8A5FA807120D8AD82C
:102A3000A807120D8AE1A807120D8AEDA807120D4A
:102A40008A02A907120D8A40A907120D8A56A90702
:102A5000120D8A799A07120D8A869A07120D8AA09A
:102A60009A07120D8ADF9A07120D8A1D9B07120D15
:102A70008A829B07120D8A979B07120D8AA29B07D9
:102A8000120D8AAF9B07120D8AC69B07120D8AD4BE
:102A90009B07120D8ADF9B07120D8AEB9B07120D15
:102AA0008AFA9B07120D8A059C07120D8A289C073B
:102AB000120D8ACF9C07120D8ADF9C07120D8AF92E
:102AC0009C07120D8A169D07120D8A329D07120D62
:102AD0008A579D07120D8A629D07120D8A779D07FE
:102AE000120D8A8B9D07120D8AEC9D07120D8AF23A
:102AF0009D07120D8AF89D07120D8AFE9D07120D83
:102B00008A169E07120D8A499E07120D8A058006B5
:102B1000120D8A898006120D8A388106120D8A9755
:102B20008206120D8AB88406120D8AA48506120D3B
:102B30008AD98506120D8AFB8506120D8AAA860699
:102B4000120D8AA28806120D8ACB8806120D8A5DA4
:102B50008906120D8A8F8906120D8A9C8906120D2C
:102B60008AF38906120D8A198A06120D8A868C0646
:102B7000120D8A898D06120D8AE18D06120D8AF0DA
:102B8000EF05120D8AFAF005120D8AE1F105120D1A
:102B90008AEBF105120D8A0DF205120D8A19F20564
:102BA000120D8AB2F305120D8AE1F305120D8AFDAA
:102BB000F405120D8A56F505120D8ABCF605120DA4
:102BC0008A9BF705120D8AF7F705120D8A64F8053E
:102BD000120D8A9FF805120D8ADEF805120D8A97EC
:102BE000FB05120D8AB1FB05120D8A3DFC05120D85
:102BF0008A4BFC05120D8AA4FC05120D8AB2FC0555
:102C0000120D8A25FD05120D8A89FD05120D8AD344
:102C1000FD05120D8A16B606120D8A38B606120D7B
:102C20008A5EB806120D8A73BB06120D8A8BBC062B
:102C3000120D8A3EBD06120D8A20BE06120D8AD4E0
:102C4000BA07120D8AF9BA07120D8A6BBB07120D6B
:102C50008A51ED06120D8A5AED06120D8A63ED06B1
:102C6000120D8A3AEE06120D8AEBEF06120D8A213A
:102C7000F006120D8A5BF006120D8A91F006120D15
:102C80008ACBF006120D8AFFF006120D8A2BF10690
:102C9000120D8A74F106120D8AAEF106120D8AF732
:102CA000F106120D8A4FF206120D8A84F206120DF9
:102CB0008ADFF206120D8A19F306120D8A6AF306EC
:102CC000120D8AA0F306120D8ADAF306120D8A0895
:102CD000F406120D8A2BF406120D8A8FC507120D09
:102CE0008ABBC507120D8A16C607120D8A20C607B1
:102CF000120D8A30C607120D8AB6DC06120D8AC084
:102D0000DC06120D8AFEDC06120D8A47DD06120D66
:102D10008A81DD06120D8ADBDD06120D8AFCDD06D6
:102D2000120D8AD4E006120D8ADDE006120D8A2A01
:102D3000E106120D8A53E106120D8A5DE106120DBD
:102D40008AC9E106120D8A5BE206120D8AA5E20627
:102D5000120D8ADBE206120D8A67E306120D8AA8BD
:102D6000E306120D8ADFE306120D8AF1E306120D67
:102D70008A10E406120D8A19E406120D8AE1E406AF
:102D8000120D8AF6C107120D8AEDC207120D8A29AB
:102D9000B707120D8A5FB707120D8A95B707120D94
:102DA0008AE0B807120D8A87FF06120D8A9DFF067A
:102DB000120D8AA7FF06120D8AE2C707120D8AC6F6
:102DC0009E07120D8ADB9E07120D8A8E9F07120D39
:102DD0008ACE9F07120D8AE79F07120D8A22A0074D
:102DE000120D8A6FA007120D8AA1A007120D8AE3A7
:102DF000A007120D8A79BC07120D8AA2BC07120D1A
:102E00008AD1BC07120D8A69BD07120D8A81BD07E0
:102E1000120D8AC3BD07120D8A61CA04120D8ABB46
:102E2000CA04120D8A68CB04120D8A62CC04120DFA
:102E30008A0DCD04120D8A16CE04120D8A34CE04EA
:102E4000120D8A1ACF04120D8A39CF04120D8AD1BD
:102E5000CF04120D8AC9D004120D8A1CD104120DA0
:102E60008A6AD104120D8A47D204120D8A9CD604B4
:102E7000120D8A3CD704120D8A11D804120D8A6BE8
:102E8000D804120D8AA1D804120D8A20D904120D7B
:102E90008AACD904120D8A21DA04120D8ACFDA0421
:102EA000120D8AE7DA04120D8A15DB04120D8A412D
:102EB000DB04120D8A46DC04120D8A90DE04120D2A
:102EC0008A8CE004120D8AC0E104120D8AD8E20453
:102ED000120D8AE6E204120D8A52AF07120D8A77AC
:102EE000AF07120D8AA1AF07120D8A41C807120D54
:102EF0008AF58205120D8A5A8505120D8AFB860510
:102F0000120D8AAF8705120D8A428805120D8AC7F5
:102F10008805120D8AEC8805120D8A428C05120D67
:102F20008AC88C05120D8AFB8D05120D8A358E0517
:102F3000120D8A6A8E05120D8A2A9005120D8A8753
:102F40009005120D8AD09005120D8A3B9105120D45
:102F50008AAC9105120D8ADE9105120D8AF6910553
:102F6000120D8A3F9305120D8A4F9305120D8A6A3E
:102F70009405120D8A8C9405120D8AC29405120DC7
:102F80008A769605120D8A039705120D8A429705D7
:102F9000120D8A669805120D8AD9C407120D8AEAA5
:102FA000C407120D8AEAC807120D8A29C907120D33
:102FB0008AE83F00120D8AF33F00120D8AA5C90767
:102FC000120D8A3AC607120D8A4AC607120D8A6286
:102FD000C607120D8AC8C607120D8AFEC207120D57
:102FE0008A83C307120D8AE9C307120D8A08BE0738
:102FF000120D8A31BE07120D8A9CBE07120D8AED92
:10300000BE07120D8A48BF07120D8AEEA207120DE5
:103010008A03A307120D8A2EA407120D8AAAA407F9
:10302000120D8A1EA507120D8A38A507120D8A4FA8
:10303000A507120D8A62A507120D8A7CA507120D3D
:103040008A93A507120D8AB9A507120D8A0AA60749
:10305000120D8AB8C907120D8A1EB207120D8AAE68
:10306000B207120D8A1EB307120D8AAFB307120DF5
:103070008AB8B307120D8A36B407120D8A6EB407E8
:10308000120D8ACEB407120D8AE1B407120D8AD24E
:10309000C607120D8A41C707120D8A53C707120DC2
:1030A0008A008007120D8A3D8007120D8A5880071A
:1030B000120D8A298107120D8A178207120D8A7F45
:1030C0008307120D8AF18307120D8AD98407120D26
:1030D0008A608507120D8A798607120D8A5CFE05C3
:1030E000120D8AAEFE05120D8A38FF05120D8A9F59
:1030F000FF05120D8AE4B407120D8A0EB507120DF2
:103100008ADCB507120D8AB7B607120D8A0FE506DD
:10311000120D8AD6E506120D8A0DE606120D8A37C3
:10312000E606120D8A97E606120D8AEDE606120DE6
:103130008A52E706120D8AEAE706120D8AF9E806B6
:10314000120D8A90EA06120D8A1DEB06120D8A8472
:10315000EB06120D8A9BEB06120D8AB5EC06120DDA
:103160008AF3EC06120D8A2F8E06120D8AB0910694
:10317000120D8A389306120D8A8F9306120D8AAEAD
:103180009306120D8A2C9406120D8AC29506120D12
:103190008AA79606120D8AB59A06120D8A8B9B068F
:1031A000120D8A7ECB06120D8A55CF06120D8A2883
:1031B000D006120D8A5CD106120D8A7CD206120D41
:1031C0008AB2D306120D8A39D406120D8ABD86073B
:1031D000120D8A0D8707120D8A2A8707120D8A9F02
:1031E0008807120D8A158907120D8A038A07120DA6
:1031F0008A038C07120D8A33C907120D8ABEFF0499
:10320000120D8A5FC907120D8A87C907FFFFFFFFEA
:10321000FFFFFFFF74F612125CE9FE74FF2EF50A41
:1032200004C313FE6039EA250AFCEB3400FDEAF81A
:10323000EBF9EEFF88828983E0FA8C828D83E08847
:10324000828983F0EA8C828D83F088828983A3A8A7
:1032500082A983EC24FFED34FF1CFD1FEF70D50223
:10326000370DC082C08390618FE0F902342774F774
:1032700012125C74FE121205E9FE70057912023317
:103280004253B4F390619A743FF0A3745AF0906182
:10329000A0E4F0906184F0E5E170FC75E1027F004C
:1032A0009061BFE070070FEFC394FA40F374FA6FB8
:1032B000603E7F009061BFE0851A82851B83F0909D
:1032C00061BFE0F87401121250E8F0851A82851B84
:1032D00083E0FCE8F9ECF849600A74036870037451
:1032E000806970070FEFC394FA40C974FA6F7004D5
:1032F000791F804EEAF8EBF9EEFF9061BFE0F5BD73
:10330000E0F5BDE0F5BDE0F5BDE0F5BDE0F5BDE003
:10331000F5BDE0F5BDE5BC88828983F0A3A882A94C
:10332000831FEF70D5E5E170FC75E10174011212A5
:1033300050E0F5BC851A82851B83E0F5BC12286439
:103340007900740212121B7F0102132EC082C08307
:103350007864790588828983E08A828B83F0888209
:103360008983A3A882A9838A828B83A3AA82AB8341
:10337000E8646C7003E9640570DA023427C082C027
:1033800083786C790588828983E08A828B83F088D0
:10339000828983A3A882A9838A828B83A3AA82AB12
:1033A00083E864707003E9640570DA023427C08230
:1033B000C083E5B3548F4440F5B3EB900861F0EA65
:1033C000A3F09008667410F0900865E054E0F053A4
:1033D000D1FD75D602E5B354F84404F5B343B30107
:1033E000E5B3A2E350FAED900861F0ECA3F0851A82
:1033F00082851B83E0F8A3E090086BF0E8A3F090CF
:10340000086E7410F090086DE054E0F053D1FD5355
:10341000D1FB75D60275D60453B3F843B301E5B3B7
:10342000A2E350FA8001F0D083D082020D87C082DF
:10343000C0839008637470F0A374B1F0A3E0541FCC
:10344000F0900867741DF0A37442F0A37470F0A3A9
:1034500074B2F090086DE0541FF090086F741EF085
:10346000A37412023426C082C083EA6C7002EB6D32
:10347000604390085DE0541FF090085F7420F0A353
:103480007452F0ED900859F0ECA3F0EBA3F0EAA32E
:10349000F0851A82851B83E0F8A3E0F9E890085EC6
:1034A000F0E990085DF053D1FE75D60175D701E5BE
:1034B000D1A2E050FA023427C082C083E5B3548F12
:1034C0004450F5B37480900861F07450A3F09008F4
:1034D000667410F0900865E054E0F053D1FD75D6A5
:1034E00002E5B354F84406F5B343B301E5B3A2E3F0
:1034F00050FA02342774F612125C74E0121205E9D5
:10350000FE740F5E6004780180027800EEC4540FF0
:1035100028FF851A82851B83E58264507004E58349
:103520006480604790085DE0541FF090085F74204D
:10353000F0A37452F07480900859F07450A3F08591
:103540001B83E58390085BF0851A82E58290085C16
:10355000F090085E7410F090085DE4F053D1FE75B1
:10356000D60175D701E5D1A2E050FA851A82851BF4
:10357000837401F0121250E5826A7003E5836B6078
:103580004990085DE0541FF090085F7420F0A37428
:1035900052F0EB900859F0EAA3F07401121250E5D2
:1035A0008390085BF07401121250E58290085CF081
:1035B00090085E740DF090085DE4F053D1FE75D66E
:1035C0000175D701E5D1A2E050FAE5B3548F44105C
:1035D000F5B3851B83E583900861F0851A82E58247
:1035E000900862F09008667410F0900865E054E06E
:1035F000F053D1FD75D602E5B354F84406F5B34354
:10360000B301E5B3A2E350FA742A121250E0F8A312
:10361000E0900861F0E8A3F07410121250E5839076
:10362000086BF07410121250E58290086CF090084C
:103630006E7410F090086DE054E0F053D1FD53D15A
:10364000FB75D60275D60453B3F843B301E5B3A2B4
:10365000E350FA740F1212507401F0E5B3548F4422
:1036600030F5B3851B83E583900861F0851A82E508
:1036700082900862F053D1FD75D602E5B354F84448
:1036800006F5B343B301E5B3A2E350FAEDF89008B1
:1036900061F0ECF9A3F0EFC454F0FA900866F0E89A
:1036A00090086BF0E9A3F0EA90086EF053D1FD5357
:1036B000D1FB75D60275D604EF6011FA53B3F84307
:1036C000B3011AE5B3A2E350FAEA70F08E0AEC25D2
:1036D0000AF8ED3400F97410121250E088828983E0
:1036E000F07411121250E088828983A3F0741212D0
:1036F0001250E088828983A3A3F07413121250E061
:1037000088828983A3A3A3F0742012121B7F020274
:10371000132E74F612125C74E0121205E9FE740F97
:103720005E6004780180027800EEC4540F28FF85A3
:103730001A82851B83E58264507004E5836480608F
:103740004790085DE0541FF090085F7420F0A37468
:1037500052F07480900859F07450A3F0851B83E5F3
:103760008390085BF0851A82E58290085CF09008EF
:103770005E7410F090085DE4F053D1FE75D60175CB
:10378000D701E5D1A2E050FA851A82851B83740126
:10379000F0121250E5826A7003E5836B604990086D
:1037A0005DE0541FF090085F7420F0A37452F0EBBA
:1037B000900859F0EAA3F07401121250E5839008C2
:1037C0005BF07401121250E58290085CF090085E84
:1037D000740DF090085DE4F053D1FE75D60175D7F5
:1037E00001E5D1A2E050FAE5B3548F4410F5B3855A
:1037F0001B83E583900861F0851A82E58290086258
:10380000F09008667410F0900865E054E0F053D131
:10381000FD75D602E5B354F84406F5B343B301E5AC
:10382000B3A2E350FA742A121250E0F8A3E0F99020
:103830000861F0E8A3F07410121250E58390086B51
:10384000F07410121250E58290086CF090086E74BB
:1038500010F090086DE054E0F053D1FD53D1FB75AA
:10386000D60275D60453B3F843B301E5B3A2E350CF
:10387000FA7410121250E088828983F074111212C7
:1038800050E088828983A3F07412121250E088827B
:103890008983A3A3F07413121250E088828983A352
:1038A000A3A3F0740F1212507401F0E5B3548F44C7
:1038B00030F5B3851B83E583900861F0851A82E5B6
:1038C00082900862F09008667410F0900865E054E9
:1038D000E0F053D1FD75D602E5B354F84406F5B3D4
:1038E00043B301E5B3A2E350FAEDF8900861F0ECC0
:1038F000F9A3F0EFC454F0FA900866F0E890086B72
:10390000F0E9A3F0EA90086EF090086DE054E0F062
:1039100053D1FD53D1FB75D60275D604EF6016F86E
:10392000E5B354F84402F5B343B30118E5B3A2E399
:1039300050FAE870EB02370874F512125C74E0126A
:103940001205EAFEEBFF890A8C0B740F550B60041D
:10395000780180027800ECC4540F28F50C12297805
:10396000851A82851B83E58264507004E583648038
:10397000604790085DE0541FF090085F7420F0A34A
:103980007452F07480900859F07450A3F0851B8332
:10399000E58390085BF0851A82E58290085CF090E0
:1039A000085E7420F090085DE4F053D1FE75D601F6
:1039B00075D701E5D1A2E050FA851A82851B837480
:1039C00049F07401121250E5826E7003E5836F6056
:1039D0004990085DE0541FF090085F7420F0A374D4
:1039E00052F0EF900859F0EEA3F07401121250E576
:1039F0008390085BF07401121250E58290085CF02D
:103A000090085E740DF090085DE4F053D1FE75D619
:103A10000175D701E5D1A2E050FA740F121250E5FA
:103A20000BF074111212507401F07412121250E55E
:103A30000AF0851B83E583900861F0851A82E58290
:103A4000900862F09008667420F0900865E054E0F9
:103A5000F053D1FD75D60253B3F843B301E5B3A2D9
:103A6000E350FA53B3F843B301E5B3A2E350FA7459
:103A70002B121250E0F8A3E0900861F0E8A3F0E503
:103A80000CC454F0900866F0851B83E58390086BA6
:103A9000F0851A82E58290086CF090086E7410F040
:103AA00090086DE054E0F053D1FD53D1FB75D60280
:103AB00075D604E50C6025E5B3FA150CE50C600439
:103AC000785080027800748F5A48F5B353B3F843A6
:103AD000B301E5B3A2E350FAE50C70DB742D1212CA
:103AE00050E0F8A3E0F9851A82851B83E08882897B
:103AF00083F07401121250E088828983A3F074026B
:103B0000121250E088828983A3A3F074031212502A
:103B1000E088828983A3A3A3F0742012121B7F0381
:103B200002132E74F012125C74F8121205EAFEEB06
:103B3000FF890B8C0AEE24B2F8EF3400F9E5B35498
:103B40008F4440F5B3E9900861F0E8A3F09008666F
:103B50007410F0900865E054E0F053D1FD75D60282
:103B6000E5B354F84404F5B343B301E5B3A2E3501D
:103B7000FA9003A1E06408705DEE24A5F8EF34002C
:103B8000F9EE24D4F582EF3400F5831210F3851A90
:103B900082851B831210FF851A82851B83E0888231
:103BA0008983F07401121250E088828983A3F07433
:103BB00002121250E088828983A3A3F074031212C8
:103BC00050E088828983A3A3A3F088828983A3A37A
:103BD000A3A37480805AEE24A5F8EF3400F9EE24F4
:103BE000D4F582EF3400F5831210F3851A82851B19
:103BF000831210FF851A82851B83E088828983F0F7
:103C00007401121250E088828983A3F074021212A8
:103C100050E088828983A3A3F07403121250E088D5
:103C2000828983A3A3A3F088828983A3A3A3A3E4A7
:103C3000F0E50AC39411850A0C50047410800274D4
:103C400020C3950CF895E0F97418121250E0F50EA7
:103C5000A3E0F50FE50E250CFCE50F3400FDEC6448
:103C6000507003ED6480603A90085DE0541FF0905E
:103C7000085F7420F0A37452F07480900859F074B7
:103C800050A3F0EDA3F0ECA3F0E890085EF0E9900B
:103C9000085DF053D1FE75D60175D701E5D1A2E0DC
:103CA00050FAEE24A5F50CEF3400F50D7404121251
:103CB00050858210858311781012146F780E1214BB
:103CC0006FAC0AA90BAA0CAB0D12298A740412124C
:103CD0001B781012146FAC0EAD0FA90AAA0CAB0D15
:103CE00012297E740212121BEE24D4F582EF3400E6
:103CF000F583750E01750F00751000751100780EB3
:103D000012104E740812121B7F0802132E74F01248
:103D1000125C74F41212058A0A8B0B890D8C0CEA62
:103D200024B2F8EB3400F9E5B3548F4440F5B3E91D
:103D3000900861F0E8A3F09008667410F0900865B0
:103D4000E054E0F053D1FD75D602E5B354F84404D5
:103D5000F5B343B301E5B3A2E350FA9003A1E064E5
:103D600008705CEA24A5F8EB3400F9EA24D8F5825F
:103D7000EB3400F5831210F3851A82851B83121031
:103D8000FF851A82851B83E088828983F074011283
:103D90001250E088828983A3F07402121250E088E6
:103DA000828983A3A3F07403121250E0888289836E
:103DB000A3A3A3F088828983A3A3A3A3E4805BEADF
:103DC00024A5F8EB3400F9EA24D8F582EB3400F5A9
:103DD000831210F3851A82851B831210FF851A82C5
:103DE000851B83E088828983F07401121250E08879
:103DF000828983A3F07402121250E088828983A31F
:103E0000A3F07403121250E088828983A3A3A3F065
:103E100088828983A3A3A3A37480F0741C12125018
:103E2000E0F50EA3E0F50F850C10E50E2510F8E582
:103E30000F3400F988828983E0C0E07404121250C4
:103E4000D0E0F088828983A3E0C0E07405121250AC
:103E5000D0E0F088828983A3A3E0C0E07406121248
:103E600050D0E0F088828983A3A3A3E0C0E0740768
:103E7000121250D0E0F0E50CC3941150047410807D
:103E8000027420C39510FE95E0FFE50E2510FAE5BB
:103E90000F3400FBEA64507003EB6480603A9008D2
:103EA0005DE0541FF090085F7420F0A37452F0742A
:103EB00080900859F07450A3F0EBA3F0EAA3F0EE61
:103EC00090085EF0EF90085DF053D1FE75D6017555
:103ED000D701E5D1A2E050FA740412125085821085
:103EE000858311781012146FAC0EAD0FA90CE50A82
:103EF00024A5FAE50B3400FB122984740212121B6C
:103F0000EEFAEFFB850C10E50E2510FCE50F3400F2
:103F1000FDEC64507003ED6480603A90085DE054FD
:103F20001FF090085F7420F0A37452F07480900822
:103F300059F07450A3F0EDA3F0ECA3F0EA90085E02
:103F4000F0EB90085DF053D1FE75D60175D701E511
:103F5000D1A2E050FA7408121250858210858311A4
:103F6000781012146F780E12146FAC0CA90DE50ABC
:103F700024A5FAE50B3400FB12298A740412121BE3
:103F80007404121250E0F87408121250E068703095
:103F90007405121250E0F87409121250E068702093
:103FA0007406121250E0F8740A121250E068701091
:103FB0007407121250E0F8740B121250E06860049B
:103FC0007900801FE50A24D8F582E50B3400F583DB
:103FD000750E01750F00751000751100780E121026
:103FE0004E7901740C023D05E5BDF9E5BCFAE9FB2B
:103FF000020D8753B4F3EBF5BCEAF5BC020D87FF65
:020000040002F8
:10300000C082C083E9900E77F002B28F74F712127B
:103010005CE99002E0F07C187D037AFF7BFF1225CB
:10302000B29002E174FFF0A3F0A3E4F0A3F07905FD
:1030300012253A9002E0E0F912245C7AD07B251246
:10304000277A7F0102132E74F412125C8A0A8B0B0A
:10305000EB548060309002E0E0F9122D3E8A0C8B38
:103060000DAE0CAF0DEE4F60138E828F83E064B017
:103070007003122552EEFAEFFB122D2CAA0AE50B73
:103080006480FB80047A007B0002B25E74F212124C
:103090005C74FC121205EAFEEBFFEE4F603874021E
:1030A000121250EEF0A3EF12B4C3ECF0A3ED12B481
:1030B000C3AA82AB83122456E9F50A707374121204
:1030C000125012C077E50C450D60658E828F831219
:1030D000B13AEE4F7005750A0280557A067B0012F0
:1030E0002D988A0E8B0FA80EA90FE8497005750A56
:1030F00013803D88828983E412B144A3A3EEF0A338
:10310000EF12C510E50CF0A3E50DF09002E612B148
:10311000CC9002E66017E0FCA3E08003EAFCEBFD44
:103120008C828D8312B1CC70F38C828D8312BF9C04
:10313000A90A740412121B02C712A3A3A3A3E0FEE0
:10314000A3E0FF22F0A3F0888289832274F2121296
:103150005C890CE975F017A4FEAFF09002E5E4F08D
:103160009002E312B1CC600A122D9E9002E3E4F0CB
:10317000A3F0EEFAEFFB122D988A0A8B0BEA450BAF
:10318000602FEEFCEFFD7900122D149002E3E50AAA
:10319000F0A3E50BF07B00800812B1B6E4F0A3F0D9
:1031A0000BEBC3950C40F2E50C9002E5F079008042
:1031B00002791302C712EB75F017A4F8A9F0900278
:1031C000E3E028FAA3E0398A82F5832212BD32EACD
:1031D0004B2274F412125C750A00750B00740C1209
:1031E000125012C4E4FEE9FF800CE50A2401F50A3E
:1031F000E50B3400F50BC3E50A9CE50B9D503285C9
:103200000A0C850B0D7403780C1211F2EA250CF8E8
:10321000EB350DF988828983A3A3A3A3A3A312C0CE
:1032200077EE650C7003EF650D70BFE8FAE9FB807F
:10323000047A007B00802774F412125C7900EAA201
:10324000E0501B750A16750B82780A12146F7C0405
:103250007D007A797B0E122534740212121B7F04D2
:1032600002132EC082C0839002E612B296601C88C0
:10327000828983A3A3E06A7003A3E06B88828983B9
:1032800070E8A3A3A3A312BD2E80047A007B00D014
:1032900083D082020D8712C7E5E8492274EE12122C
:1032A0005C74FC121205EAFEEBFF851A82851B8313
:1032B000E4F0A3F0EE240212BF80EE240512B4B1B4
:1032C000EE2404F510EF12B896E024FE603924FCD9
:1032D000604624FE605224FE605E24FE700302B34A
:1032E000B624FE700302B42E24FE700302B43D2403
:1032F000FE700302B44C24FC700302B45B24FE7025
:103300000302B46A02B4A79002FF7417F0A3E41298
:10331000B4CB1221D402B4A7851A82851B83AC8258
:10332000AD8312255802B477851A82851B83AC823F
:10333000AD8312255E02B477850E0A850F0B7402E9
:10334000121250AC82AD83850A82850B8312BD2E8A
:1033500012247A8A0E8B0FAC0EAD0FEC4D6042E456
:10336000F50EF50F780E12146F750EFF750F0278BB
:103370000E12146F750E00750F03780E12146F7411
:1033800008121250121486791612BD2812259A744A
:103390000812121BE9F50E700B12BD241221EC80ED
:1033A0000F750E01850A82850B8312B4B912BF9C7A
:1033B000850E0A02B47A7402121250AC82AD838573
:1033C0000E82850F8312BD2E12247A8A128B13ACC3
:1033D00012AD13EC4D6043850E82850F83A3A312BB
:1033E00014867512FF751302781212146F7512008D
:1033F000751303781212146F740812125012148687
:10340000791612BD2812259A740812121BE9F50BC1
:10341000700B12BD241221F2800F750B01850E82F4
:10342000850F8312B4B912BF9C850B0A804C851A94
:1034300082851B83AC82AD83122564803A851A8213
:10344000851B83AC82AD8312256A802B851A828509
:103450001B83AC82AD83122570801C851A82851B6C
:1034600083AC82AD83122576800D851A82851B83FD
:10347000AC82AD8312257CE9F50AE50A60298E82CB
:103480008F83A3E06414601F851082851183E09010
:1034900002FF12B4C312C7E190030012BF9CE50AF9
:1034A000A312B4CB1221CEEEFAEFFB1224F802BE27
:1034B00088F50EEF3400F50F2212C7E5851A8285D4
:1034C0001B8322F0851A82851B8322F07CFF7D02FC
:1034D000850C82850D8312BD322274EE12125C744B
:1034E000FC1212058A0C8B0D8C108D11EA2405F547
:1034F0000AEB3400F50B7C157D0079007AFF7B0226
:10350000122D14E50A2402F50EE50B12B4B4851A47
:1035100082851B83858212858313781212146F852E
:103520000A82850B83A3A3A3A312B9DE12146FE54D
:103530000A2405F512E50B3400F513781212146F06
:10354000850E82850F8312BD381224747406121200
:103550001B8A128B13AE12AF13E50C2402F50CE597
:103560000D12BF83EE4F700302B6A08017740212D3
:10357000125012BD2E88828983EAF0A3EBF09002EC
:10358000FFE004F09002FFE0C39405400302B6A000
:10359000E4F512F513781212146F7512E875130220
:1035A000781212146F7512E9751302781212146FE3
:1035B00074061212501214867910EEFCEFFD12BD43
:1035C0002812259A740812121BE9705E850A8285FA
:1035D0000B83A3A3A3A3A3A3A3E0F89002E8E0684E
:1035E000704812B9DE12146F7CE97D02E50A2408E6
:1035F000FAE50B3400FB122D0E740212121BE96067
:10360000298E828F83A3A3A3A312BD2E9002FFE075
:10361000F512740278121211F274002512F58274F8
:10362000033513F583EAF0A3EBF074021212508510
:103630008212858313781212146F740212125012C0
:103640001486850E82850F8312C7F61224807404B7
:1036500012121B8A128B13AE12AF139002FFE0F509
:1036600012751300740278121211F274FF2512F809
:1036700074023513F988828983A312B1CC700302D6
:10368000B564E82403F8E93400F9EE4F600302B5AD
:103690006D8882898374FFF0A3F09002FFE004F04C
:1036A0009002FFE0600A12BD241221E07900800B35
:1036B000850A82850B8312BF93790A02BE8874EA59
:1036C00012125C74FE1212058C148D15EA2405F595
:1036D0000EEB12C96012B13E750A00750B00EA24A8
:1036E00002F512EB3400F513851A82851B8385825F
:1036F0000C85830D780C12146F850E82850F83A3C1
:10370000A3A3A312B8A012146FE50E2405F50CE5CF
:103710000F12BF83780C12146F850E82850F8312EF
:10372000C7F4122474740612121B8A0C8B0DEA451E
:103730000D700302B851EA2404F510EB12B896128A
:10374000B13E8A828B83A3A3A3E0F98512828513FD
:103750008312BD2E122462E9F50B600302B851E416
:10376000F516F517781612146F7516E875170278A6
:103770001612146F7516E9751702781612146F7405
:10378000061212501214867913AC0CAD0D851282FC
:1037900085138312BD2E12259A740812121BE9F5A7
:1037A0000B600302B8519002E8E0F8E50A7009E006
:1037B0002402900300F08017900300E0FCE824024C
:1037C000FAE43400FBEA6C7001EB600302B8558543
:1037D0000A82AA8212B9D5941412B9CD50738510F9
:1037E00082851183E0C0E074012A12B88DD0E0F028
:1037F000050A851082851183A3E0C0E0850A0C7458
:1038000001250C12B88DD0E0F0050A9002E812B83C
:10381000A012146F7CE97D02850A0C7401250CFA54
:1038200074033400FB122CFC740212121B9002E889
:10383000E0250AF50A74FF6E700374FF6F6012EEE4
:1038400024010EEF3400FFE50AC39414500302B6BE
:10385000E8E50A601312BC1985128285138312BD34
:103860002E1221E679008014E50B7003750B0A8592
:103870001482851583EEF0A3EFF0A90B74021212E7
:103880001B7F0E02132E850A0E7401250EF582741D
:10389000033400F583223400F511851082F583226C
:1038A00012C5232274EE12125C74FE1212058C10E3
:1038B0008D11EA2405F50EEB12B4B4750D009002DB
:1038C000FFE4F0F50CEA2402F50AEB3400F50B8076
:1038D000499002FFE0FA9002E8E0F812B9D5941797
:1038E00012B9CD400D9002FFE0F87416C398900213
:1038F000E8F012B9DE12146F7CE97D0274002AFA36
:1039000074033400FB122CFC740212121B9002E8A8
:10391000E0F89002FFE028F0050CE50E2416F58291
:10392000E50F12B891E0F8E50CC398400302B9B670
:103930009002FFE0C39416507DE50CC333F8E433E6
:10394000F9E50E28FEE50F39FF851A82851B83AC49
:1039500082AD838E828F8312BD2E12247A8A128BBF
:1039600013AC12AD13EC4D7005750D018043E4F5F9
:1039700012F513781212146F7512E875130278128B
:1039800012146F7512E9751302781212146F74060F
:103990001212501214867916850A82850B8312BD85
:1039A0002E12259A740812121BE9F50D700302B845
:1039B000D112BF8F80107CFF7D02850A82850B8328
:1039C00012BD2E1221F8A90D740202BE8AE99400DC
:1039D000C365D03322EA28F8E43400F9E822E0F5A0
:1039E0001275130078122274EA12125C74FC12121F
:1039F000058A0E8B0F8C148D15EA2405F50CEB123D
:103A0000BF83750A00750B00E50C2402F512E50D65
:103A10003400F513740212125085821085831178D8
:103A20001012146F850C82850D83A3A3A3A312C467
:103A3000CF12146FE50C2405F510E50D3400F511D7
:103A4000781012146F85128285138312BF8912BDFC
:103A500028122474740612121B8A108B11AE10AF38
:103A600011E50E2402F510E50F3400F511804088B1
:103A700082898374FFF0050A12B88674FFF0050A84
:103A80009002E8E0F50E750F00780E12146F7CE9D5
:103A90007D02850A0E7401250EFA74033400FB12B0
:103AA0002CFC740212121B9002E8E0250AF50AEEC3
:103AB0004F60718E828F83A3A3A3E0F98510828566
:103AC000118312BD2E122462E9F50BEE240412B408
:103AD000B1E97044E4F516F517781612146F7516EF
:103AE000E8751702781612146F7516E975170278C3
:103AF0001612146F74081212501214867911EEFC0B
:103B0000EFFD85108285118312BD2E12259A74084F
:103B100012121BE9F50B6027850E82850F8312BCFC
:103B20000F12BF9CE50A700302BBF512BC19851089
:103B30008285118312BD2E1221FE790002BC0A85F6
:103B40000A82AA82EA9002E87009E0240490030045
:103B5000F08022E0F8900300E0F516E82404FCE48D
:103B60003400FDEC65167001ED70C012B9D59412E9
:103B700012B9CD50B6850E82850F83E0C0E0740186
:103B80002A12B88DD0E0F0050A850E82850F83A336
:103B9000E0C0E012B886D0E012BC2B85820E85838F
:103BA0000F780E12146F74041212501214868512BC
:103BB0008285138312C7F6122480740412121B8AA2
:103BC0000E8B0FAE0EAF0F850A0E7401250EF87422
:103BD000033400F9EE4F700302BA6F851A82851B19
:103BE00083E08882898312BC2BA3E0C0E012B886F0
:103BF000D0E002BA7DE50B7003750B0A850C828557
:103C00000D8312BC0F12BF9CA90B740402B87E1264
:103C1000C7E585148285158322900300E0F5F0E561
:103C20000A849002FFF07CFF7D0222F0050A851ACB
:103C300082851B832274EC12125C74FE1212058AB8
:103C40000A8B0B8C108D11EA2405FEEB3400FF85E6
:103C50001A82851B83AC82AD838E828F8312BD2E28
:103C600012247A8A0C8B0DEE241812B4B1EA450D99
:103C7000700302BCFF12BE715032851A82851B830D
:103C800012BD2E12258E8A128B13EA4513606B79B2
:103C900012AC0CAD0D850A82850B8312BD2E8512E8
:103CA0008285138312125AE9F50C7058E4F50CF56D
:103CB0000D780C12146F8E828F83A3A3E0F50C781D
:103CC0000C12146FEE240312BF80780C12146F8E46
:103CD000828F8312BD381225A0740612121BE9F5DB
:103CE0000C7021850E82850F83E0701F850A828506
:103CF0000B8312BD2E1222048011750C0E800975E3
:103D00000C018004E50C600312BF8F850E82850FC5
:103D100083E0600479008002A90C740212121B7FF8
:103D20000C02132E7CFF7D02850C82850D8312BD53
:103D30003222E0FAA3E0FB22E0FCA3E0FD850A8248
:103D4000850B8312BD322274EE12125C74FE1212C5
:103D5000058A0A8B0B8C0E8D0FEA2405FEEB3400CE
:103D6000FF751000851A82851B83AC82AD838E821D
:103D70008F8312BD2E12247A8A0C8B0DEA450D70AA
:103D80000302BE5D12BE715035851A82851B8312F7
:103D9000BD2E12258E8A108B11EA4511605E7912B4
:103DA000AC0CAD0D850A82850B8312BD2E85108269
:103DB00085118312125AE9F510600302BE60850A6C
:103DC00082850B8312C077AA0CFB1225828A128B84
:103DD00013A812A913E849701E7AFF7BFF122582EF
:103DE0008A128B13A812A913E849606C8882898310
:103DF000E50CF0A3E50DF0750C00800775100E8042
:103E00005F050C9002E5E0FAE50CC39A504AE50C18
:103E100075F017A4FAABF088828983A3A3E02AFA8D
:103E2000A3E03BFB8A828B8312BF89EC4D70D27575
:103E30000C17750D00780C12146FEEFCEFFD122CB0
:103E4000FC740212121BEEFCEFFD850A82850B83C7
:103E500012BD2E12220A80147510098003751001FC
:103E600012C7DD850E82850F8312BF9CA91002B98F
:103E7000C8E50A2402F50AE50B3400F50B8A828BAB
:103E800083A3A3A3E0A2E522740412121B7F0A02FB
:103E9000132E74EC12125C8C128D13EA2405F50EAD
:103EA000EB12B4B4751100EA2402F50CEB12BF83D7
:103EB000850C82F58312BD2E1225828A0A8B0BEAAD
:103EC000450B700302BF757510008071850E8285E9
:103ED0000F83E06401704F8E828F83A3A312148638
:103EE0008E828F83A3A3A3A3E0F514751500781425
:103EF00012146FEE2405F514EF3400F51578141242
:103F0000146F12BD281225A0740612121BE9F511B8
:103F10006014850E82850F83E4F012C7DD8512825E
:103F200085138312BF9C7C177D007900EEFAEFFBAE
:103F3000122D148E828F83E4F0A3F005109002E519
:103F4000E0F8E510C398501EE51075F017A4F8A925
:103F5000F0850A82850B83A3A312C96A12BF89EC7C
:103F60004D600302BECC850A82850B8374FFF0A3EB
:103F7000F0E511700612BD28122210A91102BD1F12
:103F8000F50CEF3400F50D22A3E0FCA3E0FD228E3A
:103F9000828F8312C7E5851082851183E8F0A3E93B
:103FA000F022C082C0839002E1E06A7003A3E06B5C
:103FB00070067AE17B0280047A007B0002B28FC037
:103FC00082C08378008C828D83E06A7003A3E06BEB
:103FD0007010E875F003A4F8A9F0EC28FAED39FBAD
:103FE0008015088C828D83A3A3A3E06A7003A3E0ED
:103FF0006B60DF7A007B0002B28F74F612125C12E3
:10400000254C8A828B83E582458370067A007B008B
:104010008007A3A3A3A312BD2E02C68E74F21212B0
:104020005CE9FE740E12125012C077741012125016
:1040300012C4EF8C828D83E064027036A312C7EB4A
:10404000F50EA3E0F9A80E74026870037429697074
:1040500021750E02750F00780E12146F780A121473
:104060006F780C12146FEEF91225C4740612121B2D
:104070008002790102C712E0F50CA3E0F50D22746D
:10408000E812125C74FB121205E9851A82851B8303
:10409000F08A188B19ECFEEDFF751200741D1212D8
:1040A0005012C7E1741D12125012BF9C8E828F8372
:1040B000A3A3A3E0A2E4502D741D12125012BD2E32
:1040C00012258E8A828B83E5824583700302C4C0E9
:1040D000790AEEFCEFFDAA18AB1912125AE9F51293
:1040E000600302C4C3741F12125012C4EF74211271
:1040F000125012C0777423121250E0F510A3E0F5AD
:10410000118E828F83E06402600302C46EA312C723
:10411000E1850A82850B83A3858214858315EE24AD
:104120000612B4B188828983E0FAA3E0F9EA240098
:10413000F516E439F51778161214F9010000280174
:104140002863C10700022828C2032895C100295FFF
:10415000C301298AC302292BC303295FC304290988
:10416000C46EC4E5104511600302C469850E8285E2
:104170000F8312C4E4FAE9FB8A828B83E0850C8208
:10418000850D8312C51A12146F8A828B83A3E0FCFB
:10419000A3E002C3F3E5104511600302C469850C76
:1041A00082850D837401F012C4F7850A82850B8322
:1041B000F07C007D008E828F83A3A3A3A3E0240163
:1041C000FAA3E03400FB12247AEA4B60418A828B26
:1041D00083E02402F8850C82850D83E028F0EA2430
:1041E00004F8EB3400F988828983E0851482851510
:1041F0008312C52C12C51A12146F8A828B8312BFC8
:1042000088E50A2403FAE50B3400FB02C3F8850CA9
:1042100082850D83E02404F07C047D007900AA14DB
:10422000AB15122D1402C4C3E5104511600302C47E
:104230006912C4F7FEA3E0FF850C82850D83740428
:10424000F0EE850A82850B83F0EF85148285158355
:10425000F07403121250AC82AD83EEFAEFFB12241D
:104260007A8A0E8B0FEA450F700302C30C8A828B89
:1042700083A3A312B13A7401121250858210858370
:1042800011781012146F74051212501214867CFFEC
:104290007DFF122480740412121B8B11EA451170E9
:1042A00033850E82850F8312C4CF12146F850E8260
:1042B000850F83A31214867C027D007AB27B821262
:1042C00022AC740412121BE9700A740112125074A9
:1042D000FFF0A3F08E828F83E064027039750E02C6
:1042E000750F00780E12146F8E828F8312BF88E5CF
:1042F0000A2404FAE50B3400FB122CFC740212129F
:104300001B850C82850D83E0240280097401121242
:1043100050EEF0A3EFF0740112125012C4E0F074EA
:1043200001121250A312C4D802C463E510451160F3
:104330000302C469850E82850F8312BF89AA18AB58
:10434000191225B8850C82850D837402F0EA850A5E
:1043500082850B83F0851482851583EB02C466E5A4
:10436000104511600302C46912C4F7F8A3E0F9858F
:104370000C82850D837402F0E8850A82850B83F038
:10438000E985148285158302C466850E82850F83B4
:1043900012BD2E122CF6EAFC8C82A882C39510E482
:1043A0009511405FE865107002E51170047C008093
:1043B00022851A82851B83E0FAE5102AFAE511347A
:1043C00000FBC3EA98EB94005003E08005E510CCB5
:1043D000C39CFCEC850C82850D83F08C0C750D0064
:1043E000780C12146F850E82850F83E02510FCA3D4
:1043F000E03511FDAA0AAB0B122CFC740212121B41
:1044000002C4C375120702C4C3E5104511705A8572
:104410000E82850F8312C7E1850C82850D83740798
:1044200012B14612C4D812B146A3E0851482851594
:1044300083F0E82402FAE93400FB8A828B8312C4F9
:10444000D812C50712C4E0A312C51012C4E9F0E8DF
:104450002405F8E93400F98882898312C4E9A3129B
:10446000C52CA3A3A3A3F0805A75120B8055741D0D
:1044700012125012BD2E12254C8A828B83E5824582
:1044800083603D12C7E1880E890FE8450F603178DF
:104490001012146F780C12146F780A12146F7406CD
:1044A000121250E0F9EEFCEFFDAA18AB19850E824E
:1044B000850F8312125A740612121BE9F51280033B
:1044C00075120EA912740512121B7F1002132EE032
:1044D000F510751100781022E0850A82850B832281
:1044E00012C5362212C7E5E82212C536A3A322E080
:1044F000F50AA3E0F50B22850E82850F83E0F8A371
:10450000E0F5838882E022A3A3F08A828B83A32232
:10451000F088828983A3A3A3A322F08A828B8312CB
:10452000C52322E0F50C750D00780C22F0888289F5
:1045300083A312C53622E0850A82850B83A3A322BA
:1045400074EE12125C74FE1212058A0C8B0DECFADA
:10455000EDFB7414121250E0F512A3E0F51374167B
:10456000121250E0FE7418121250E0F510A3E0F59C
:1045700011851A82851B83AC82AD8312247A8A0E40
:104580008B0FEA450F6049851A82851B8312BD2E69
:1045900012254C8A828B83E5824583602FA3A31268
:1045A000C4EFE50A450B6024781012146F781212DC
:1045B000146FEEF9AC0EAD0FAA0CAB0D850A828517
:1045C0000B8312125A740412121B8006790E800299
:1045D000790102B9C874F612125C74FE12120574E5
:1045E0000C12125012C4E4851A82851B83F07401E8
:1045F000121250E9F0E4F50AF50B780A12146F75FF
:104600000A02780A12146F740412125085820A8505
:10461000830B780A12146F1225A0740612121B74F1
:104620000212121B806874F712125CEAFEEBFF891B
:104630000A7C187D031225B8EA5402600BA90AEE21
:10464000FAEFFB12246E8002790102B04274F61276
:10465000125C74FF6A700374FF6B70168C828D831A
:1046600012C693E4F08C828D83A3A3A312C693A3F6
:1046700080181225888A0A8B0BA80AA90BE84960C2
:104680000D8882898374FF12B144A3A3E4F07F02F2
:1046900002132E74FFF0A3F08C828D83A3A32274E7
:1046A000F612125C1225888A828B83E5824583602C
:1046B00006A3A3E0FA80027A007B0080D174F21294
:1046C000125C8A0A8B0BECFEEDFF740E121250E0A6
:1046D000F50C1225888A0E8B0FA80EA90FE84970D9
:1046E00026EEFCEFFD7AFF7BFF1225888A0E8B0FEA
:1046F000A80EA90FE8497004791180168882898371
:10470000E50AF0A3E50BF088828983A3A3E50CF00A
:1047100079007F0602132E74EE12125CEAFEEBFFA4
:104720008C0A8D0B890E741412125012C7E1741684
:1047300012125012BD2E750F00E849600302C7D552
:104740007402650E600302C7D0741212125012C7B1
:10475000EBFCA3E0F9EC2400F510E439F511EAF4E0
:10476000F8EBF4F9EC58F8E51159F9E849705CE513
:104770000A2406F8ED3400F9880C890D8882F58347
:1047800012C7F61225B88A128B13E5106512700451
:10479000E51165136042781012146F850C82850D47
:1047A0008312C7F61225BE740212121BE9F50F70B0
:1047B00027781012146F850A82850B83A3A312C772
:1047C000F41225D6740212121B800D750F8080081A
:1047D000750F0D8003750F0BA90F02BE8D8E828F92
:1047E0008312C7E522E0F8A3E0F92212C7E5888228
:1047F0008983E022A3A3E0FCA3E0FDEEFAEFFB2215
:1048000074E812125C74E7121205851A82851B8304
:10481000EAF0A3EBF08C188D198910750A00750B5E
:10482000007431121250E0F514A3E0F51574331240
:104830001250E0F516A3E0F5177435121250E0F5AA
:1048400011E50B75F003A4F8A9F0851A82851B8386
:1048500012C96AE0F47003A3E0F4700302C94DEEDC
:104860002402F50EEF12C960E0700302C94D8518ED
:104870000C85190D780C12146FAC16AD17AA14AB79
:1048800015122540740212121B8A0C8B0DEA450D7D
:10489000700302C94DE4F512F513781212146F7407
:1048A00006121250858212858313781212146F74C7
:1048B00009121250858212858313781212146F85A3
:1048C0001482851583A3A3A3A31214867914AC0CB8
:1048D000AD0D8E828F8312BD2E12259A740812128E
:1048E0001BE97069850C82850D83A3A3A3A312C75E
:1048F000E1740212125012BF9C850E82850F83E074
:10490000A2E05018A9107402121250AC82AD838E2E
:10491000828F8312BD2E122492E9420A850E82856F
:104920000F83E0A2E15026E511F50C780C12147308
:10493000A9107403121250AC82AD838E828F831241
:10494000BD2E12248C740112121BE9420A050BE5DC
:104950000BC39402500302C841A90A741902C4C7C8
:104960003400F50F850E82F58322E028FEA3E0399E
:10497000FF8E828F832274F212125CEAFEEBFF89B3
:104980000D7401650D600E7402650D706A79011277
:104990002798E97062EEFAEFFB1225828A0A8B0BE8
:1049A000EA450B6047750C00800B7C177D00790091
:1049B000122D14050C9002E5E0F8E50CC398502187
:1049C000E50C75F017A4F8A9F0850A82850B83A37E
:1049D000A3E028FAA3E039FB8A828B8312B2967097
:1049E000C9850A82850B8374FFF0A3F07C187D03D0
:1049F000EEFAEFFB1225B202C71274F212125C8AB1
:104A00000A8B0BECFEEDFF740E12125012C0779061
:104A10000E77E0F4603D7A097B00122D26EA4B60A8
:104A2000328A828B8374B1F0A3E412C509A312C544
:104A300007A3E50AF0A3E50B12CA56EEF0A3EF12A6
:104A4000CA56A3A3E50CF0A3E50DF0900E77E0F9AC
:104A5000122D3202C712F08A828B83A3A3A3A3A3D1
:104A600022C082C08390075EE0F8E94A6890075C44
:104A7000603C7403F07410697013EAC333FCE433D0
:104A8000FD74672CF58274073DF5838015E970206D
:104A900074016A7005900966800874026A7011904A
:104AA000096812E2D2900761ECF0A3ED8001E4F016
:104AB0008002A3F0D083D082020D8774F012125CC2
:104AC00074FE1212058A0A8B0B7E007F00EEF8EF4F
:104AD000F97A027B00121172E8C333F510E933F55D
:104AE0001174672510F50E74073511F50F850E82C8
:104AF000F583A385820C85830D851A82851B83AC83
:104B000082AD837A02EE248DF9123158E9601B746C
:104B1000FE2510F58274813511F58312DC33850E84
:104B200082850F83E8F0A3E9801A851A82851B83AA
:104B3000E0850C82850D83F07401121250E0850E21
:104B400082850F83F0E50A2EF8E50B12D7F5EE24E7
:104B500002FEEF3400FFC3EE9408EF12DA1D50039B
:104B600002CACD740202D0C174F712125C74FE1234
:104B70001205EAFEEBFF851A82851B83AC82AD83AA
:104B80007A027995123158E9604590076FE0600C20
:104B90001460142481601B14601F802890096674BF
:104BA000BDF0A37404803C9009667403F0A37405FF
:104BB000803190096674E0800590096674F5F0A371
:104BC0007401801F90096674FFF0A3743F80148500
:104BD0001A82851B83E0F97401121250E090096675
:104BE000F0A3E912D7EB7997123158E960419007A9
:104BF0006FE0600C1460102481601714601F802720
:104C000090096874C680059009687465F0A3740201
:104C100080319009687416F0A374018026900968A9
:104C200074F5F0A3E4801C900968E4F0A380148577
:104C30001A82851B83E0F97401121250E090096812
:104C4000F0A3E9F090096712D24290096612CCED08
:104C5000F090096912CCF290096812CCFF7402023C
:104C6000D73474F712125C74FC121205EAFEEBFFE3
:104C7000851A82851B83AC82AD837A0479891231CF
:104C800058E9600F90076F7401F0A304F0A3E4F0FB
:104C9000A38028851A82851B83E0900770F0740139
:104CA000121250E090076FF07402121250E0F97483
:104CB00003121250E0900771F0A3E9F090076FE043
:104CC000547F901018700474148002740FF0A3E4E1
:104CD000F090077012D24290076F12CCEDF090075F
:104CE0007212CCF290077112CCFF02D73212D1644B
:104CF000A32212CCF622E08E828F83A3A3F022128D
:104D0000CD0322E08E828F83A3A3A3F02274E81246
:104D1000125CEAFEEBFF8C0C8D0D741812125078A9
:104D2000121210D58E188F198E0A8F0BEE4F702F1E
:104D30007A057B00122D988A0A8B0BAE0AAF0B8E78
:104D4000828F83A3A3A3A3E4F08E828F83A3A3E522
:104D50000CF0A3E50DF08E828F83E4F0A3804EEA81
:104D60002404F516EB3400F51790825D78121210CA
:104D70003B851682851783E0F50EE4F50FF510F5F7
:104D8000117812790E120DB4502A8004880A890B0A
:104D9000850A82850B8312DC4070F17A057B001254
:104DA0002D9812CDEF851682851783E004F08036AA
:104DB000880A890B850A82850B8312DC4070F17AA0
:104DC000057B00122D9812CDEF8E828F83E0FEA31B
:104DD000E0FF85168285178312CCEDA3A3A3F0AA6A
:104DE00018AB19122D9EEEFAEFFB7F1002132E8ADC
:104DF0000E8B0FA80EA90F88828983A3A3E50CF060
:104E0000A3E50DF088828983E4F0A3F0850A82850A
:104E10000B8312DE7922C082C0839010167484F056
:104E2000A37403F08A828B83F0901016E08A828B41
:104E30008302CAB274F412125C74FC121205890A5D
:104E4000900774E0650A700302CF02851A82851B01
:104E500083AA82AB83122E7C900961E0F50C75F079
:104E600005A4F8A9F0746A28FE740939FFE0C39418
:104E7000C950198E828F8312CF0C1210F38E828F3D
:104E800083A31210FF900961E004806B7800790021
:104E9000E8FAE9FBEA75F005A4FAACF075F005EB69
:104EA000A42CFB746A2AFC74093BFD8C828D83A3BD
:104EB000A3A3A3A37405121118E8240108E9340080
:104EC000F9E50C24FFFAE434FFFBC3E89AE99BA25E
:104ED000D265D03340BAEE24FBF582EF34FFF58380
:104EE00012CF0C1210F3EE24FCF582EF34FFF583A1
:104EF0001210FF900961E4F0E50A900774F079015F
:104F000080027900740412121B02E1BBE50A12CF81
:104F10001222F0851A82851B8322C082C0839007EB
:104F20005FC3E09489A3E0941390075F4005E4F029
:104F3000A3800312D0B802CAB374F712125C890AB4
:104F4000740F550AF874F0550A600A24F06034248E
:104F5000F06067806F900962E07069900963E064B7
:104F60000260617401F07EF4FFE8601214600514C1
:104F7000600680507A0180027A0279008037122E12
:104F80009A8041900962E0703B900963E06402609E
:104F900033E4F07EF47F01E8600B14600C14600DC4
:104FA00014600E801F7A00800A7A0180067A0280DF
:104FB000027A037910122E16800A9009647401F0A7
:104FC0007E007F00E50A90075EF0EEFAEFFB02D765
:104FD0003774F012125CEAFEEBFF90827D121482AD
:104FE00090077912DC33758307758265E0C398FCFE
:104FF000A3E099FD90077512DE8A122E2E7404121A
:10500000121B900775EAF0A3EBF07C007D0090077F
:105010007512DC338007E02CFCA3E03DFD8882891B
:1050200083E5822402F8E5833400F9E8FAE9FB120B
:10503000DC408A828B8370DEE02CF50AA3E03DF52C
:105040000B900763780E1210D5900777780E120D2B
:105050009F600C9007637C777D0774041211189091
:105060000763780E1210D590077B780E120D9F60A3
:105070003A90077F12DC33C3EE98EF99502D9007DA
:10508000637C7B7D07740412111890077FF0A3F0F6
:105090007A04FB122D988A0C8B0DAE0CAF0D12D139
:1050A000401231D6EEFAEFFB122D9E90077F12D000
:1050B000B8F0AA0AAB0B800CE02401F0A3E03400A6
:1050C0002212121B7F0802132E74F712125CECFEE0
:1050D000EDFFEAC39EFAEB9FFB122ECAE9F50A9098
:1050E0000769E0C39EFAA3E09FFB122ECAE9650A96
:1050F0007004790280027901900781E069601A905A
:105100000782E0C394034009E4F0E9900781F0804E
:1051100008E004F0900781E0F902D73774F6121224
:105120005C7A047B00122D988A0A8B0BAE0AAF0BB7
:1051300012D1401231D6EEFAEFFB122D9E02D99B0E
:1051400090076312D164F090076412D164A3F090C9
:10515000076612CCF690076512CD03EEFCEFFD7AE0
:1051600004790522E08E828F832274F612125C7A13
:10517000087B00122D988A0A8B0BAE0AAF0B122EF9
:105180001CEEFCEFFD7A0879011231D6EEFAEFFB46
:10519000122D9E7A057B00122D988A0A8B0BAE0A7F
:1051A000AF0B7C577D0D7A01799B123158E9600570
:1051B000900D57E4F0900D5712D242EEFCEFFD7ABD
:1051C0000579061231D6EEFAEFFB122D9E7A047B9A
:1051D00000122D988A0A8B0BAE0AAF0B122E28EE06
:1051E000FCEFFD7A0479001231D6EEFAEFFB122DB6
:1051F0009E7A047B00122D988A0A8B0BAE0AAF0BA5
:10520000122E22EEFCEFFD7A0479031231D6EEFA6B
:10521000EFFB122D9E7A027B00122D988A0A8B0BCF
:10522000AE0AAF0B122E34EEFCEFFD7A02790212B9
:1052300031D6EEFAEFFB122D9E75C90043C9080264
:10524000D99B12D164F02274EA12125C8912750C97
:1052500000750D007C007D0079008913E512603532
:105260001460142481601B1470407514F5751501C9
:105270007516F5891780177514037515057516656C
:10528000801C7514E07515017516167517019007C9
:1052900083740280117514BD7515047516C67517D3
:1052A000029007837404F0A3E4F0900965E0F50A26
:1052B000890B7403780A1211F2850A10850B117498
:1052C000CB2510F50E740E3511F50F74BB2510F5B6
