:020000040000FA
:10400000EF6CFFFF0700007C42424242FFFFFFFFD0
:10401000FFFFFFFFFFFFFFFFFFFFFFFFFFFFFFFFB0
:10402000000102030405060708090A0BFFFFFFFF52
:1040300002461A02558FFFFFFFFFFFFFFFFFFFFF42
:10404000FFFFFFFFFFFFFFFFFFFFFFFFFFFFFFFF80
:10405000FFFFFFFFFFFFFFFFFFFFFF025D33FFFFDB
:10406000FFFFFF025D15FFFFFFFFFF025D92FFFFF5
:10407000FFFFFF025CC3FFFFFFFFFFFFFFFFFFFF2C
:10408000FFFFFF025602FFFFFFFFFFFFFFFFFFFFE3
:10409000FFFFFFFFFFFFFFFFFFFFFF025D57FFFF77
:1040A000FFFFFFFFFFFFFFFFFFFFFFFFFFFFFFFF20
:1040B000FFFFFF0253FB01FF0000B40000280028AF
:1040C00000283075A000A000A000A0000008000893
:1040D000E001F000100010001000100010001000AF
:1040E00050005000500010001000D00700000000E9
:1040F00000000F00010005003075070010000100EE
:1041000081FF00000000FFFA5F18600060FF0202FC
:104110000208025000A0000000E80302EC82010047
:1041200000D38202E682010000640E02F6820100E2
:1041300000B20202E682010000650E022C8301003B
:1041400000C80202E682010000660E02FA82010047
:1041500000CA0202E682010000670E020E83080018
:1041600000CB0202E682010000680E02108301000B
:1041700000690EFF0100FF2002EC82010000D682E0
:1041800002E682010000CD0E02188300000000004C
:1041900002E2820300001803D065D065D065D065C7
:1041A000D065D065D065D065D065D065D065D06567
:1041B000D06564687C685E68FFFF0200E2FF020071
:1041C000E7FF0200F3FF0200F3FFFAFF070003001E
:1041D000F9FFFBFF07000400F7FF070003000900D9
:1041E00003000A000E0005000D0005000E0002028B
:1041F00002020202020202010D000000100102ECA4
:1042000082010000DC8202E682010000440F0216F7
:1042100083010000A70702E682010000450F02F8B3
:1042200082010000AC8102E682010000460F02FC20
:1042300082010000838102E682010000470F02FE36
:1042400082010000FF8002E682010000480F0200A8
:1042500083010000ED8002E682010000490F0202A6
:1042600083010000DB8002E6820100004A0F020C9D
:1042700083010000C98002E6820100004B0F021496
:1042800083010000918102E6820100004C0F02E8E8
:10429000820100004D0F01E803053F100A1C02ECEB
:1042A00082010000DF8202E682010000F30F10307D
:1042B00080020000B30802E282030000B50802E4B5
:1042C00082010000B98102E682010000F30F104074
:1042D00080020000B40802E282030000BB0802E48E
:1042E00082010000F381FFFFFF000130750302012E
:1042F00006000000000000000000000000000000B8
:1043000000000000000000000000000000FFFF06A9
:1043100000800CE80384030F0013094F666669638D
:104320006577656C6C2023303030303030051208F2
:10433000000800020A000201060302F1FF53696D42
:10434000706C6520424C45205065726970686572DA
:10435000616C4F666669636577656C6C20233030ED
:1043600030323333826E00008E6E0A486172647799
:1043700061726520496E666F726D6174696F6E005F
:104380000A50726573657420486569676874000235
:10439000506F7374757265204A756467656D656EDC
:1043A00074000A416374696F6E2052616E67650024
:1043B00008436F6E74726F6C20436F6D6D616E6435
:1043C00000125065736B20537461747573000A4C4E
:1043D0006F636B205374617475730002506F77655F
:1043E0007275702054696D657374616D7000001092
:1043F0004865616C74682044617461000A41757499
:104400006F6D617469632053657474696E677300BE
:10441000024175746F6D61746963205374617475C2
:1044200073000A557365722049640002EC82010032
:1044300000D98202E682010000C010021C83030042
:1044400000B60D02E482010000C11002E682010004
:1044500000D610021E83030000BA0D02E4820100A0
:1044600000D71002E682010000E51002208301005F
:1044700000C20D02E482010000E61002E6820100A3
:1044800000F810022283030000C40D02E482010040
:1044900000F91002E68201000006110224830200E6
:1044A00000C80D02E482010000071102E68201004B
:1044B000001711022683010000C90D02E2820300E9
:1044C00000CD0D02E482010000181102E682010015
:1044D000002411022883030000D30D02E4820100AE
:1044E00000251102E6820100003111022A83010039
:1044F00000D80D02E482010000321102E6820100C0
:10450000004511021283000000DC0D02E28203006C
:1045100000EC0D02E482010000461102E682010077
:10452000005211020A83030000F20D02E48201002E
:1045300000531102E68201000066110208830100A7
:1045400000F70D02E482010000671102E68201001B
:10455000007811020683030000FC0D02E4820100D2
:1045600000791100000000000000000000000000C1
:10457000000000000000000000000000000000003B
:10458000000000E5C754F84404F5C7790122000093
:104590000080FB124583B90003024604E4792178C8
:1045A00008B800028004F709D8FCE479297802B839
:1045B00000028004F709D8FCE4900280788E790C20
:1045C0008002F0A3D8FCD9FA781C9040B67A01BAE0
:1045D00000028007E493A3F608DAF9900E0DAA8290
:1045E000AB839040B778CD79058015E493A3AC8276
:1045F000AD838A828B83F0A3AA82AB838C828D8366
:10460000D8E9D9E77582B67583A1740412462C7572
:10461000828E758345740012462C75D00075813FDB
:10462000751A80751B02759F00024593C09FF59F08
:10463000E473D09F22D083D082C09FE493C0E07403
:104640000193C0E0740293F59F22E066701008A306
:10465000E066700A08A3E066700408A3E06622C35F
:10466000E7960809E7960809E7960809E79622C33E
:10467000E09608A3E09608A3E09608A3E09622C07F
:104680000AC3E096F50A08A3E096420A08A3E0965A
:10469000420A08A3E096450A7001D3D00A2208080E
:1046A00008E630E7111248871246B6080808C644E3
:1046B00080C618181822181818E9799EC608CAC6A4
:1046C00008CBC608CCC6C370207996CACBCC70196B
:1046D000798ECBCC70137986CC700EF9802ACA33D0
:1046E000CACB33CBCC33CC331930E7F2CCCBCA3383
:1046F00050147004EA30E00DE4CA3ACACB3BCBCC8C
:104700003CCC500209C3E913C6CC182313C6CB18FE
:10471000C6CA18C6F922E6C33318461846184622F8
:10472000E7C33319471947194722E6084608C31358
:104730004608336002E633F422E7094709C313470A
:1047400009336002E733F42212472A601C1247390A
:10475000601712471670071247207001D322C0D08D
:104760001247207006D0D0B322C32233D0D05014C9
:1047700030E0F6C3E7960809E7960809E7960809C6
:10478000E796B32220E0D5E6970809E6970809E600
:10479000970809E697B322080808EAC0E0EBC0E0F2
:1047A00086F0E7A4FA180986F0E7A42AFA18098621
:1047B000F0E7A42AFA180986F0E7A42AFA1986F085
:1047C000E7A4FBE5F02AFA190886F0E7A42BFBE53D
:1047D000F03AFA190886F0E7A42BFBE5F03AFA184C
:1047E000180986F0E7A4C5F02BFBE43AFA1908E7AC
:1047F000C5F0C6A426F6E5F03BFBE43AFA1886F0CD
:10480000E7A4F6E5F00826F6E43B08F6E43A08F6F5
:10481000D0E0FBD0E0FA22E4CFC0E0E4CEC0E0E498
:10482000CDC0E0E4CCC0E075F020C3E633F608E686
:1048300033F608E633F608E633F6181818EC33FCBE
:10484000ED33FDEE33FEEF33FFC3EC9709ED97092F
:10485000EE9709EF97191919400FFFEC97FC09ED36
:1048600097FD09EE97FE191906D5F0BEECF709ED94
:10487000F709EEF709EFF7191919D0E0FCD0E0FDC0
:10488000D0E0FED0E0FF22181818E4C396F608E442
:1048900096F608E496F608E496F6226016080808EC
:1048A000C6C313C618C613C618C613C618C613C681
:1048B000D5E0EA227009080808226016181818C600
:1048C000C333C608C633C608C633C608C633C6D502
:1048D000E0EA22E627F60809E637F60809E637F6A1
:1048E0000809E637F622E026F608A3E036F608A324
:1048F000E036F608A3E036F622E026F008A3E0361C
:10490000F008A3E036F008A3E036F022C3E697F6FD
:104910000809E697F60809E697F60809E697F622E9
:10492000C3E0C696F608A3E0C696F608A3E0C696CE
:10493000F608A3E0C696F622C3E096F008A3E09638
:10494000F008A3E096F008A3E096F022E657F608F8
:1049500009E657F60809E657F60809E657F622E091
:1049600056F608A3E056F608A3E056F608A3E0566C
:10497000F622E056F008A3E056F008A3E056F0084F
:10498000A3E056F022E647F60809E647F60809E6EE
:1049900047F60809E647F622E0F608A3E0F608A382
:1049A000E0F608A3E0F622E6F008A3E6F008A3E6A6
:1049B000F008A3E6F022E0FAA3E0FBA3E0FCA3E00A
:1049C000FD22EAF0A3EBF0A3ECF0A3EDF022CAC0C5
:1049D000E0E6F0A308DAFAD0E0FA22CAC0E0E0A3E9
:1049E000C582CCC582C583CDC583F0A3C582CCC5A5
:1049F00082C583CDC583DAE6D0E0CA22C3E498F845
:104A0000E499F9124A3D8026C3E49AFAE49BFBE953
:104A100020E7E9124A3DE498F8E499F922C3E498C2
:104A2000F8E499F9124A3DE498F8E499F9C3E49A54
:104A3000FAE49BFB22EB20E7CFE920E7E0B9001086
:104A4000BB0008E88AF084F8AAF022E4FBC8FA2246
:104A5000EB70227B10C833C8C933C9335007C39ADF
:104A6000C3DBF280069A50012ADBEAC833F4C8C9D6
:104A700033F4C9FA2275F008E4C833C8C933C9331E
:104A8000C99AC99B5004C92AC93BD5F0ECFBC8336D
:104A9000F4C8E4C9FA22600D08C6A2E713C618C616
:104AA00013C6D5E0F322600C08C6C313C618C6139C
:104AB000C6D5E0F422700422600D18C6C333C608C0
:104AC000C633C6D5E0F41822251A10AF08F51A40EF
:104AD00002151B8008F51A4002151BD2AF22C0D068
:104AE000251A10AF08F51A5002051B8008F51A5058
:104AF00002051BD2AFD0D022251AF58210AF08F5DF
:104B00001A4002151B8008F51A4002151BD2AF850A
:104B10001B8322251AF582E4351BF58322E47325D5
:104B20001AC582C0E0E51B34FFC583C0E0E51AC3A7
:104B3000958224F810AF0885831B85821A8008852A
:104B4000831B85821AD2AFCEF0A3E520F0A3780AAA
:104B5000E608F0A3DEFAEFF0A3E58124FAF8E60810
:104B6000F0A3E608F0A3E608F0A30808E608F0A31F
:104B7000E608F0A315811581D0E0FED0E0F815819C
:104B800015811581E8C0E0EEC0E022251AC582C07B
:104B9000E0E51B34FFC583C0E0E51AC3958224F924
:104BA00010AF0885831B85821A800885831B858248
:104BB0001AD2AFCEF0A3E520F0A3780AE608F0A35E
:104BC000DEFAEFF0A3E58124FBF8E608F0A3E6089F
:104BD000F0A30808E608F0A3E608F0A31581158104
:104BE000D0E0FED0E0F815811581E8C0E0EEC0E02D
:104BF00022851B83851A82E0A3FEE0A3F520780AB4
:104C0000E0A3F608DFFAE0A3FFE0A3C0E0E0A3C062
:104C1000E0E0A3C0E0E0A3C0E0E0A3C0E010AF0884
:104C200085821A85831B800885821A85831BD2AFF3
:104C3000D083D082024632851B83851A82E0A3FE90
:104C4000E0A3F520780AE0A3F608DFFAE0A3FFE08E
:104C5000A3C0E0E0A3C0E0E0A3C0E0E0A3C0E01098
:104C6000AF0885821A85831B800885821A85831B7D
:104C7000D2AFD083D08222C0D0251AC582C0E0E551
:104C80001B34FFC583C0E0E51AC3958224F310AF3F
:104C90000885831B85821A800885831B85821AD22A
:104CA000AFC8F0A3E9F0A3EAF0A3EBF0A3790AE719
:104CB00009F0A3D8FAECF0A3EDF0A3EEF0A3EFF027
:104CC000A3D0E0F0A3D0E0F0A3D0E0F0A3E520F083
:104CD000A3E5F0F0A322851B83851A82E0C0E0A340
:104CE000E0F9A3E0FAA3E0FBA3780AE0F608A3DF6B
:104CF000FAE0FCA3E0FDA3E0FEA3E0FFA3E0C0E038
:104D0000A3E0C0E0A3E0F5D0A3E0F520A3E0A3F585
:104D1000F010AF0885831B85821A800885831B8568
:104D2000821AD2AFD082D083D0E0F8D0E0327404BF
:104D30008006740280027401C0E0F404124AF8D0C4
:104D4000E01249CE227404800474028000CCC0E0DA
:104D5000EDC0E0E51AC39CCCAD1B50011D10AF06A1
:104D60008C1A8D1B80068C1A8D1BD2AF1249DBD09A
:104D7000E0FDD0E0FC22D083D082E9C0E0E493A340
:104D8000C386F0C5F095F0F908E493A386F0C5F06A
:104D900095F0700BE493A3C3994005E9048002A346
:104DA000E475F002A42582F582E5F03583F583D021
:104DB000E0F9E493A3C0E0E493C0E022D083D08282
:104DC000ECC0E0EDC0E0E493A3FCE493A3FDED4C64
:104DD000600D124E08EC24FFFCED34FFFD80EFE483
:104DE00093A3FCE493A3FDED4C600D124E47EC241D
:104DF000FFFCED34FFFD80EFD0E0FDD0E0FCE4935C
:104E0000A3C0E0E493C0E022C0E0C3E4939608743A
:104E100001939618400FE493667008087401936636
:104E20001870007019A3A3C3E493960874019396B5
:104E300018A3A3400DD0E0D0E0D0E0024DF8A3A32A
:104E4000A3A3A3A3D0E022C0E0C0F088F0E493665F
:104E500070080874019366187000A8F0A3A3700B83
:104E6000D0F0D0E0D0E0D0E0024DF8A3A3D0F0D055
:104E7000E022FFFF74F5124B8BEAFEEBFFEE2434C9
:104E8000F8EF3400F9880A890BEE2435F582EF3407
:104E900000F583E0F8EE2437F582EF3400F583E087
:104EA000F50CEC850CF0A4FCAAF0850CF0EDA42A1E
:104EB000FDE82CF8E43DF97A257B00124A3DEA85AD
:104EC0000A82850B83F0F8740758F97401B900025F
:104ED0008004C333D9FCFAE8131313541FF8EE28E7
:104EE000F8EF3400F9E8245DF582E93400F583E059
:104EF0005A6008EE2434F582EF802CEE2434F582DB
:104F0000EF3400F583E0C0E0EE2436F582EF3400A4
:104F1000F583E0F5F0D0E084A8F0EE28F8EF340057
:104F2000F9E82438F582E93400F583E0F97F0402DA
:104F30004C3774F5124B8BEAFEEBFFEE2434F5820E
:104F4000EF3400F583E0C0E0EE2435F582EF340065
:104F5000F583D0E0F08E828F83A3A3A3A3A3A3A3A2
:104F6000C082C0838E828F83A3A3A3A3A3E0F8A3F0
:104F7000E0F9D083D082E0C398F50AA3E099F50B5D
:104F8000EE247FF582EF3400F583E064017069EE72
:104F90002480F582EF3400F583E0F8A3E0F98E82F7
:104FA0008F83A3A3A3A3A3A3A3E0FCA3E0FD8E820E
:104FB0008F83A3A3A3A3A3E0FAA3E0FBC3EA9CEB24
:104FC0009D5010C3EC98ED99402EC3EA98EB995090
:104FD00027800EC3EA98EB994007C3EC98ED9940FF
:104FE000177CDB7D04EEFAEFFB12652EEE247FF5D5
:104FF00082EF3400F583E4F0EE2434F8EF3400F966
:10500000E8FCE9FDEE2435F582EF3400F583E0F8A5
:10501000EE2437F582EF3400F583E0F50CE50A85E0
:105020000CF0A4F50AAAF0850CF0E50BA42AF50B08
:10503000E8250AF8E4350BF97A257B00124A3DEAA7
:105040008C828D83F0F8740758F97401B9000280DE
:1050500004C333D9FCFAE8131313541FF8EE28F8ED
:10506000EF3400F9E8245DF582E93400F583E05A75
:105070006008EE2434F582EF802CEE2434F582EFC4
:105080003400F583E0C0E0EE2436F582EF3400F51D
:1050900083E0F5F0D0E084A8F0EE28F8EF3400F9D2
:1050A000E82438F582E93400F583E0F9125CAF02B8
:1050B0004F2DC082C083851A82851B83E0F8A3E050
:1050C000F9C3EA9CEB9D5010C3EC98ED99401BC3CB
:1050D000EA98EB995014800EC3EA98EB994007C305
:1050E000EC98ED994004790180027900D083D08258
:1050F00022EAC39CFAEB9DFB2274EF124B8B9003C8
:10510000A1E064086005E06407702A9061C8E0606F
:10511000249003CFE0F4601DE0F875F003A4C8AA62
:10512000F02AF974D128FE740339FF8E828F83A38D
:10513000A3A3E07003025229906060E0C0E0EE2477
:1051400068F582EF3400F583D0E0F0750E44750FFA
:1051500005750A00750B00E5D914F50CE5D9540363
:10516000F510601774036510605CE50C6010EE24A8
:1051700067F582EF3400F583E0700302520E90056C
:105180003FE06401602AEE2482F582EF3400F5836B
:10519000E06004780480027800850C0AE50AC39870
:1051A000FA95E0FB1263F68A0A8B0BEA450B700551
:1051B0001267328074EE2482F582EF3400F583E0CA
:1051C00070048A0E8B0FE50C6012850E82850F83AA
:1051D000F50DE5D9F0A3150DE50D70F6EE2482F579
:1051E00082EF3400F583E0604474FC250CF50C7804
:1051F0000E124D32AC0CA910EEFAEFFB1265CA7418
:1052000002124ADEE97026AA0AAB0B126DB6793D8E
:105210008E828F83A3A3A3A3E0FA7B001262CAEE5F
:10522000FAEFFB1265461265DC7900807474036541
:10523000106056850C127513007812124D32AC0EA8
:10524000AD0FAA0AAB0B1265A67402124ADEEE2459
:1052500068F582EF3400F583E064807004747F8029
:1052600001E0F50E780E124D36E510F50E780E12AF
:105270004D36A90CAC0AAD0B9003CFE0FA7B0012BF
:10528000628E7402124ADE80139003A1E06408600B
:105290000BAC0EAD0FEEFAEFFB12663612673E79DD
:1052A000017F0A024C3774F5124B8B74FC124AC80A
:1052B000EAFEEBFF890AA2AFE433F50BC2AF806AC6
:1052C000EE2463F8EF3400F97A007B00A2AFE433F8
:1052D000F50CC2AF88828983E0FCA3E0FDEC4D6051
:1052E0003A88828983E0FAA3E0FB8A828B83E0FC20
:1052F000A3E0FD88828983ECF0A3EDF08A828B83A2
:10530000E4F0A3F088828983E0FCA3E0FDEC4D701B
:105310000A88828983A3A3E4F0A3F0E50CA2E092BB
:10532000AF126DB69004E2E004F0EE2463F582EF74
:105330003400F583E0F8A3E0F9E849603DEE24632A
:10534000F582EF3400F583E02402FAA3E03400FB99
:10535000EA2402F50CEB3400F50D780C124D328A7C
:10536000828B83E0FCA3E0F9EEFAEFFB12656A742E
:1053700002124ADEE970030252C09004E2E0606368
:105380009004E3E0F89004E2E0C398500C740265E6
:105390000A70509004E4E0604A8E828F83A3A3A336
:1053A000A3E0851A82851B83F0A3E4F09004E2E079
:1053B000F87402124B13E8F0A3E4F09004E2E0F872
:1053C0009004E1E028F07402124B13AC82AD8385A7
:1053D0001A82851B83AA82AB83790112629A900498
:1053E000E2E4F0E50BA2E092AF7404124ADE024F51
:1053F0002DFFFFFF8521878522C622C0E0C0D0E8AF
:10540000C0E0E9C0E0EAC0E0EBC0E0ECC0E0EDC025
:10541000E0EEC0E0C00AC00BC00CC00DC082C0836B
:10542000C0F0A2AFE433FEC2AF759B00906182E092
:10543000A2E05012E591A2E0500C7591FE74016556
:105440002170031250F9E0A2E55051E591A2E55018
:105450004B7591DF9003A1E064076005E06408707C
:105460002374016521703579019003CFE0FA75F05E
:1054700003A4CAA8F028FB74D12AFA74033BFB12D8
:1054800052A68018E0640D70139003C3E004F0642A
:10549000287002E4F07A00E0F9126744906182E03B
:1054A000A2E64003025542E591A2E64003025542BE
:1054B0007591BF9003A1E06405700812666C1266D6
:1054C0007880031266727521001266D2E99003A2F9
:1054D000F079001266C61264A47A017B009003A0E2
:1054E000E0F912699C907803E0644270559005439E
:1054F000E014F0704DC2AF1254FA00782AD0E0F6F2
:1055000018D0E0F6E59F54077005750BFF80037512
:105510000B7FC4C0E07829E6F50A08E6550BF50BC9
:10552000740B780A124AA6D0E0250AF8906270E05F
:10553000A2E740F8E8C333906272F0906270E0D264
:10554000E0F0906181E0A2E35009E5E9A2E35003B5
:1055500075E9F7A3E0A2E75009E591A2E7500375CA
:10556000917FEEA2E092AFD0F0D083D082D00DD068
:105570000CD00BD00AD0E0FED0E0FDD0E0FCD0E0B3
:10558000FBD0E0FAD0E0F9D0E0F8D0D0D0E032C0E3
:10559000E0C0D0C082C083906183E0A2E05009E502
:1055A000BFA2E0500375BFFEE0A2E15009E5BFA233
:1055B000E1500375BFFDE0A2E25009E5BFA2E25051
:1055C0000375BFFBE0A2E35009E5BFA2E3500375FA
:1055D000BFF7E0A2E45009E5BFA2E4500375BFEFB6
:1055E000E0A2E55009E5BFA2E5500375BFDFE0A2E8
:1055F000E65009E5BFA2E6500375BFBFD083D08255
:105600008088C0E0C0D0E8C0E0E9C0E0EAC0E0EBDC
:10561000C0E0ECC0E0EDC0E0C0F0E5A7A2E6500FAE
:10562000E5A1A2E6500953A7BF75A1BF125667E5D1
:10563000A7A2E5500CE5A1A2E5500653A7DF75A18E
:10564000DFE5A7A2E15009E5A1A2E1500375A1FDA4
:10565000E5A7A2E2500CE5A1A2E2500653A7FB7514
:10566000A1FBD0F002557874F8124B8B7521019094
:1056700003A1E0640670151265FA8A828B83A3A3E6
:10568000A3A3A3A3E0FAA3E0FB12665AA2AFE433FC
:10569000FED2AF9003A7E0640170187A207B0090DF
:1056A00003A0E0F9126A2C7A207B009003A0E0F9B5
:1056B0001269A2906182E0D2E6F0900540E060219C
:1056C00085C62280169003A6E064017008E5C654E2
:1056D000F84405F5C653BEFC1253F474016521600D
:1056E000E4EEA2E092AF7F01024C37FF8E238F24BD
:1056F000858228858327851A82851B83E0CEA3E0D7
:10570000CF852882852783EBC9EAC8EDCBECCA7523
:10571000F010C3E833C8E933C9EA33CAEB33CBC36B
:10572000EA9EF526EB9FF525B35004AB25AA26EC9F
:1057300033CCED33CDD5F0DAAE23AF242274E912A9
:105740004B8B74F8124AC8851A82851B83ECF0A330
:10575000EDF08A0A8B0B9003A1E024F7C394055067
:1057600006750A010258D41265FA8A0C8B0DAE0C2C
:10577000AF0DEE4F70030258D1AC0AAD0B7402129C
:105780004B13AA82AB8312668A8E828F83A3A37582
:105790000EFF750FFF7510FF751100780E12495F2F
:1057A0007402124B137512FF7513FF7514FF7515F4
:1057B00000781212495F780E791212465F502A78EB
:1057C0000E791212490C750A01750BC8750C00751B
:1057D0000D00780A790E12465F5052850E0A850F29
:1057E0000B85100C85110D80507516017517C87545
:1057F000180075190085120A85130B85140C851580
:105800000D780A790E12490C7816790A12465F4013
:105810001C750A00750B00750C00750D01780A796E
:105820001212490C780A790E1248D3800C750A01BD
:10583000750B00750C00750D007409780A1248B4D8
:10584000750E19F50FF510F511780A790E12481733
:105850008E828F83A3A3A3A3A3A3E0F8A3E0F97A86
:10586000D07B03124A3D880E890FE4F510F51178BC
:105870000A790E1248D37406124B13E0F8A3E0F92C
:105880007AD07B03124A3DE8FA8A0EE4F50F780AD3
:10589000790E12465F5007780A790E12490C900370
:1058A000A1E06408600AE064066005E06405702D0C
:1058B000750E0D780E790A12465F4021750EF4754B
:1058C0000FFF7510FF7511FF780A790E1248D3800B
:1058D0000C750A00750B00750C00750D00851A8299
:1058E000851B83E0F8A3E0F5838882780A1249A734
:1058F0007408124ADE7F10024C3774F7124B8B1279
:10590000669C90053EE064017010906245E4F0A34F
:10591000F053F4F343FE0C5390F3126648E5C6547B
:10592000804449F5C6E59E547F644970F8906185CE
:10593000740FF090053CE0F47002A3E0604E900517
:105940003DE0600814601B14602E8040750A0175EC
:105950000B0090053CE0780A124AB5E50AF4528043
:10596000802A750A01750B0090053CE0780A124AFE
:10597000B5E50AF452908014750A01750B00900584
:105980003CE0780A124AB5E50AF452A079007F0299
:10599000024C3774F7124B8BE9FEEAFF74016E700C
:1059A0000C7A807B009003A0E0F912699C906EE86D
:1059B000E493F46008E493F9126498800953C68074
:1059C000E59E547F70FA12664E90053EE0640170C9
:1059D000031264B090053CE0F47002A3E0604B90C9
:1059E000053DE0600814601A14602C803D750A01C2
:1059F000750B0090053CE0780A124AB5E50A428032
:105A00008028750A01750B0090053CE0780A124A5F
:105A1000B5E50A42908013750A01750B0090053CAC
:105A2000E0780A124AB5E50A42A012669C1265FAAD
:105A30008A0A8B0BA80AA90BE8496015E5E170FCFE
:105A4000E82414F582E93400F583E0F46003E0F51E
:105A5000E174016F700A7A019003A0E0F91269F60F
:105A600002598E74ED124B8B8A0A8B0B8C0C8D0DA8
:105A70007413124B13780E124998780A790E124655
:105A80005F7512017513C8751400751500501278F2
:105A90000A790E12490C7812790A12465F50168064
:105AA00010780E790A12490C7812790E12465F406E
:105AB000047901800279007F0C024C3774ED124B9F
:105AC0008B8A0A8B0B8C0C8D0D7413124B13780E72
:105AD000124998780E790A12465F4011780A790EB9
:105AE00012490CAA0AAB0BAC0CAD0D80227512004A
:105AF0007513007514007515017812790E12490C92
:105B00007812790A1248D3AA12AB13AC14AD1580DF
:105B1000A68A828B83750AFF750BFF750CFF750DC6
:105B200000780A1249727F04024C3774F5124B8BCD
:105B30008C828D83780A1249988A828B83780A1224
:105B40004938EA2404F8EB3400F98C828D83A3A34E
:105B5000A3A3E0FCA3E0FD88828983C3E09CF0A3BB
:105B6000E09DF088828983C3E09420A3E0944E40B6
:105B7000268A828B83750AFF750BFF750CFF750DE6
:105B8000FF780A1248F98A828B83A3A3A3A3E02497
:105B900020F0A3E0344EF0025B1174F5124B8BE958
:105BA000FE9004F6E0FAA3E0FBEEC333F8E433F929
:105BB000747328F582748139F583E02AF50AA3E02D
:105BC0003BF50B780A124D327A407B427C0F7D0008
:105BD0001256EC7402124ADE8A0A8B0B8C0C8D0D65
:105BE0007410780A12489BAA0AAB0B7F04024C3748
:105BF00074F1124B8B8A0E8B0F8C108D11740F1257
:105C00004B13E0FAA3E0FB7411124B13E0F50AA367
:105C1000E0F50B780A124D32EA2401F50AEB340064
:105C2000F50BE4F50CF50D780E790A124797750A15
:105C300071750B02780E790A124797AA0EAB0FAC5A
:105C400010AD111256EC7402124ADE8B0BEA450BB2
:105C500060047A0180027A00EC2AFCED3400FD74C5
:105C600013124B13E0F8A3E0F9E8FEE9FFECF8EDBE
:105C7000F97A717B02124A3D880A890B8E828F83E2
:105C8000780A1249A7ECF8EDF97A717B02124A3DC5
:105C90008A0A8B0B7405780A124AB58E828F83A309
:105CA000A3A3A3E50AF0A3E50BF07F08024C37C0DD
:105CB00082C083E9906000F0D083D08222C2AF021C
:105CC000000022C0E074F2124C77A2AFE433FED29F
:105CD000AFC2C0E5D1A2E4500653D1EF126D5C759E
:105CE0001C00EEA2E092AF7F01024CD6C0E074F23D
:105CF000124C77A2AFE433FED2AFE589A2E15003A4
:105D0000126C96758900C2C5751C00EEA2E092AFB8
:105D10007F01024CD6C0E074F2124C77A2AFE4339C
:105D2000FED2AFE58BA2E05003126C96758B00C2D9
:105D3000E880D5C0E0C0D0E8C0E0E9C0E0E5A8D286
:105D4000AFC2C7751C00A2E7A2E792AFD0E0F9D0BE
:105D5000E0F8D0D0D0E032C0E074F2124C77A2AFBD
:105D6000E433FED2AF758900C2C590089D7401F07E
:105D7000751C00FA900892E0F91269F69008ADE0FF
:105D8000F8A3E0687002D285EEA2E092AF7F010234
:105D90004CD6C0E0C0D0E8C0E0E9C0E0C00AC00B0B
:105DA000C082C083A2AFE433F9D2AF9008ADE0F86F
:105DB000A3E0687008539AFBA374018026C2E9909F
:105DC00008ADE0F50A7401250AF074A9250AF582E8
:105DD00074083400F583E0F5C19008ADE0C3940485
:105DE0004002E4F0E9A2E092AFD083D082D00BD0A1
:105DF0000AD0E0F9D0E0F8D0D0D0E03212463545F4
:105E000092041246355C92041246358D9204124675
:105E100035C89204124635F292041246351C93049A
:105E20001246353393041246354A930412463561BF
:105E300093041246358A93041246359D9304124604
:105E400035B39304124635C69304124635ED9304D8
:105E50001246350198031246350599031246353D21
:105E600099031246356099031246356B9903124621
:105E7000358E99031246359D9A03124635729B035F
:105E8000124635ED9B03124635759C03124635B01C
:105E90009C03124635E79C03124635759D03124656
:105EA000354E9E03124635AE9E03124635B99E030B
:105EB000124635389F031246353B9F031246353E46
:105EC0009F03124635CD9F03124635D09F031246DD
:105ED0003500A0031246352AA00312463518A10347
:105EE000124635CAA10312463528DF031246355043
:105EF000DF031246357EDF03124635B5DF03124657
:105F00003513E0031246355EE003124635A9E0037F
:105F1000124635E9E0031246352FE1031246355D9E
:105F2000E1031246351AE20312463524E203124613
:105F30003531E20312463564E20312463530E3039D
:105F40001246353CE30312463554E3031246355EF0
:105F5000E303124635C59E04124635D39E0412460D
:105F600035EB9E04124635039F0412463576A30294
:105F700012463522A4021246359DA402124635BEB1
:105F8000A502124635FAA502124635A3A60212460C
:105F9000358AA702124635EEA80212463545A902F7
:105FA000124635C6A902124635B6AA021246350374
:105FB000AB0212463589AB02124635BBAB02124624
:105FC00035CFAD0212463511AE021246352FAE0264
:105FD000124635B2AE0212463586AF021246354E33
:105FE000B00212463525C503124635F8C5031246E0
:105FF00035A1C603124635F4C603124635A4C703BD
:1060000012463530C8031246351CC9031246354BBB
:10601000C9031246355ECA03124635A6CA031246A4
:10602000357BCB03124635B7CB03124635D3CB03B2
:10603000124635D3A00412463516F5031246352C08
:10604000F50312463552F5031246356EF603124635
:106050003578F603124635ADF703124635A5F80339
:1060600012463501DA0312463531DB031246356438
:10607000DB03124635AEDB0312463575DD031246EF
:1060800035EC6E00124635566F00124635B570007D
:10609000124635C57000124635F270001246354979
:1060A0007100124635F27100124635F9720012463F
:1060B00035C37300124635237500124635667500E8
:1060C0001246350B76001246355876001246357E5C
:1060D00076001246358C78001246359178001246CB
:1060E00035967A00124635E37A00124635567B0023
:1060F000124635897B001246352B7C00124635D47A
:106100007C001246350C7D001246350F7D0012468C
:1061100035577D00124635977D00124635EE7D00DD
:106120001246352B86041246354386041246358BBB
:106130008604124635A18604124635E886041246C6
:1061400035FC8704124635898804124635D4880404
:10615000124635529E011246355E9E011246359911
:106160009E01124635DE9E011246359E9F01124663
:106170003524A00112463589A001124635B5A0018B
:10618000124635EEA0011246352CA30112463510F9
:10619000A501124635F6A60112463539A801124668
:1061A0003587AA0112463599AB01124635E4AC0198
:1061B000124635F4AD0112463511AE011246354C8A
:1061C000AE011246356EAE01124635D1AE01124611
:1061D0003592B30112463527B40112463578B40121
:1061E0001246359FB401124635F1B4011246350FFF
:1061F000B50112463569B50112463552B60112464F
:1062000035C8B7011246354CB801124635E5E303EF
:10621000124635EFE30312463532E4031246354D9C
:10622000E403124635DDE40312463505E503124664
:106230003542E50312463579E503124635A2E503FA
:1062400012463517E6031246352CE6031246354151
:10625000E60312463572E60312463586E603124619
:1062600035ABE603124635E5E60312463511E70382
:106270001246359DE703124635C8E703124635112D
:10628000E8031246353BE80312463566E80312463A
:1062900035DB7E001246350080031246352E800322
:1062A0001246357C81031246355C82031246357BEB
:1062B0008203124635F882031246353B83031246A9
:1062C00035918403124635528503124635D987032A
:1062D0001246357A88031246357089031246356DA9
:1062E0008A03124635C78B03124635528C03124679
:1062F00035779A04124635E09A04124635349B04E9
:106300001246355B9B041246358C9B041246358E33
:10631000E803124635FBE80312463542E90312460C
:10632000355AEA0312463556EB0312463539EC036B
:106330001246351CAC031246355EAC0312463530AE
:10634000AD0312463509AE0312463503AF031246BC
:1063500035E5AF031246354EB00312463504B1039E
:1063600012463578B103124635E4B1031246350DB5
:10637000B20312463587B20312463520B3031246E4
:106380003585B3031246359AB303124635E0B3039D
:10639000124635F9B3031246355EB4031246356131
:1063A000B4031246353283041246355A830412462A
:1063B00035988304124635568404124635BD84044C
:1063C000124635D98404124635018504124635310A
:1063D0008504124635408504124635BD85041246B3
:1063E00035E38504124635139402124635F19502C1
:1063F0001246352398021246355F98021246358CB4
:106400009802124635769902124635C19902124613
:10641000350C9A021246351E9A021246355E9A02D1
:10642000124635939A02124635E19A021246351009
:106430009B02124635339B02124635809B02124660
:1064400035059C021246351F9E021246355EA0029B
:106450001246359FA00212463541A20212463582ED
:10646000A202124635F5A2021246354BA30212468D
:1064700035D5EA02124635D3EB021246356CF202EC
:106480001246358DF40212463558F602124635C0D2
:10649000F702124635B3B80112463562B901124609
:1064A000358FB901124635D5B90112463515BB01F4
:1064B000124635ABBC0112463525BD0112463540AA
:1064C000BD01124635BBBD0112463515BF0112464E
:1064D0003575C0011246357BC101124635DCC2015B
:1064E000124635F5C20112463553C30112463541F5
:1064F000C40112463574C401124635E4C401124683
:10650000355EC501124635A8C50112463572C60171
:1065100012463547C70112463526C801124635B125
:10652000C8011246351FC90112463593C9011246EA
:1065300035BEC9011246357DCA01124635E2CB018E
:10654000124635FFCB011246351ECC011246350FDF
:10655000CD0112463534CD011246355ECD011246CD
:1065600035D9CD0112463533CE011246359CCF01C7
:106570001246354AD0011246358BD00112463501FC
:10658000DD021246354FDD021246355BDD02124652
:106590003539DE021246356ADE021246359BDE02CE
:1065A0001246351BDF0212463553DF02124635A56F
:1065B000DF02124635E2DF02124635FFE1021246E3
:1065C0003525E40212463510E602124635FAE70296
:1065D000124635F47F0012463500800212463530EF
:1065E00080021246350987021246358E880212460D
:1065F000358B8E02124635738F02124635B08F02EC
:10660000124635D38F021246350490021246350DDC
:106610009002124635179002124635059102124635
:1066200035FB910212463551E60112463550EA011A
:1066300012463556EA0112463591F101124635AA45
:10664000F60112463548F103124635DEF1031246D3
:1066500035F4F1031246356AF203124635DEF203D1
:106660001246351CF30312463590F30312463509E2
:10667000F40312463512F4031246351EF403124693
:106680003533F40312463571F40312463587F403AB
:10669000124635E6F403124635FBEC031246350884
:1066A000ED0312463522ED0312463561ED03124625
:1066B000359FED0312463504EE0312463519EE03FD
:1066C00012463524EE0312463531EE0312463548A4
:1066D000EE0312463556EE0312463561EE031246BE
:1066E000356DEE031246357CEE0312463587EE0318
:1066F000124635AAEE0312463551EF0312463561B4
:10670000EF031246357BEF0312463598EF0312462E
:1067100035B4EF03124635D9EF03124635E4EF03E3
:10672000124635F9EF031246350DF0031246356E69
:10673000F00312463574F0031246357AF003124620
:106740003580F00312463598F003124635CBF0033E
:10675000124635D8C0021246355CC1021246350BCE
:10676000C2021246356AC3021246358BC502124672
:106770003577C602124635ACC602124635CEC60281
:106780001246357DC70212463575C9021246359E3E
:10679000C90212463530CA0212463562CA02124692
:1067A000356FCA02124635C6CA02124635ECCA0215
:1067B00012463559CD021246355CCE02124635B42A
:1067C000CE0212463567B20212463571B302124646
:1067D0003558B40212463562B40212463584B4020A
:1067E00012463590B40212463529B6021246355883
:1067F000B60212463574B702124635CDB7021246BC
:106800003533B90212463512BA021246356EBA0253
:10681000124635DBBA0212463516BB021246355512
:10682000BB021246350EBE0212463528BE02124683
:1068300035B4BE02124635C2BE021246351BBF0237
:1068400012463529BF021246359CBF02124635005A
:10685000C0021246354AC002124635D38C03124696
:1068600035F58C031246351B8F03124635309203E3
:10687000124635489303124635FB9303124635DD25
:106880009403124635FF93041246352494041246AD
:1068900035969404124635EAF702124635F3F702AC
:1068A000124635FCF702124635D3F80212463584FB
:1068B000FA02124635BAFA02124635F4FA021246C4
:1068C000352AFB0212463564FB0212463598FB025C
:1068D000124635C4FB021246350DFC0212463547FE
:1068E000FC0212463590FC02124635E8FC021246C4
:1068F000351DFD0212463578FD02124635B2FD0205
:1069000012463503FE0212463539FE021246357331
:10691000FE02124635A1FE02124635C4FE021246A0
:10692000359C9F04124635C89F0412463523A004A7
:106930001246352DA0041246353DA0041246358579
:10694000B4031246358FB403124635CDB403124654
:106950003516B50312463550B503124635AAB503B0
:10696000124635CBB503124635A3B803124635ACF3
:10697000B803124635F9B80312463522B903124658
:10698000352CB90312463598B9031246352ABA0395
:1069900012463574BA03124635AABA031246353682
:1069A000BB0312463577BB03124635AEBB03124616
:1069B00035C0BB03124635DFBB03124635E8BB03C7
:1069C000124635B5BC03124635D29B04124635C972
:1069D0009C041246355490041246358A900412469F
:1069E00035C090041246350B920412463564FF02FE
:1069F0001246357AFF0212463584FF02124635CE22
:106A0000FF0212463557A10412463560FB011246BB
:106A10003575FB0112463525FC0112463565FC0132
:106A20001246357EFC01124635B9FC011246350688
:106A3000FD0112463538FD011246357AFD01124638
:106A4000357BFF01124635E898041246351199044A
:106A5000124635409904124635D89904124635F04D
:106A60009904124635329A041246350080011246C6
:106A7000355A8001124635028101124635FB8101EB
:106A8000124635A08201124635A78301124635C54C
:106A90008301124635A38401124635C28401124691
:106AA000355A85011246354D8601124635A08601BC
:106AB000124635FB8601124635228801124635768C
:106AC0008C011246350D8D01124635DA8D011246C4
:106AD00035348E011246356A8E01124635E98E0133
:106AE000124635738F01124635E68F011246358FF7
:106AF0009001124635A79001124635D590011246F5
:106B00003506910112463504920112463559940119
:106B1000124635C69601124635F8970112463516CB
:106B2000990112463524990112463564990112469D
:106B300035549A01124635C39A01124635F29A012C
:106B4000124635399B011246358B9B011246354F53
:106B50009C01124635739C01124635E59D01124693
:106B6000350F9E01124635FE8804124635238904EE
:106B70001246354D89041246350EA204124635BB25
:106B8000D00112463520D301124635C1D401124638
:106B90003575D50112463508D6011246358DD60118
:106BA000124635B2D60112463508DA011246358E44
:106BB000DA01124635C1DB01124635FBDB01124614
:106BC0003530DC01124635F0DD011246354DDE016F
:106BD00012463596DE0112463501DF011246357246
:106BE000DF01124635A4DF01124635BCDF01124633
:106BF0003505E10112463515E10112463530E20155
:106C000012463552E20112463588E2011246353C01
:106C1000E401124635C9E40112463508E501124681
:106C2000352CE60112463533FF0312463544FF0387
:106C300012463564A204124635A3A204124635E971
:106C4000FF03124635F4FF03124635EDFF011246ED
:106C500035DE9D04124635EE9D04124635069E042F
:106C6000124635B89E04124635DA9C041246355F4A
:106C70009D04124635C59D041246354697041246BA
:106C8000356F9704124635D59704124635F59704AB
:106C9000124635469804124635A19804124635DB53
:106CA0009804124635DE9804124635AFF8031246B2
:106CB00035C4F803124635EFF9031246356BFA0373
:106CC000124635DFFA03124635F9FA03124635103B
:106CD000FB0312463523FB031246353DFB031246E8
:106CE0003554FB031246357AFB03124635CBFB03C2
:106CF00012463555A30412463565A304124635687D
:106D0000A304124635F87F001246350F8E04124652
:106D100035AA8F041246350B900412463551900463
:106D200012463500FC0312463599FC031246350124
:106D3000FD03124635C3FD0312463538FE031246E5
:106D40003562FE031246356BFE03124635DBFE0349
:106D500012463513FF031246351DFF031246353028
:106D6000FF0312463547A004124635B6A00412466A
:106D700035C8A00412463548CC0312463585CC03ED
:106D8000124635A0CC0312463571CD031246355F4D
:106D9000CE031246350CD0031246357ED003124680
:106DA0003566D103124635EDD1031246350DD303B6
:106DB000124635A49504124635F6950412463580E0
:106DC0009604124635E79604124635CA8B041246DD
:106DD00035F48B04124635C28C041246359D8D0461
:106DE000124635E3BC03124635AABD03124635E10F
:106DF000BD031246350BBE031246356BBE03124669
:106E000035C1BE0312463526BF03124635BEBF0349
:106E1000124635CDC00312463564C203124635F121
:106E2000C20312463558C3031246356FC3031246D8
:106E30003589C403124635C7C40312463502CF0252
:106E400012463583D2021246350BD4021246356201
:106E5000D40212463581D402124635FFD4021246BE
:106E60003595D6021246357AD70212463588DB02AE
:106E70001246355EDC021246353BA2031246358AC5
:106E8000A6031246355DA70312463591A8031246A4
:106E90003501AA0312463581AB0312463508AC030F
:106EA00012463551D303124635A1D303124635BEDF
:106EB000D30312463593D50312463531D603124615
:106EC0003535D703124635C8D903124635E3A20437
:106ED000124635ADA2041246350FA30412463537CB
:106EE000A304FFFFFFFFFFFFFFFFFFFF74F6124B3E
:106EF0001F9002D174FEF0A304F09002D4F090022F
:106F0000D3F07A018A0A750B007402780A124AB526
:106F100074D1250AF87402350BF9EA8882898370E6
:106F20000774FEF0A304800474FFF0A3F088828944
:106F300083A3A3A3F088828983A3A3F00AEAC3945E
:106F40000240C17ACC7B601261207A1A7B611263A5
:106F5000A87900027B2E74F2124B1FEAFEEBFF8E23
:106F6000828F8312755E605212708B1270AA750D3B
:106F700000780C124D328A828B83A3124D497C0219
:106F80007D007AEC7B82125EDA7404124ADEE970CC
:106F90002E850A82850B831270AA780C124D328AD4
:106FA000828B83A3124D497C027D007AEA7B821298
:106FB0005EDA7404124ADEE9700579020270869086
:106FC0000ECA12755E600CC3E498FAE499FB127065
:106FD0009B500579010270867A067B001269DE8A71
:106FE0000C8B0DEA450D700579130270867A007BD3
:106FF000008040900ECA127A6F8A0E8B0F7403784D
:107000000E124AB5850A82850B83E0250EF8A3E0AF
:10701000350F8882F583A3A3A3A3ECF0A3EDF09032
:107020000ECAE02401F0A3E03400F0EA24010AEBE8
:107030003400FB12709B40BB850C82850D83E4F00D
:10704000A3F0750A04F50B780A124D32EEFCEFFD41
:107050001278781269427402124ADE9002D91275CF
:107060005E9002D96017E0FAA3E08003E8FAE9FB3A
:107070008A828B8312755E70F38A828B83E50CF0B3
:10708000A3E50DF079007F06024BF1EE2402F50A2C
:10709000EF3400F50B850A82F583228E828F83E020
:1070A000F8A3E0F9C3EA98EB9922127A908A828BCE
:1070B00083E0F50C22C082C083E9900EC9F0D08332
:1070C000D08202463274F7124B1FE9FE74145E60E0
:1070D000047C018007EEA2E650097C00791012635F
:1070E000D2800AA2E040047902800279007F010286
:1070F0004BF174F7124B1F890AECFEEDFFE9A2E594
:1071000050097C0179101263D2803C7488550A6062
:107110002B7408550AFC79101263D2E96027EE241B
:1071200018F582EF3400F583E0601CEE2417F58239
:10713000EF3400F583E06401600B800BE9A2E140CD
:107140000479038002790080A474F4124B1F74E95F
:10715000124AC8EAFEEBFF890AE4F50CF50D780C3B
:10716000124D32750C02780C124D32750C18750DDB
:1071700083780C124D327CFF7DFF7A017B00126018
:10718000A27406124ADE8A828B83E58245836056AA
:10719000127C11851A82851B83E8F0A3E9F0740242
:1071A000124B137404F014124B137401F074041294
:1071B0004B13E4F07405124B1374FFF07406124B7A
:1071C0001374FFF0E50AF50B780B124D3679007455
:1071D00001124B13AC82AD83EEFAEFFB1260BA746E
:1071E00001124ADE800279017417124ADE7F04021E
:1071F0004BF174EA124B1F8A148B158C128D13906D
:1072000002D9E0F50AA3E0F50B7416124B13E0F572
:1072100016A3E0F5177418124B13E0F50CA3E0F574
:107220000D800D850A82850B83E0F50AA3E0F50B3E
:10723000E50A450B70030272F07E007F00E50A2428
:1072400004F510E50B3400F5118008EE24010EEF73
:107250003400FF850A82850B83127C13C3EE98EFFE
:107260009950C08E0E8F0F7403780E124AB5851098
:1072700082851183E0250EF50EA3E0350FF50F850D
:107280000E82F583127C11C3E89514E9951540BB75
:10729000C3E51298E5139940B2E50C450D602378DB
:1072A0000C124D327816124D32850E82850F83E016
:1072B000FC7D00A3127A8C125EDA7404124ADEE9B5
:1072C0006089741A124B1312755E601E85108285D8
:1072D0001183E0FAA3E0F5838A82A3A3A3A3127A21
:1072E0008C88828983EAF0A3EBF0AA0EAB0F8004AE
:1072F0007A007B007F0E024BF174EE124B1FECFE06
:10730000EDFF9002D9E0FCA3E0800A8C828D83120D
:107310007C15E8FCE9FDEC4D70030273BA8C828D9C
:1073200083127C11880A890B8882F583A3A3A3A307
:10733000E0F50EA3E0F50FC3EA950EEB950F40CBF9
:107340008C828D83A3A3E0F510A3E0F511E50E2553
:1073500010F8E50F3511F9C3EA98EB9950AD750CAB
:1073600000750D00800CE50C2401F50CE50D3400D2
:10737000F50DC3E50C9510E50D9511508E850C1299
:10738000850D1374037812124AB5E50A2512F8E543
:107390000B3513F988828983A3A3A3A3E06A700342
:1073A000A3E06B70C1EE4F600B8E828F83E50EF011
:1073B000A3E50FF0E8FAE9FB80047A007B007F0A7E
:1073C000024BF174F0124B1F74FE124AC8EAFEEB36
:1073D000FF750A00750B00851A82851B83E4F0A3F4
:1073E000F0EE2404F50EEF3400F50F850E82F583E0
:1073F000127C1BA385820C85830D74FF6A70037455
:10740000FF6B603D851A82851B8385820A85830B0D
:10741000780A124D328E828F83E0F50A750B007860
:107420000A124D32850C82850D83124D49EA2401E2
:107430000AEB3400FB1260A27406124ADE8A0A8B41
:107440000B8E828F83127CCB124D32850C82850D80
:1074500083124D497C027D007AEC7B82125EDA74E5
:1074600004124ADEE970288E828F83E0F5107810CE
:10747000124D32850C82850D83124D497C027D00B0
:107480007AEA7B82125EDA7404124ADEE9600B85C6
:107490000E82850F83127A8C80458E828F83E0F571
:1074A000107810124D32850C82850D83124D497C67
:1074B000027D007AE67B82125EDA7404124ADEE90B
:1074C00060367412124B13127A8CE50A450B600F6A
:1074D000851A82851B83E06A7003A3E06B60051246
:1074E00060C6801F850A82850B83A3A3A3A3E02423
:1074F000FFFAA3E034FF800A850E82850F83E0FA4D
:10750000A3E0FB7414124B13127C1588828983E567
:107510008245836005EAF0A3EBF0AA0AAB0B740284
:10752000027C23C082C0839002D912755E602888D5
:10753000828983A3A3A3A3E0FCA3E0F5838C82A3A9
:10754000A3A3A3E06A7003A3E06B8882898370DA47
:10755000A3A3127A8C80047A007B000270BEE0F84C
:10756000A3E0F9E8492274F2124B1F74FE124AC8D4
:10757000EAFEEBFF8C0A8D0B890C851A82851B8332
:10758000AC82AD83126108E9F50D706FE50C6010F7
:107590007C017910EEFAEFFB1263D2E9F50D705B16
:1075A000AC0AAD0BEEFAEFFB125E4AE9F50D704B3B
:1075B000851A82851B831276057410124B13E0F531
:1075C0000A74FF650A6034EE2402F50EEF3400F50C
:1075D0000F780E124D32750E1E750F00780E124D7B
:1075E00032EEFCEFFD7A147B611261447404124A9E
:1075F000DE8E828F83A3A3A3E50AF0A90D74021285
:107600004ADE027086E0FEA3E0FF2274F5124B1FF3
:1076100074FE124AC8EAFEEBFF8C0A8D0B890C85BA
:107620001A82851B83AC82AD83126108741769606E
:107630001DE50C600E7C017910EEFAEFFB1263D2AF
:10764000E9700BAC0AAD0BEEFAEFFB125E4474026C
:10765000124ADE7F03024BF174F6124B1FEAFEEB77
:10766000FF1260B4EA4B600FEE24FFF8EF34FFF92D
:10767000EA28FAEB398003EEFAEFFB027B2E74F076
:10768000124B1F74E3124AC88A0A8B0B127A5EE00F
:10769000F511741E6511705412610E8A0C8B0DEA7F
:1076A000450D7003027871EA2403F50EEB3400F502
:1076B0000FE4F510F5117810124D328E828F83E0B1
:1076C000FD7C00AA0AAB0B850E82850F83E0F912C0
:1076D000613E7402124ADEE9F51012787812614AAE
:1076E000850E82850F8374FFF0027871900EC9E0D9
:1076F000F4606BE511C394195064E511C313F50CE4
:10770000750D007402780C124AB57400250CF874DB
:1077100080350DF9E824FCFAE934FFFB8A0E8B0F63
:107720008A82F583127A8CEA4B6033E824FEF58274
:10773000E934FFF58312755E60248C828D83A38506
:10774000820C85830D8C828D83E0F9700B850C8211
:10775000850D83E06401700B741265116005790674
:107760000278737404124B1385821085831178108C
:10777000124D328C828D83A3A3A3124D498C828D2E
:1077800083A3A3A3A3A3127A6F850C82850D83E044
:10779000FA850E82850F83127883124B1D740412B2
:1077A0004ADEE9F51060030278717404124B13ACE1
:1077B00082AD83AA0AAB0B8E828F83E0C313F50ED2
:1077C000750F007402780E124AB574FE250EF5820C
:1077D000747F350FF583127883124B1DE9F5107015
:1077E000368E828F83E0FD74046D700302787174AD
:1077F00004124B1385820C85830D780C124D327C5C
:1078000000AA0AAB0B900EC9E0F912613E74021295
:107810004ADEE9F510805A850C82850D83E07051AF
:107820008E828F83E0851A82851B83F07403124B4E
:1078300013E9F08E828F83E0F8740468600D74069B
:1078400068600874086860037410687404124B134D
:10785000127C157401124B13E8F0A3E9F0851A822B
:10786000851B83AC82AD83AA0AAB0B125DFC75103D
:1078700000A910741D027C23E50C2402FAE50D34E6
:1078800000FB22E0F8A3E0F583888222790002461B
:107890003274F0124B1F74EA124AC88A0E8B0F8C96
:1078A000828D83127A8C750C00127A5EC3E09AA3E3
:1078B000E09B4004EA4B70057901027A59851A82EF
:1078C000851B83E4F0E4F50AF50B780A124D327853
:1078D0000A124D32780A124D328E828F83127A6FDD
:1078E0001260A27406124ADE8A0A8B0BA80AA90B40
:1078F000E84970030279B888828983A3AA82AB839E
:10790000E82404F50AE93400F50B851A82851B8307
:10791000E060030279C988828983E06402700B7495
:1079200001124B137401F00279D67401124B1374D7
:1079300002F0127A7575F012A4F885F00DA90DE524
:107940008228F582E58339F583A3A3ECF0A3EDF05B
:107950007510107511007810124D32127A6B740286
:10796000124B13E075F012A4F8A9F0E58228F8E5AF
:107970008339F9E82404FAE93400FB1269427402FD
:10798000124ADE851A82851B83E004F0700F850A97
:1079900082850B83E0F47003A3E0F47003750C019F
:1079A000850A82850B83E02401FAA3E03400FBE51D
:1079B0000CA2E040030278C5851A82851B83E06033
:1079C00003027A4C790A027A597401124B13E0646B
:1079D00001600302793288828983E0640270D912DF
:1079E0007A75F51075110074027810124AB5E582A7
:1079F0002510F582E5833511F583A3A3ECF0A3ED03
:107A0000F07510027511007810124D32127A6B74F5
:107A100002124B13E0F51074027810124AB5E58299
:107A20002510F8E5833511F9E82404FAE93400FB60
:107A30001269427402124ADE851A82851B83E004B1
:107A4000F0C39405400302799D02798EAC82AD8328
:107A5000AA0EAB0F125E0879007416027C23EC2488
:107A600002FEED3400FF8E828F83228A828B83E0B8
:107A7000FCA3E0FD22850A82850B83E0FCA3E0FDE8
:107A8000851A82851B83E0228E828F83127A902250
:107A9000E0FAA3E0FB2274F6124B1F127B40400475
:107AA000EA4B700479018039E4F50AF50B780A1283
:107AB0004D328C828D83A3A3A3A3E0F50A780A122A
:107AC0004D32127B33124D32EEFCEFFD1260A27488
:107AD00006124ADE8B0BEA450B7004790A800279A4
:107AE00000804B74F6124B1F127B404004EA4B702F
:107AF0000479018039E4F50AF50B780A124D328CCD
:107B0000828D83A3A3A3A3E0F50A780A124D321253
:107B10007B33124D32EEFCEFFD1260A27406124A66
:107B2000DE8B0BEA450B7004790A800279007F0234
:107B3000024BF1EC2405F50AED3400F50B780A222E
:107B40008C828D83A3A31276058C828D83127A900A
:107B5000C3EE9AEF9B2274F6124B1FEAFEEBFF8CEA
:107B6000828D837C007D00127A8C1260A88A828BC1
:107B700083E582458370047901800CA3A3A3E0F917
:107B8000EEFAEFFB12609080A574F0124B1F8A0C86
:107B90008B0DECFEEDFF750E008002050EEE241637
:107BA000F582EF3400F583E0F8E50EC398505EE50A
:107BB0000EC333F8E433F9EE28F50AEF39F50B7C00
:107BC000007D00850A82F583127A8C1260A88A8271
:107BD0008B83E58245837016850A82850B83127C30
:107BE000158E828F83E8F0A3E9F079018021A3A3A9
:107BF000A3E0F9AA0CAB0D126090E9609E850A82A1
:107C0000850B83127C1BEAF0A3EBF08002790080E5
:107C100015A3A3A3A3E0F8A3E0F922127A908E8221
:107C20008F8322124ADE7F08024BF174F0124B1F41
:107C3000ECFEEDFF8E828F83127C1512708BC3E0F9
:107C400098A3E0994004E84970047901807AEE2411
:107C500005F50EEF3400F50FEE2404F50CEF3400BB
:107C6000F50D850C82F583127CCB124D32780E1205
:107C70004D327C027D007AEC7B82125EDA74041253
:107C80004ADEE970047910803FE4F5107810124D57
:107C900032850C82850D83E0F50C750D00780C1291
:107CA0004D32780E124D32850A82850B83127A6F1F
:107CB000127A881260A27406124ADE8B0BEA450B18
:107CC0007004790A80027900027C26E0F5107511B3
:107CD0000078102274F4124B1F8A0A8B0BECFEED15
:107CE000FF7C007D00127A881260A88A828B83E56F
:107CF000824583700479018010EEFCEFFDA3A3A3FD
:107D0000E0F9AA0AAB0B1260960271ED02788C744E
:107D1000F6124B1FECFEEDFF12610E8A0A8B0BA8C8
:107D20000AA90BE849602BEE4F60098E828F83E829
:107D3000F0A3E9F088828983A3A3E0F874FE687059
:107D4000047917800F74FF68700479008006791633
:107D500080027902027B2E74F6124B1F750A009086
:107D600002D1E06A7003A3E06B7016750B00740219
:107D7000780A124AB574D1250AFA7402350BFB80D1
:107D800013750A019002D5E06A7003A3E06B60DB13
:107D90007A007B00027B2E74F4124B1FEA4B604B7F
:107DA000EA2402F50AEB127091E0F874FF68603B78
:107DB00074FE686036EA2403FEEB3400FFE4F50C41
:107DC000F50D780C124D327D1E7C178A828B831242
:107DD0007C1BE0F912613E7402124ADE850A82853C
:107DE0000B8374FEF08E828F8304F00271ED74F0C9
:107DF000124B1F8A0C8B0D890E74FE650C70047477
:107E0000FF650D7003027ED8E9703012610E8B0B96
:107E1000EA450B6003027ED87AFF7BFF12610E8A6F
:107E20000A8B0BA80AA90BE8497003027ED8888246
:107E30008983E50CF0A3E50D027ED77401650E7011
:107E40001D12610E8A0A8B0BA80AA90BE849700360
:107E5000027ED88882898374FFF0A3F080217402A7
:107E6000650E707479011263C6E9706CAA0CAB0DD3
:107E700012610E8A0A8B0BA80AA90BE8496059E81F
:107E80002402FEE93400FF8E828F83E0FA74FF6AD9
:107E90006046E82403F50AE93400F50B74FE6A60D5
:107EA00022E4F510F5117810124D327D1E7C14AAD3
:107EB0000CAB0D850A82850B83E0F912613E7402DA
:107EC000124ADEEEFAEFFB12614A850A82850B83C5
:107ED00074FFF08E828F83F0027C2674F2124B1FA7
:107EE0008A0A8B0BECFEEDFF890C90031FE0640106
:107EF0007017900320E024FFF0F8A3E034FFF0F9BE
:107F0000E8497005790112642C740E124B13E0F5E8
:107F10000D90073CE060417A097B0012696CEA4BE6
:107F20007003027FC08A828B837490F0A374FFF089
:107F30008A828B83A3A3E50AF0A3E50B127FE3E516
:107F40000D127FDEE50CF0A3E4127FDEA3A3EEF0BA
:107F5000A3EFF090073C80617A047B0012696CEA21
:107F60004B605D8A828B837401F0A374FFF0EE2472
:107F7000FBF8EF34FFF9EA2402FCEB3400FD8C82BD
:107F80008D83E8F0A3E9F0888289837402F0127F80
:107F9000CCE50AF0E50DC454F0C0E0E50BF50AD0DD
:107FA000E0450AC0E0127FCCA3D0E0127FEDE50CE3
:107FB000127FEDA3E4F0900739E0F91269788007A9
:107FC000EEFAEFFB126DB67F06024BF1127FD02264
:107FD0008C828D83E0F8A3E0F5838882A322127F50
:107FE000E3A322F08A828B83A3A3A3A322F0127FB0
:107FF000D0A3A322024632FF851C87C2AF024632BD
:10800000C082C08390075EE0F8E94A6890075C6030
:108010003C7403F07410697013EAC333FCE433FD5D
:1080200074672CF58274073DF5838015E970207420
:10803000016A700590097B800874026A70119009CA
:108040007D129910900761ECF0A3ED8001E4F080BF
:1080500002A3F0D083D08202463274F0124B1F7418
:10806000FE124AC88A0A8B0B7E007F00EEF8EFF9F9
:108070007A027B00124A35E8C333F510E933F51173
:1080800074672510F50E74073511F50F850E82F50E
:1080900083A385820C85830D851A82851B83AC8220
:1080A000AD837A02EE248DF9126E2EE9601B741EE8
:1080B0002510F58274823511F5831296B0850E82F3
:1080C000850F83E8F0A3E98015851A82851B83124A
:1080D0009DCC7401124B13E0850E82850F83F0E571
:1080E0000A2EF8E50B128DBAEE2402FEEF3400FFE3
:1080F000C3EE9408EF128FE2500302806C74020208
:10810000864574F7124B1F74FE124AC8EAFEEBFF55
:10811000851A82851B83AC82AD837A027995126EB3
:108120002EE9604590076FE0600C146014248160B4
:108130001B14601F802890097B74BDF0A374048019
:108140003C90097B7403F0A37405803190097B7423
:10815000E0800590097B74F5F0A37401801F9009FD
:108160007B74FFF0A3743F8014851A82851B83E023
:10817000F97401124B13E090097BF0A3E9128DB062
:108180007997126E2EE9604190076FE0600C1460E1
:10819000102481601714601F802790097D74C680A9
:1081A0000590097D7465F0A37402803190097D7497
:1081B00016F0A37401802690097D74F5F0A3E48085
:1081C0001C90097DE4F0A38014851A82851B83E04E
:1081D000F97401124B13E090097DF0A3E9F09009C6
:1081E0007C12881B90097B12828690097E12828BFA
:1081F00090097D12829574020291FC74F7124B1F54
:1082000074FC124AC8EAFEEBFF851A82851B83AC18
:1082100082AD837A047989126E2EE9601090076F1F
:108220007401F0A304F0A304F0A3E48028851A826B
:10823000851B83E0900770F07401124B13E09007E8
:108240006FF07402124B13E0F97403124B13E090B9
:108250000771F0A3E9F090076FE0547F90106D7004
:108260000474148002740FF0A3E4F0900770128875
:108270001B90076F12828690077212828B90077193
:108280001282950291FA1286E8F02212828F22124F
:1082900086ECA3F022128299221286ECA3A3F0228C
:1082A00074E8124B1FEAFEEBFF8C0C8D0D74181254
:1082B0004B1378121249988E188F198E0A8F0BEE75
:1082C0004F702F7A057B001269DE8A0A8B0BAE0A8B
:1082D000AF0B8E828F83A3A3A3A3E4F08E828F8340
:1082E000A3A3E50CF0A3E50DF08E828F83E4F0A349
:1082F000804EEA2404F516EB3400F5179082877857
:10830000121248E6851682851783E0F50EE4F50F14
:10831000F510F5117812790E12465F502A80048804
:108320000A890B850A82850B8312945370F17A05B2
:108330007B001269DE12837E851682851783E00436
:10834000F08032880A890B850A82850B8312945348
:1083500070F17A057B001269DE12837E8E828F8334
:10836000E0FEA3E0FF851682851783129A4CAA18B7
:10837000AB191269E4EEFAEFFB7F10024BF18A0EA3
:108380008B0FA80EA90F88828983A3A3E50CF0A305
:10839000E50DF088828983E4F0A3F0850A82850BDD
:1083A00083E8F0A3E9F022C082C08390106B74844C
:1083B000F0A37403F08A828B83F090106BE08A82C2
:1083C0008B8302805174F4124B1F74FC124AC889CB
:1083D0000A900778E0650A7003028493851A828503
:1083E0001B83AA82AB83126ACE900976E0F50C75E6
:1083F000F005A4F8A9F0747F28FE740939FFE0C3E2
:1084000094C950198E828F8312849D1249B68E8230
:108410008F83A31249C2900976E004806B780079BB
:1084200000E8FAE9FBEA75F005A4FAACF075F0058E
:10843000EBA42CFB747F2AFC74093BFD8C828D839A
:10844000A3A3A3A3A374051249DBE8240108E9341C
:1084500000F9E50C24FFFAE434FFFBC3E89AE99B3A
:10846000A2D265D03340BAEE24FBF582EF34FFF59B
:108470008312849D1249B6EE24FCF582EF34FFF599
:10848000831249C2900976E4F0E50A900778F07902
:1084900001800279007404124ADE029903E50A128F
:1084A0009A4422C082C08390075FC3E09489A3E00E
:1084B000941390075F4005E4F0A380031294120226
:1084C000805274F7124B1F890A740F550AF874F022
:1084D000550A600A24F0603424F06067806F9009C8
:1084E00077E07069900978E0640260617401F07E61
:1084F000F4FFE8601214600514600680507A018071
:10850000027A0279008037126AEC8041900977E0A4
:10851000703B900978E064026033E4F07EF47F0100
:10852000E8600B14600C14600D14600E801F7A005C
:10853000800A7A0180067A0280027A037910126A30
:1085400068800A9009797401F07E007F00E50A9046
:10855000075EF0EEFAEFFB0291FF74F0124B1FEA98
:10856000FEEBFF908293124D4590077D1296B075F9
:108570008307758265E0C398FCA3E099FD900779B5
:1085800012944A126A807404124ADE900779EAF063
:10859000A3EBF07C007D009007791296B08007E095
:1085A0002CFCA3E03DFD88828983E5822402F8E566
:1085B000833400F9E8FAE9FB1294538A828B8370C2
:1085C000DEE02CF50AA3E03DF50B900763780E1270
:1085D000499890077B780E12464A600C9007637C9E
:1085E0007B7D0774041249DB900763780E1249986B
:1085F00090077F780E12464A603A9007831296B031
:10860000C3EE98EF99502D9007637C7F7D0774042B
:108610001249DB900783F0A3F07A04FB1269DE8A2B
:108620000C8B0DAE0CAF0D1286C3126EACEEFAEFD2
:10863000FB1269E49007831296C1AA0AAB0B80086B
:10864000126E287404124ADE7F08024BF174F7128E
:108650004B1FECFEEDFFEAC39EFAEB9FFB126B1C77
:10866000E9F50A900769E0C39EFAA3E09FFB126B4D
:108670001CE9650A7004790280027901900785E09F
:1086800069601A900786E0C394034009E4F0E9901A
:108690000785F08008E004F0900785E0F90291FF7B
:1086A00074F6124B1F7A047B001269DE8A0A8B0B68
:1086B000AE0AAF0B1286C3126EACEEFAEFFB126974
:1086C000E48033900763E08E828F83F0900764121A
:1086D00086E8F090076612828F900765128299EE05
:1086E000FCEFFD7A047905221286EC22E08E828F5F
:1086F00083A322124ADE7F02024BF174F6124B1F53
:108700007A087B001269DE8A0A8B0BAE0AAF0B1265
:108710006A6EEEFCEFFD7A087901126EACEEFAEFAC
:10872000FB1269E47A057B001269DE8A0A8B0BAEC4
:108730000AAF0B7C6C7D0D7A01799B126E2EE9607D
:1087400005900D6CE4F0900D6C12881BEEFCEFFDB3
:108750007A057906126EACEEFAEFFB1269E47A0440
:108760007B001269DE8A0A8B0BAE0AAF0B126A7AA3
:10877000EEFCEFFD7A047900126EACEEFAEFFB121C
:1087800069E47A047B001269DE8A0A8B0BAE0AAFB9
:108790000B126A74EEFCEFFD7A047903126EACEEF4
:1087A000FAEFFB1269E47A027B001269DE8A0A8B17
:1087B0000BAE0AAF0B126A86EEFCEFFD7A0279026D
:1087C000126EACEEFAEFFB1269E47A057B001269D7
:1087D000DE8A0A8B0BAE0AAF0B126B28EEFCEFFDA4
:1087E0007A05790F126EACEEFAEFFB1269E47A119A
:1087F0007B001269DE8A0A8B0BAE0AAF0B126B2E5E
:10880000EEFCEFFD7A11790D126EACEEFAEFFB1271
:1088100069E475C90043C9080286F6E08E828F8339
:10882000F02274EA124B1F8912750C00750D007C42
:10883000007D0079008913E51260351460142481ED
:10884000601B1470407514F57515017516F58917C0
:108850008017751403751505751665801C7514E071
:10886000751501751616751701900787740280112A
:108870007514BD7515047516C675170290078774B3
:1088800004F0A3E4F090097AE0F50A890B74037808
:108890000A124AB5850A10850B1174202510F50EB1
:1088A000740F3511F50F74102510F510740F351174
:1088B000F511EAC333F50AEB33F50BC3EA94011261
:1088C0008FE150030289FA900761E0F516A3E0F505
:1088D00017E514C39516F516E5159517F517C3E5B5
:1088E000169414E5179400503009900761E0C39581
:1088F00014F50CA3E09515F50DE50C2414F50CE525
:108900000D3400128BBFE5149401E515128FE2407F
:1089100006AC14AD1580028913128C6AEA9514EB2B
:108920009515A2D265D0335003028BA6E50E240222
:10893000F514E50F3400F515E5102402F582E51174
:108940003400F583E9A2E04049E5127003028AF59C
:1089500014601B24816038146003028BAA128BE61A
:10896000124A3512943F124A35128BB38017EAF837
:10897000EBF912944A124A35880C890DE50A250C48
:10898000F8E50B350DF9851482851583028B1902E4
:108990008AD3128BFE7003028B63146023248160E0
:1089A00056146003028BAA128BCE124A3512943FE2
:1089B000124A35880C890DEC250CFAED350D80171F
:1089C000ECF8EDF912944A124A3588108911E50C39
:1089D0002510FAE50D3511FB851482851583129952
:1089E00008850EF0A4F8ACF0850EF0E9A42CF9EAA5
:1089F00028F8EB39028B9B028B33128FE040030285
:108A00008BA6900761E0C39516F514A3E09517F5C2
:108A100015C3E5149414E5159400501B09E51424BE
:108A2000ECF50CE51534FF128BBF128FE25006AC4B
:108A300014AD1580028913128C6AE49514F514E4C0
:108A40009515F515C3E5149AE5159BA2D265D033AB
:108A50005003028BA6E5102406F582E5113400F5DB
:108A600083E5102404F510E5113400F511E9A2E0C6
:108A70005003028B22E50E2406F8E50F3400F98836
:108A80000C890DE50E2404F8E50F3400F9880E89F1
:108A90000FE512606014601B2481603714600302CC
:108AA0008BAA128BE6124A3512943F124A35128B6A
:108AB000B38017EAF8EBF912944A124A35880E8906
:108AC0000FE50A250EF8E50B350FF9850C82850DAB
:108AD000838046128BE6124A35E8FCE9FDECC3338D
:108AE000FCED33FD85108285118312944A124A35BC
:108AF000128BB3801DEAF8EBF98510828511831281
:108B0000944A124A35880C890DE50A250CF8E50BC4
:108B1000350DF9850E82850F83E028FEA3E039022A
:108B20008BA3128BFE603C14603F2481600514709F
:108B3000798006851082851183E0FEA3E0FF128B09
:108B4000CE124A35E8FCE9FDECC333FCED33FDEE13
:108B5000FAEFFB124A35880C890DEC250CF8ED353F
:108B60000D8023851082851183E0FEA3E0FFECF8E1
:108B7000EDF9EEFAEFFB124A3588108911E50C2564
:108B800010F8E50D3511F9EE850EF0A4FEAAF0857A
:108B90000EF0EFA42AFFE82EF8E93FF9E8250AFED7
:108BA000E9350BFF80047E007F00EEFAEFFB7F0EBD
:108BB000024BF1880A890BEC250AF8ED350B22F5FA
:108BC0000DEAC3950CF514EB950DF515C322EC7564
:108BD000F07FA4FCA8F075F07FEDA428FDECF8ED83
:108BE000F97A327B0022EA75F07FA4FAA8F075F0DA
:108BF0007FEBA428FBEAF8EBF97A327B0022E5133D
:108C0000A2E0B3E433F50EE50C9AF8E50D9BF98587
:108C1000130AE8850AF0A4F885F013850AF0E9A4A0
:108C20002513F9EAC3950CFAEB950DFBEA850EF0D6
:108C3000A4FA85F00A850EF0EBA4250AFBE82AF5D4
:108C40000AE93BF50BE50A75F003A4F50AA8F075EF
:108C5000F003E50BA428F50B8C0C8D0DE50CC3334C
:108C6000F50CE50D33F50DE51222900787E0F514BC
:108C7000A3E0F515C32274F7124B1F74F6124AC80D
:108C8000E9FEEAC333FAEB33FB74672AF874073B57
:108C9000F988828983ECF0A3ED129101888289839F
:108CA000E0C0E07401124B13D0E0128DB0EEF91267
:108CB0006E287A007B00EAF8EBF9E8C333F8E93371
:108CC000F97402124B13E58228FCE58339FD7467C1
:108CD00028F8740739F988828983A3E08C828D8310
:108CE000F088828983E08C828D83A3128F6794043D
:108CF000128FE140C17402124B13AC82AD837A082B
:108D00007901126EAC126AF8740A0291FC74F012C6
:108D10004B1F74F6124AC88A0A8B0B751000751126
:108D200000E510C333FEE51133FF74672EF50E74B2
:108D3000073FF50F850E82F583A385820C85830D91
:108D4000E50A2EF582E50B3FF583129453602385E7
:108D50000E82850F83E8129A3D128DD1C0E0740116
:108D6000124B13D0E0128DB0E510C333248DF912ED
:108D70006E287402124B13E5822EF8E583128DBA29
:108D8000E5102401F510E5113400F511C3E5109448
:108D900004E511128FE240897402124B13AC82ADCC
:108DA000837A087901126EAC126AF8740A02864559
:108DB000129A44AC82AD837A02223FF9850C8285F7
:108DC0000D83E088828983128DD188828983A3F004
:108DD00022F0850E82850F83E02274EC124B1F8AED
:108DE0000E7512007513007514007515007A008554
:108DF0000E0A8B0B8C0C8D0DEA33333354F8780A42
:108E000012489B908297780A12495F7403C39A3381
:108E1000333354F8780A1248B47812790A12498523
:108E20000AEAC3940440C8AA12AB13AC14AD157F70
:108E30000C024BF174F7124B1F74FC124AC8EAFE85
:108E4000EBFF1269C61269CC126AC8851A82851BAB
:108E5000831249C2851A82851B83EEFCEFFDECFA72
:108E6000EDFB74041249DB0291FA74F4124B1F7A81
:108E7000057B001269DE8A0A8B0BAE0AAF0B740CFD
:108E8000124B1312881B78017900C3E498FAE49915
:108E9000FB740C124B13E5822AF582E5833BF583C4
:108EA000A3A3A3A3A3E0C0E0128FD7D0E0129071D8
:108EB00040D8EEFCEFFD7A057906126EACEEFAEFC3
:108EC000FB1269E4740C124B13E06018740D124B22
:108ED00013780A124998E50A450B450C450D7004B4
:108EE00079018002790002990374F6124B1F9009F0
:108EF00079E060707A107B001269DE8A0A8B0BAE13
:108F00000AAF0B900789E075F00FA4F8A9F0747F01
:108F100028F8740939F912881B900789E004F07A5F
:108F2000007B00E82AF582E93BF583E0C0E0EE2A09
:108F3000F582EF3BF583A3D0E0128F67940F128F79
:108F4000E140E0EEFCEFFD7A107908126EACEEFA2B
:108F5000EFFB1269E4900789E0C394434006E4F014
:108F6000900979F00286F6F0EA24010AEB3400FB5E
:108F7000C3EA2274F6124B1F74FC124AC8851A8287
:108F8000851B83AA82AB83126ACE7A047B001269A6
:108F9000DE8A0A8B0BAE0AAF0B78007900851A8245
:108FA000851B83E58228F582E58339F583E0C0E0FF
:108FB000128FD7D0E01290839404E9128FE240DD43
:108FC000EEFCEFFD7A047907126EACEEFAEFFB12BD
:108FD00069E474040286F3EE28F582EF39F5832202
:108FE000C3EB12907B2274F0124B1F74FC124AC820
:108FF000EAFEEBFF8E828F83E0900D6CF01269C663
:1090000078017900128FD7E0C0E0851A82851B8332
:10901000E58228FAE58339FBEA24FFF582EB34FF89
:10902000F583D0E012907140DB851A82851B831294
:1090300049B6126AC88A0A8B0B8C0C8D0D1269CC4A
:109040008A0E8B0F8C108D11780A790E1248D390EE
:109050000D71780A1249A7851A82851B831249B6B9
:10906000900D6D1249C27C6C7D0D7A01799B028650
:10907000401290839405E912907B229400A2D2655D
:10908000D03322F0E8240108E93400F9C3E822C013
:1090900082C083900978E4F090075CF090075EF05E
:1090A000900972F0028051C082C0838A828B83A3B0
:1090B000E0F8748168600D7401686008748068600D
:1090C00003E8700BEAFCEBFD7A047989126E281232
:1090D0006AB0028053C082C08374FE124AC89010E6
:1090E0006B7484F0A374031291017401124B137416
:1090F00084128DB07902126EAC7402124ADE0280C4
:1091000053129A44F02274F7124B1F74F8124AC893
:10911000EAFCEBFD8C828D83E0C0E07401124B13FE
:10912000D0E0F08C828D83A3E0851A82851B83F0CA
:10913000EC2402FEED3400FF8E828F83E0C0E074E9
:1091400003124B13D0E0F08C828D83A3A3A3E0C065
:10915000E07402124B13D0E012849F1294539009D2
:109160007B600C1291F47A027995126E28800C12B1
:1091700096B0851A82851B831291F47402124B13E8
:1091800012945390097D60101291F4EEFCEFFD7A79
:10919000027997126E28800B1296B07402124B134C
:1091A0001291F47401124B13E0C0E07404124B13DB
:1091B000D0E012849FE0C0E07405124B13D0E0F0C1
:1091C0007403124B13E0C0E07406124B13D0E0F0AE
:1091D0007402124B13E0C0E07407124B13D0E0F09E
:1091E0007404124B13AC82AD837A047903126EAC13
:1091F00074088008E8F0A3E9F0227404124ADE7FC4
:1092000001024BF174F0124B1F900763E064017090
:109210006790076512943690078A129429E0687067
:1092200003A3E0696046E8496046900777E0604044
:10923000900974E0C398F50AA3E099F50B3395E023
:10924000F50CF50D780A12469EE50DC2E7F50D9076
:10925000829B780E124998780A790E12474850106E
:1092600090078A129436900777E48026E8497023A5
:109270001296AD90078A8016E06406600590097B1F
:1092800080099009787402F090078A129429E8F016
:10929000A3E9F090075CE0703F90075DE064037025
:1092A00027C390097312940D50030293E990097239
:1092B000C3E09401A312940D40030293BE75800095
:1092C00053FD0F90075D800CE0700302940A7580D7
:1092D0000053FD0FE4029409F890075DE068700305
:1092E00002938590075CE0146009146017146026EF
:1092F00002937B900974C08212941FD082129DDE6B
:109300005079802D90097D12944A1296ADC3EA9847
:10931000EB995067803590097BC082900761129667
:10932000B0758309D082129DDE500F90097B129692
:10933000B0900761E8F0A3E9801890097D12944A83
:10934000900761C3E09AA3E09B5008900761EAF0A0
:10935000A3EBF090076FE0F9900761C08290097469
:1093600012944A758307D082E0C39AFAA3E09BFB6C
:10937000126AB6900972EAF0A3EBF090075CE090F5
:10938000075D02940990097212945370167580005B
:1093900053FD0F90075CE4F090075EF0900978743D
:1093A00002806690075CE014600514602A805B9080
:1093B0000974C08212941FD082129DDE503F900922
:1093C00077E0700643FDF0758040900972E024FF5D
:1093D000F0A3E034FF803290097DC0821296AD7513
:1093E0008309D082129DDE5014900977E070064305
:1093F000FDF0758080900972129412800C758000C7
:1094000053FD0F900972E4F0A3F0028648E0129039
:109410007B2212941622E02401F0A3E03400229073
:10942000097B1296B47583092212942D22E0F8A3C9
:10943000E0F99009742212942DE8F0A3E9F022E8F3
:10944000FCE9FDECC333FCED33FDE0FAA3E0FB22C5
:109450009007651296B4E84922C082C083E5905413
:109460000F90078CF0900978E0640170030296AACF
:1094700090078CE0640F900978702BE4F090075C03
:10948000F090078D740FF090078EE4F090075DE088
:1094900064037009900977E070030296AA75800052
:1094A00053FD0F0296AA7402F0900977E060030260
:1094B00096AA90078DE0F890078CE06870030296FA
:1094C0004A90075DE06403700302963290078CE0D7
:1094D00024FD70030295B224FE605024FE60302407
:1094E000FE70030295DE24FE700302957724FE6071
:1094F00009147003029621029641900763E0640606
:109500007005129450701590075C7401029640909B
:109510000763E06406700C129450600790075CE4E7
:1095200002964090075C7402029640900763E064E4
:1095300006601E900767E0F47003A3E0F470030276
:10954000964190075C7403F09007671296B00295FD
:10955000F9129450600302964112990D798D7A00A8
:109560007B00126ABC900977E0600302964143FDDC
:10957000F07580C0029641900763E06406600D902C
:1095800007691296BA706A74FF6980651294506018
:109590000302964112990D798F7A017B00126ABC01
:1095A000900977E0600302964143FDF07580200248
:1095B0009641900763E06406600590076B802A126D
:1095C0009450707D12990D79917A027B00126ABCD9
:1095D000900977E0706B43FDF07580A08063900781
:1095E00063E06406601C90076D1296BA700374FF06
:1095F00069604E90075C7403F0900761E8F0A3E99E
:10960000803E129450703A12990D79937A037B0040
:10961000126ABC900977E0702843FDF07580608085
:109620002090075CE4F043FDF0758010900777040C
:10963000800E90075CE4F090075DF0900972F0A353
:10964000F090078CE090078D805FE0640E705B7592
:10965000800053FD0F90078FC3E09410A3E09400A7
:10966000401F900D75E090075C700E7401F0900D36
:1096700075129DC5126B4080087402F0900D75E460
:10968000F090078EE0702390078F1296C190078F9D
:10969000C3E09419A3E09400401090075CE4F090BC
:1096A000078FF0A3F090078E04F0028053900974A6
:1096B0001296B422E0F8A3E0F9221296B474FF687F
:1096C00022129416F02274F4124B1FE9FE74046EF9
:1096D00060030297EE90075F12945370030297EEB7
:1096E00090075FC3E0941EA3E09400500B7C047DC0
:1096F000007A917B07126D68900791E0900799F0CE
:10970000900792E0F990079AF0900793E0FA90079B
:109710009BF0900794E0FB90079CF090829F780A62
:10972000124998900795780A12464A70729082A75B
:10973000780A124998900799780A12464A604C9024
:109740000799780A1249987401650A7004740265D1
:109750000B6014900799780A1249987401650A7091
:10976000047401650B70249082BF780A12499890A6
:109770000799780A12464A60129082A3780A124921
:1097800098900799780A12464A70149007997401C4
:10979000F0A37404F0A37401F0A374AAF0804F90B6
:1097A0000799780A1249987401650A70047405656E
:1097B0000B700E9007957C997D0774041249DB802D
:1097C0000FE9900763F0EA900766F0EB900765F009
:1097D000900799780A124998900795780A12464A94
:1097E000600C9007997C957D0774041249DB900703
:1097F0005FE4F0A3F002990374F4124B1FEAFEEB4E
:10980000FFEEF8EFF9E8C333F8E933F990076FE0BA
:10981000600C1460112481601514601A8022750A8E
:1098200030750B0F801A750A3A750B0F8012750A86
:1098300030750B0F8006750A3A750B0FE8FEE9FFCD
:109840001296AD758307758261E0C398FAA3E0991B
:10985000FB850A82850B83129910C3EC9EED9FA2B3
:10986000D265D033502E90076FE0F9126AB68A0C99
:109870008B0DAC0CAD0DEEF8EFF9850A82850B83EC
:10988000A3A312944A124A35880C890D850A828551
:109890000B838047C3E49CF8E49DF9C3EE98EF99ED
:1098A000A2D265D033505C90076FE0F9126AB68A95
:1098B0000C8B0DAC0CAD0DEEF8EFF9850A82850B23
:1098C00083A3A3A3A3A3A312944A124A35880C89A5
:1098D0000D850A82850B83A3A3A3A3A3A3A3A3122D
:1098E0009908850CF0A4C8AAF0850DF0A42AFA8581
:1098F0000CF0E9A42AF9ECC398F8ED99F9900972F3
:109900001291F47F04024BF11296B4E8229009748C
:10991000E0FCA3E0FD22128FE05004790080027980
:109920000102463274F0124B1F8A0A8B0B8C0C8D8D
:109930000D1269C61269CC8A0E8B0F8C108D1178AE
:109940000A790E12465F5011780A790E12490CAA54
:109950000AAB0BAC0CAD0D80087A007B007C007D5F
:109960000002864874F7124B1F74FB124AC8EAFEC5
:10997000EBFF851A82851B83AC82AD837A05799CC7
:10998000126E2EE96026851A82851B837401F012FF
:109990004B137403F014124B137484F07403124BC2
:1099A000137407F07404124B137408F07402124B12
:1099B00013E0FA7401124B13E0F9EA900775129163
:1099C000F57404124B13E0FA7403124B13E0F9EA36
:1099D000900773129A3DE0900D78F0900D75E412A7
:1099E0009A31900D77F01269C6900D81741EF0A324
:1099F000E4F0A3F0A3F01269CC900D791249C29063
:109A00000D75E0A2E0E4331313F8900D78E0488E72
:109A1000828F83F090077612828690077512828B70
:109A2000900774128295900773129A4C74050291F4
:109A3000FCF0900D7DF0A3F0A3F0A3F022F0A3E9D9
:109A4000129A4422F0851A82851B83221286E8A38B
:109A5000A3A3F02274F6124B1F74EF124AC8EAFE59
:109A6000EBFF851A82851B83AC82AD837A1179E086
:109A7000126E2EE960137C117D007900851A8285B3
:109A80001B83AA82AB8312695A750A11750B007881
:109A90000A124D327402124B13AC82AD837A897B69
:109AA0000D1269427402124ADE780A124D327C8924
:109AB0007D0DEEFAEFFB1269427402124ADE741158
:109AC0000286F374F6124B1FEAFEEBFFEEFCEFFD8D
:109AD0007A1179E0126E28750A11750B00780A1256
